{
  "_format": "hh-sol-artifact-1",
  "contractName": "ReputationSystem",
  "sourceName": "contracts/ReputationSystem.sol",
  "abi": [
    {
      "inputs": [
        {
          "internalType": "string",
          "name": "reason",
          "type": "string"
        }
      ],
      "name": "InvalidParameters",
      "type": "error"
    },
    {
      "inputs": [],
      "name": "Unauthorized",
      "type": "error"
    },
    {
      "anonymous": false,
      "inputs": [
        {
          "indexed": true,
          "internalType": "address",
          "name": "previousOwner",
          "type": "address"
        },
        {
          "indexed": true,
          "internalType": "address",
          "name": "newOwner",
          "type": "address"
        }
      ],
      "name": "OwnershipTransferred",
      "type": "event"
    },
    {
      "anonymous": false,
      "inputs": [
        {
          "indexed": true,
          "internalType": "address",
          "name": "user",
          "type": "address"
        },
        {
          "indexed": false,
          "internalType": "uint256",
          "name": "newScore",
          "type": "uint256"
        },
        {
          "indexed": false,
          "internalType": "string",
          "name": "reason",
          "type": "string"
        }
      ],
      "name": "ReputationUpdated",
      "type": "event"
    },
    {
      "anonymous": false,
      "inputs": [
        {
          "indexed": false,
          "internalType": "address",
          "name": "updater",
          "type": "address"
        },
        {
          "indexed": false,
          "internalType": "bool",
          "name": "allowed",
          "type": "bool"
        }
      ],
      "name": "UpdaterSet",
      "type": "event"
    },
    {
      "inputs": [
        {
          "internalType": "address",
          "name": "",
          "type": "address"
        }
      ],
      "name": "authorizedUpdater",
      "outputs": [
        {
          "internalType": "bool",
          "name": "",
          "type": "bool"
        }
      ],
      "stateMutability": "view",
      "type": "function"
    },
    {
      "inputs": [
        {
          "internalType": "address",
          "name": "user",
          "type": "address"
        }
      ],
      "name": "getReputation",
      "outputs": [
        {
          "internalType": "uint256",
          "name": "",
          "type": "uint256"
        }
      ],
      "stateMutability": "view",
      "type": "function"
    },
    {
      "inputs": [],
      "name": "owner",
      "outputs": [
        {
          "internalType": "address",
          "name": "",
          "type": "address"
        }
      ],
      "stateMutability": "view",
      "type": "function"
    },
    {
      "inputs": [
        {
          "internalType": "address",
          "name": "updater",
          "type": "address"
        },
        {
          "internalType": "bool",
          "name": "allowed",
          "type": "bool"
        }
      ],
      "name": "setUpdater",
      "outputs": [],
      "stateMutability": "nonpayable",
      "type": "function"
    },
    {
      "inputs": [
        {
          "internalType": "address",
          "name": "newOwner",
          "type": "address"
        }
      ],
      "name": "transferOwnership",
      "outputs": [],
      "stateMutability": "nonpayable",
      "type": "function"
    },
    {
      "inputs": [
        {
          "internalType": "address",
          "name": "user",
          "type": "address"
        },
        {
          "internalType": "uint256",
          "name": "",
          "type": "uint256"
        },
        {
          "internalType": "bool",
          "name": "onTime",
          "type": "bool"
        }
      ],
      "name": "updateOnContribution",
      "outputs": [],
      "stateMutability": "nonpayable",
      "type": "function"
    },
    {
      "inputs": [
        {
          "internalType": "address",
          "name": "user",
          "type": "address"
        }
      ],
      "name": "updateOnDefault",
      "outputs": [],
      "stateMutability": "nonpayable",
      "type": "function"
    },
    {
      "inputs": [
        {
          "internalType": "address",
          "name": "user",
          "type": "address"
        },
        {
          "internalType": "uint256",
          "name": "",
          "type": "uint256"
        }
      ],
      "name": "updateOnWinningBid",
      "outputs": [],
      "stateMutability": "nonpayable",
      "type": "function"
    }
  ],
  "bytecode": "0x608060405234801561001057600080fd5b50600080546001600160a01b0319163390811782556040519091907f8be0079c531659141344cd1fd0a4f28419497f9722a3daafe3b4186f6b6457e0908290a36107ad8061005f6000396000f3fe608060405234801561001057600080fd5b50600436106100885760003560e01c8063ac8038af1161005b578063ac8038af1461011c578063d92b5e731461012f578063f2fde38b14610162578063f7e9fd991461017557600080fd5b80631a1533911461008d578063282257d4146100a25780638da5cb5b146100b55780639c89a0e2146100e5575b600080fd5b6100a061009b3660046105fe565b610188565b005b6100a06100b0366004610631565b610215565b6000546100c8906001600160a01b031681565b6040516001600160a01b0390911681526020015b60405180910390f35b61010e6100f336600461065b565b6001600160a01b031660009081526001602052604090205490565b6040519081526020016100dc565b6100a061012a36600461065b565b6102eb565b61015261013d36600461065b565b60026020526000908152604090205460ff1681565b60405190151581526020016100dc565b6100a061017036600461065b565b6103ca565b6100a061018336600461067d565b610493565b6000546001600160a01b031633146101b2576040516282b42960e81b815260040160405180910390fd5b6001600160a01b038216600081815260026020908152604091829020805460ff19168515159081179091558251938452908301527f9e0f3fc17a5f47bd46f3cab56d4d8a9ea9f32ad817657c3ea8e5dff28da3e3e7910160405180910390a15050565b3360009081526002602052604090205460ff1661024e5760405163dd23c3ad60e01b8152600401610245906106b9565b60405180910390fd5b6001600160a01b0382166000908152600160208190526040822054610272916106f4565b905061027d816105bb565b6001600160a01b03841660008181526001602090815260409182902084905581519384528301819052600390830152623bb4b760e91b6060830152907fc17e77081800e4bec45161da763d23d62f41146fb2629ee32a8fea0765743a129060800160405180910390a2505050565b3360009081526002602052604090205460ff1661031b5760405163dd23c3ad60e01b8152600401610245906106b9565b6001600160a01b0381166000908152600160205260409020546005811161034357600061034e565b61034e60058261070d565b9050610359816105bb565b6001600160a01b0383166000818152600160209081526040918290208490558151938452830181905260079083015266191959985d5b1d60ca1b6060830152907fc17e77081800e4bec45161da763d23d62f41146fb2629ee32a8fea0765743a129060800160405180910390a25050565b6000546001600160a01b031633146103f4576040516282b42960e81b815260040160405180910390fd5b6001600160a01b0381166104385760405163dd23c3ad60e01b815260206004820152600a6024820152693d32b9379037bbb732b960b11b6044820152606401610245565b600080546040516001600160a01b03808516939216917f8be0079c531659141344cd1fd0a4f28419497f9722a3daafe3b4186f6b6457e091a3600080546001600160a01b0319166001600160a01b0392909216919091179055565b3360009081526002602052604090205460ff166104c35760405163dd23c3ad60e01b8152600401610245906106b9565b6001600160a01b03831660009081526001602052604090205481156104f4576104ed8160026106f4565b9050610511565b6001811161050357600061050e565b61050e60018261070d565b90505b61051a816105bb565b6001600160a01b0385166000818152600160205260409020829055907fc17e77081800e4bec45161da763d23d62f41146fb2629ee32a8fea0765743a12908461057f57604051806040016040528060048152602001636c61746560e01b81525061059f565b604051806040016040528060068152602001656f6e54696d6560d01b8152505b6040516105ad929190610720565b60405180910390a250505050565b600060648211156105ce57506064919050565b5090565b80356001600160a01b03811681146105e957600080fd5b919050565b803580151581146105e957600080fd5b6000806040838503121561061157600080fd5b61061a836105d2565b9150610628602084016105ee565b90509250929050565b6000806040838503121561064457600080fd5b61064d836105d2565b946020939093013593505050565b60006020828403121561066d57600080fd5b610676826105d2565b9392505050565b60008060006060848603121561069257600080fd5b61069b846105d2565b9250602084013591506106b0604085016105ee565b90509250925092565b6020808252600b908201526a3737ba103ab83230ba32b960a91b604082015260600190565b634e487b7160e01b600052601160045260246000fd5b80820180821115610707576107076106de565b92915050565b81810381811115610707576107076106de565b8281526000602060406020840152835180604085015260005b8181101561075557858101830151858201606001528201610739565b506000606082860101526060601f19601f83011685010192505050939250505056fea26469706673582212200280bae78dcc9f2d9a1e99c49fdfa7323a1b799e4f6d798a5c1ae33d279ab1a664736f6c63430008180033",
  "linkReferences": {},
  "deployedLinkReferences": {}
}