{
  "_format": "hh-sol-artifact-1",
  "contractName": "ChitGroup",
  "sourceName": "contracts/ChitGroup.sol",
  "abi": [
    {
      "inputs": [
        {
          "components": [
            {
              "internalType": "address",
              "name": "organizer",
              "type": "address"
            },
            {
              "internalType": "address",
              "name": "currency",
              "type": "address"
            },
            {
              "internalType": "uint256",
              "name": "contributionAmount",
              "type": "uint256"
            },
            {
              "internalType": "uint256",
              "name": "membersMax",
              "type": "uint256"
            },
            {
              "internalType": "uint256",
              "name": "durationPeriods",
              "type": "uint256"
            },
            {
              "internalType": "uint256",
              "name": "startTime",
              "type": "uint256"
            },
            {
              "internalType": "uint256",
              "name": "organizerFeeBps",
              "type": "uint256"
            },
            {
              "internalType": "uint256",
              "name": "securityDeposit",
              "type": "uint256"
            },
            {
              "internalType": "uint256",
              "name": "biddingCommitDuration",
              "type": "uint256"
            },
            {
              "internalType": "uint256",
              "name": "biddingRevealDuration",
              "type": "uint256"
            },
            {
              "internalType": "uint256",
              "name": "periodDuration",
              "type": "uint256"
            }
          ],
          "internalType": "struct ChitGroup.Config",
          "name": "c",
          "type": "tuple"
        },
        {
          "internalType": "address",
          "name": "reputationSystem_",
          "type": "address"
        }
      ],
      "stateMutability": "nonpayable",
      "type": "constructor"
    },
    {
      "inputs": [],
      "name": "AlreadyJoined",
      "type": "error"
    },
    {
      "inputs": [],
      "name": "GroupFull",
      "type": "error"
    },
    {
      "inputs": [
        {
          "internalType": "string",
          "name": "reason",
          "type": "string"
        }
      ],
      "name": "InvalidParameters",
      "type": "error"
    },
    {
      "inputs": [],
      "name": "NotActive",
      "type": "error"
    },
    {
      "inputs": [],
      "name": "TooEarly",
      "type": "error"
    },
    {
      "inputs": [],
      "name": "Unauthorized",
      "type": "error"
    },
    {
      "anonymous": false,
      "inputs": [
        {
          "indexed": true,
          "internalType": "address",
          "name": "member",
          "type": "address"
        },
        {
          "indexed": true,
          "internalType": "uint256",
          "name": "cycle",
          "type": "uint256"
        },
        {
          "indexed": false,
          "internalType": "uint256",
          "name": "amount",
          "type": "uint256"
        }
      ],
      "name": "ContributionMade",
      "type": "event"
    },
    {
      "anonymous": false,
      "inputs": [
        {
          "indexed": true,
          "internalType": "uint256",
          "name": "cycle",
          "type": "uint256"
        },
        {
          "indexed": false,
          "internalType": "address",
          "name": "bidding",
          "type": "address"
        }
      ],
      "name": "CycleOpened",
      "type": "event"
    },
    {
      "anonymous": false,
      "inputs": [
        {
          "indexed": true,
          "internalType": "uint256",
          "name": "cycle",
          "type": "uint256"
        },
        {
          "indexed": false,
          "internalType": "address",
          "name": "winner",
          "type": "address"
        },
        {
          "indexed": false,
          "internalType": "uint256",
          "name": "amountToWinner",
          "type": "uint256"
        }
      ],
      "name": "FundsDistributed",
      "type": "event"
    },
    {
      "anonymous": false,
      "inputs": [
        {
          "indexed": true,
          "internalType": "address",
          "name": "member",
          "type": "address"
        }
      ],
      "name": "Joined",
      "type": "event"
    },
    {
      "anonymous": false,
      "inputs": [
        {
          "indexed": true,
          "internalType": "address",
          "name": "previousOwner",
          "type": "address"
        },
        {
          "indexed": true,
          "internalType": "address",
          "name": "newOwner",
          "type": "address"
        }
      ],
      "name": "OwnershipTransferred",
      "type": "event"
    },
    {
      "anonymous": false,
      "inputs": [
        {
          "indexed": true,
          "internalType": "address",
          "name": "by",
          "type": "address"
        }
      ],
      "name": "Paused",
      "type": "event"
    },
    {
      "anonymous": false,
      "inputs": [
        {
          "indexed": true,
          "internalType": "address",
          "name": "by",
          "type": "address"
        }
      ],
      "name": "Unpaused",
      "type": "event"
    },
    {
      "anonymous": false,
      "inputs": [
        {
          "indexed": true,
          "internalType": "uint256",
          "name": "cycle",
          "type": "uint256"
        },
        {
          "indexed": true,
          "internalType": "address",
          "name": "winner",
          "type": "address"
        },
        {
          "indexed": false,
          "internalType": "uint256",
          "name": "winningAmount",
          "type": "uint256"
        }
      ],
      "name": "WinnerSelected",
      "type": "event"
    },
    {
      "inputs": [],
      "name": "cfg",
      "outputs": [
        {
          "internalType": "address",
          "name": "organizer",
          "type": "address"
        },
        {
          "internalType": "address",
          "name": "currency",
          "type": "address"
        },
        {
          "internalType": "uint256",
          "name": "contributionAmount",
          "type": "uint256"
        },
        {
          "internalType": "uint256",
          "name": "membersMax",
          "type": "uint256"
        },
        {
          "internalType": "uint256",
          "name": "durationPeriods",
          "type": "uint256"
        },
        {
          "internalType": "uint256",
          "name": "startTime",
          "type": "uint256"
        },
        {
          "internalType": "uint256",
          "name": "organizerFeeBps",
          "type": "uint256"
        },
        {
          "internalType": "uint256",
          "name": "securityDeposit",
          "type": "uint256"
        },
        {
          "internalType": "uint256",
          "name": "biddingCommitDuration",
          "type": "uint256"
        },
        {
          "internalType": "uint256",
          "name": "biddingRevealDuration",
          "type": "uint256"
        },
        {
          "internalType": "uint256",
          "name": "periodDuration",
          "type": "uint256"
        }
      ],
      "stateMutability": "view",
      "type": "function"
    },
    {
      "inputs": [
        {
          "internalType": "bytes32",
          "name": "commitHash",
          "type": "bytes32"
        }
      ],
      "name": "commitBid",
      "outputs": [],
      "stateMutability": "nonpayable",
      "type": "function"
    },
    {
      "inputs": [],
      "name": "currentCycle",
      "outputs": [
        {
          "internalType": "uint256",
          "name": "",
          "type": "uint256"
        }
      ],
      "stateMutability": "view",
      "type": "function"
    },
    {
      "inputs": [],
      "name": "currentPhase",
      "outputs": [
        {
          "internalType": "enum ChitGroup.CycleStatus",
          "name": "",
          "type": "uint8"
        }
      ],
      "stateMutability": "view",
      "type": "function"
    },
    {
      "inputs": [
        {
          "internalType": "uint256",
          "name": "",
          "type": "uint256"
        }
      ],
      "name": "cycleBidding",
      "outputs": [
        {
          "internalType": "contract BiddingSystem",
          "name": "",
          "type": "address"
        }
      ],
      "stateMutability": "view",
      "type": "function"
    },
    {
      "inputs": [
        {
          "internalType": "uint256",
          "name": "",
          "type": "uint256"
        }
      ],
      "name": "cycleWinner",
      "outputs": [
        {
          "internalType": "address",
          "name": "",
          "type": "address"
        }
      ],
      "stateMutability": "view",
      "type": "function"
    },
    {
      "inputs": [],
      "name": "distributeFunds",
      "outputs": [],
      "stateMutability": "nonpayable",
      "type": "function"
    },
    {
      "inputs": [],
      "name": "finalizeBidding",
      "outputs": [],
      "stateMutability": "nonpayable",
      "type": "function"
    },
    {
      "inputs": [],
      "name": "getMembers",
      "outputs": [
        {
          "internalType": "address[]",
          "name": "",
          "type": "address[]"
        }
      ],
      "stateMutability": "view",
      "type": "function"
    },
    {
      "inputs": [
        {
          "internalType": "address",
          "name": "",
          "type": "address"
        }
      ],
      "name": "isMember",
      "outputs": [
        {
          "internalType": "bool",
          "name": "",
          "type": "bool"
        }
      ],
      "stateMutability": "view",
      "type": "function"
    },
    {
      "inputs": [],
      "name": "joinGroup",
      "outputs": [],
      "stateMutability": "payable",
      "type": "function"
    },
    {
      "inputs": [
        {
          "internalType": "uint256",
          "name": "amount",
          "type": "uint256"
        }
      ],
      "name": "makeContribution",
      "outputs": [],
      "stateMutability": "payable",
      "type": "function"
    },
    {
      "inputs": [
        {
          "internalType": "uint256",
          "name": "",
          "type": "uint256"
        }
      ],
      "name": "members",
      "outputs": [
        {
          "internalType": "address",
          "name": "",
          "type": "address"
        }
      ],
      "stateMutability": "view",
      "type": "function"
    },
    {
      "inputs": [
        {
          "internalType": "uint256",
          "name": "cycle",
          "type": "uint256"
        }
      ],
      "name": "openCycle",
      "outputs": [],
      "stateMutability": "nonpayable",
      "type": "function"
    },
    {
      "inputs": [],
      "name": "organizer",
      "outputs": [
        {
          "internalType": "address",
          "name": "",
          "type": "address"
        }
      ],
      "stateMutability": "view",
      "type": "function"
    },
    {
      "inputs": [],
      "name": "owner",
      "outputs": [
        {
          "internalType": "address",
          "name": "",
          "type": "address"
        }
      ],
      "stateMutability": "view",
      "type": "function"
    },
    {
      "inputs": [],
      "name": "pause",
      "outputs": [],
      "stateMutability": "nonpayable",
      "type": "function"
    },
    {
      "inputs": [],
      "name": "paused",
      "outputs": [
        {
          "internalType": "bool",
          "name": "",
          "type": "bool"
        }
      ],
      "stateMutability": "view",
      "type": "function"
    },
    {
      "inputs": [],
      "name": "payments",
      "outputs": [
        {
          "internalType": "contract PaymentManager",
          "name": "",
          "type": "address"
        }
      ],
      "stateMutability": "view",
      "type": "function"
    },
    {
      "inputs": [],
      "name": "reputationSystem",
      "outputs": [
        {
          "internalType": "address",
          "name": "",
          "type": "address"
        }
      ],
      "stateMutability": "view",
      "type": "function"
    },
    {
      "inputs": [
        {
          "internalType": "uint256",
          "name": "amount",
          "type": "uint256"
        },
        {
          "internalType": "bytes32",
          "name": "salt",
          "type": "bytes32"
        }
      ],
      "name": "revealBid",
      "outputs": [],
      "stateMutability": "nonpayable",
      "type": "function"
    },
    {
      "inputs": [
        {
          "internalType": "address",
          "name": "newOwner",
          "type": "address"
        }
      ],
      "name": "transferOwnership",
      "outputs": [],
      "stateMutability": "nonpayable",
      "type": "function"
    },
    {
      "inputs": [],
      "name": "unpause",
      "outputs": [],
      "stateMutability": "nonpayable",
      "type": "function"
    }
  ],
  "bytecode": "0x60806040523480156200001157600080fd5b5060405162002c6338038062002c63833981016040819052620000349162000269565b600080546001600160a01b0319163390811782556040519091907f8be0079c531659141344cd1fd0a4f28419497f9722a3daafe3b4186f6b6457e0908290a381516001600160a01b0316620000bd5760405163dd23c3ad60e01b815260206004820152600960248201526837b933b0b734bd32b960b91b60448201526064015b60405180910390fd5b60608201511580620000d157506080820151155b156200010a5760405163dd23c3ad60e01b8152602060048201526006602482015265626f756e647360d01b6044820152606401620000b4565b8151600280546001600160a01b03199081166001600160a01b039384161790915560208401516003805483168285161790556040808601516004556060860151600555608086015160065560a086015160075560c086015160085560e0860151600955610100860151600a55610120860151600b55610140860151600c55600d80549093169385169390931790915590513090620001a89062000206565b6001600160a01b03928316815291166020820152604001604051809103906000f080158015620001dc573d6000803e3d6000fd5b50601380546001600160a01b0319166001600160a01b039290921691909117905550620003379050565b610a8480620021df83390190565b60405161016081016001600160401b03811182821017156200024657634e487b7160e01b600052604160045260246000fd5b60405290565b80516001600160a01b03811681146200026457600080fd5b919050565b6000808284036101808112156200027f57600080fd5b610160808212156200029057600080fd5b6200029a62000214565b9150620002a7856200024c565b8252620002b7602086016200024c565b602083015260408501516040830152606085015160608301526080850151608083015260a085015160a083015260c085015160c083015260e085015160e08301526101008086015181840152506101208086015181840152506101408086015181840152508193506200032c8186016200024c565b925050509250929050565b611e9880620003476000396000f3fe6080604052600436106200015b5760003560e01c80636587eda111620000c5578063a230c5241162000078578063a230c5241462000448578063a6d23e10146200047c578063a7f32125146200049e578063bab2f55214620004d8578063bb15bac114620004ff578063f2fde38b146200051757600080fd5b80636587eda114620003965780638456cb5914620003b857806386a2cc2714620003d05780638da5cb5b14620003f55780639ac79e0a14620004175780639eab5253146200042157600080fd5b80633f4ba83a116200011e5780633f4ba83a146200028d5780634f38ccd014620002a55780635c975abb14620002f85780635daf08ca146200032c57806361203265146200035157806362c5424a146200037157600080fd5b80630457dad21462000160578063055ad42e146200021057806326a3cc9b1462000237578063360a2bcb146200025e5780633a6a4d2e1462000275575b600080fd5b3480156200016d57600080fd5b50600254600354600454600554600654600754600854600954600a54600b54600c54620001ad9a6001600160a01b039081169a169897969594939291908b565b604080516001600160a01b039c8d1681529b909a1660208c0152988a01979097526060890195909552608088019390935260a087019190915260c086015260e0850152610100840152610120830152610140820152610160015b60405180910390f35b3480156200021d57600080fd5b50620002286200053c565b60405162000207919062001446565b3480156200024457600080fd5b506200025c620002563660046200146f565b620005cd565b005b6200025c6200026f3660046200146f565b620007be565b3480156200028257600080fd5b506200025c62000974565b3480156200029a57600080fd5b506200025c62000c1b565b348015620002b257600080fd5b50620002df620002c43660046200146f565b6011602052600090815260409020546001600160a01b031681565b6040516001600160a01b03909116815260200162000207565b3480156200030557600080fd5b506000546200031b90600160a01b900460ff1681565b604051901515815260200162000207565b3480156200033957600080fd5b50620002df6200034b3660046200146f565b62000c7d565b3480156200035e57600080fd5b506002546001600160a01b0316620002df565b3480156200037e57600080fd5b506200025c6200039036600462001489565b62000ca8565b348015620003a357600080fd5b50600d54620002df906001600160a01b031681565b348015620003c557600080fd5b506200025c62000d7c565b348015620003dd57600080fd5b506200025c620003ef3660046200146f565b62000de4565b3480156200040257600080fd5b50600054620002df906001600160a01b031681565b6200025c62000eb0565b3480156200042e57600080fd5b506200043962001124565b604051620002079190620014ac565b3480156200045557600080fd5b506200031b6200046736600462001514565b600f6020526000908152604090205460ff1681565b3480156200048957600080fd5b50601354620002df906001600160a01b031681565b348015620004ab57600080fd5b50620002df620004bd3660046200146f565b6012602052600090815260409020546001600160a01b031681565b348015620004e557600080fd5b50620004f060105481565b60405190815260200162000207565b3480156200050c57600080fd5b506200025c62001188565b3480156200052457600080fd5b506200025c6200053636600462001514565b62001356565b600754600090421015620005505750600090565b600c54601054600091620005649162001551565b60075462000573919062001571565b600a5490915060009062000588908362001571565b600b549091506000906200059d908362001571565b9050814211620005b1576001935050505090565b804211620005c3576002935050505090565b6003935050505090565b6002546001600160a01b03163314620005f8576040516282b42960e81b815260040160405180910390fd5b600054600160a01b900460ff16156200062457604051634065aaf160e11b815260040160405180910390fd5b6010548114620006685760405163dd23c3ad60e01b81526020600482015260096024820152680c6f2c6d8ca40d2c8f60bb1b60448201526064015b60405180910390fd5b600c5462000677908262001551565b60075462000686919062001571565b421015620006a75760405163085de62560e01b815260040160405180910390fd5b6000818152601260205260409020546001600160a01b031615620007005760405163dd23c3ad60e01b815260206004820152600e60248201526d185b1c9958591e481bdc195b995960921b60448201526064016200065f565b6000600260080154600260090154306040516200071d9062001422565b92835260208301919091526001600160a01b03166040820152606001604051809103906000f08015801562000756573d6000803e3d6000fd5b5060008381526012602090815260409182902080546001600160a01b0319166001600160a01b038516908117909155915191825291925083917fc558e806650b2787a3ef95b49c8046c4deb0a8ce50a0285f6e55963b92200ba8910160405180910390a25050565b336000908152600f602052604090205460ff16620007ee576040516282b42960e81b815260040160405180910390fd5b600054600160a01b900460ff16156200081a57604051634065aaf160e11b815260040160405180910390fd5b601054601354604051638c59091760e01b815260048101839052602481018490526001600160a01b0390911690638c5909179034906044016000604051808303818588803b1580156200086c57600080fd5b505af115801562000881573d6000803e3d6000fd5b50600093506003925062000893915050565b6200089d6200053c565b6003811115620008b157620008b162001430565b600d5491141591506001600160a01b0316156200093757600d5460405163f7e9fd9960e01b81523360048201526024810185905282151560448201526001600160a01b039091169063f7e9fd9990606401600060405180830381600087803b1580156200091d57600080fd5b505af115801562000932573d6000803e3d6000fd5b505050505b604051838152829033907f5dc1fe5ab986a852c4eda8e8bb94247d13307065c593fb83f1a09be273679382906020015b60405180910390a3505050565b6002546001600160a01b031633146200099f576040516282b42960e81b815260040160405180910390fd5b600154600103620009c2576040516282b42960e81b815260040160405180910390fd5b600180556010546000818152601160205260409020546001600160a01b03168062000a1d5760405163dd23c3ad60e01b81526020600482015260096024820152683737903bb4b73732b960b91b60448201526064016200065f565b601354604051635e7ea03360e01b8152600481018490526000916001600160a01b031690635e7ea03390602401602060405180830381865afa15801562000a68573d6000803e3d6000fd5b505050506040513d601f19601f8201168201806040525081019062000a8e919062001587565b905060006127106002600601548362000aa8919062001551565b62000ab49190620015a1565b9050600062000ac48284620015c4565b60135460405163ae2f5d9360e01b8152600481018890526001600160a01b0387811660248301526044820184905292935091169063ae2f5d9390606401600060405180830381600087803b15801562000b1c57600080fd5b505af115801562000b31573d6000803e3d6000fd5b50505050600082111562000bb15760135460025460405163ae2f5d9360e01b8152600481018890526001600160a01b0391821660248201526044810185905291169063ae2f5d9390606401600060405180830381600087803b15801562000b9757600080fd5b505af115801562000bac573d6000803e3d6000fd5b505050505b604080516001600160a01b03861681526020810183905286917f9f5926601e7fc353505f05fae61282ae5d67b716f95656849456e6aa7bbbbb5f910160405180910390a260016010600082825462000c0a919062001571565b909155505060006001555050505050565b6000546001600160a01b0316331462000c46576040516282b42960e81b815260040160405180910390fd5b6000805460ff60a01b1916815560405133917f5db9ee0a495bf2e6ff9c91a7834c1ba4fdd244a5e8aa4e537bd38aeae4b073aa91a2565b600e818154811062000c8e57600080fd5b6000918252602090912001546001600160a01b0316905081565b336000908152600f602052604090205460ff1662000cd8576040516282b42960e81b815260040160405180910390fd5b6010546000908152601260205260409020546001600160a01b03168062000d145760405163dd23c3ad60e01b81526004016200065f90620015da565b604051633162a12560e11b815260048101849052602481018390526001600160a01b038216906362c5424a90604401600060405180830381600087803b15801562000d5e57600080fd5b505af115801562000d73573d6000803e3d6000fd5b50505050505050565b6000546001600160a01b0316331462000da7576040516282b42960e81b815260040160405180910390fd5b6000805460ff60a01b1916600160a01b17815560405133917f62e78cea01bee320cd4e420270b5ea74000d11b0c9f74754ebdbfc544b05a25891a2565b336000908152600f602052604090205460ff1662000e14576040516282b42960e81b815260040160405180910390fd5b6010546000908152601260205260409020546001600160a01b03168062000e505760405163dd23c3ad60e01b81526004016200065f90620015da565b6040516386a2cc2760e01b8152600481018390526001600160a01b038216906386a2cc2790602401600060405180830381600087803b15801562000e9357600080fd5b505af115801562000ea8573d6000803e3d6000fd5b505050505050565b600054600160a01b900460ff161562000edc57604051634065aaf160e11b815260040160405180910390fd5b336000908152600f602052604090205460ff161562000f0d57604051621d934160e11b815260040160405180910390fd5b600554600e541062000f3257604051638e8012df60e01b815260040160405180910390fd5b60095415620010a2576003546001600160a01b031662000f9757600954341462000f915760405163dd23c3ad60e01b815260206004820152600e60248201526d6465706f736974206e617469766560901b60448201526064016200065f565b620010a2565b341562000fd85760405163dd23c3ad60e01b815260206004820152600d60248201526c06465706f73697420657263323609c1b60448201526064016200065f565b6003546009546040516323b872dd60e01b815233600482015230602482015260448101919091526000916001600160a01b0316906323b872dd906064016020604051808303816000875af115801562001035573d6000803e3d6000fd5b505050506040513d601f19601f820116820180604052508101906200105b9190620015fc565b905080620010a05760405163dd23c3ad60e01b815260206004820152601060248201526f3232b837b9b4ba103a3930b739b332b960811b60448201526064016200065f565b505b336000818152600f6020526040808220805460ff19166001908117909155600e8054918201815583527fbb7b4a454dc3493923482f07822329ed19e8244eff582cc204f8554c3620c3fd0180546001600160a01b03191684179055517f7073afa60b48e833a1a66ebb442bc8e0d19e9f3cc05f34bdcd1da22c8d87f2759190a2565b6060600e8054806020026020016040519081016040528092919081815260200182805480156200117e57602002820191906000526020600020905b81546001600160a01b031681526001909101906020018083116200115f575b5050505050905090565b6002546001600160a01b03163314620011b3576040516282b42960e81b815260040160405180910390fd5b6010546000908152601260205260409020546001600160a01b031680620011ef5760405163dd23c3ad60e01b81526004016200065f90620015da565b600080826001600160a01b0316634bb278f36040518163ffffffff1660e01b815260040160408051808303816000875af115801562001232573d6000803e3d6000fd5b505050506040513d601f19601f8201168201806040525081019062001258919062001620565b601054600090815260116020526040902080546001600160a01b0319166001600160a01b0384811691909117909155600d549294509092501615801590620012a857506001600160a01b03821615155b156200131757600d54604051630a0895f560e21b81526001600160a01b038481166004830152602482018490529091169063282257d490604401600060405180830381600087803b158015620012fd57600080fd5b505af115801562001312573d6000803e3d6000fd5b505050505b816001600160a01b03166010547ffee5b04775e1cd2311ed22cd00f5d2403aff38ff6f71d6d393f51854ed6bc986836040516200096791815260200190565b6000546001600160a01b0316331462001381576040516282b42960e81b815260040160405180910390fd5b6001600160a01b038116620013c75760405163dd23c3ad60e01b815260206004820152600a6024820152693d32b9379037bbb732b960b11b60448201526064016200065f565b600080546040516001600160a01b03808516939216917f8be0079c531659141344cd1fd0a4f28419497f9722a3daafe3b4186f6b6457e091a3600080546001600160a01b0319166001600160a01b0392909216919091179055565b610811806200165283390190565b634e487b7160e01b600052602160045260246000fd5b60208101600483106200146957634e487b7160e01b600052602160045260246000fd5b91905290565b6000602082840312156200148257600080fd5b5035919050565b600080604083850312156200149d57600080fd5b50508035926020909101359150565b6020808252825182820181905260009190848201906040850190845b81811015620014ef5783516001600160a01b031683529284019291840191600101620014c8565b50909695505050505050565b6001600160a01b03811681146200151157600080fd5b50565b6000602082840312156200152757600080fd5b81356200153481620014fb565b9392505050565b634e487b7160e01b600052601160045260246000fd5b80820281158282048414176200156b576200156b6200153b565b92915050565b808201808211156200156b576200156b6200153b565b6000602082840312156200159a57600080fd5b5051919050565b600082620015bf57634e487b7160e01b600052601260045260246000fd5b500490565b818103818111156200156b576200156b6200153b565b6020808252600890820152676e6f206379636c6560c01b604082015260600190565b6000602082840312156200160f57600080fd5b815180151581146200153457600080fd5b600080604083850312156200163457600080fd5b82516200164181620014fb565b602093909301519294929350505056fe60a060405234801561001057600080fd5b5060405161081138038061081183398101604081905261002f916100a3565b82158061003a575081155b156100725760405163dd23c3ad60e01b8152602060048201526003602482015262323ab960e91b604482015260640160405180910390fd5b61007c83426100e9565b600181905561008c9083906100e9565b6002556001600160a01b0316608052506101109050565b6000806000606084860312156100b857600080fd5b83516020850151604086015191945092506001600160a01b03811681146100de57600080fd5b809150509250925092565b8082018082111561010a57634e487b7160e01b600052601160045260246000fd5b92915050565b6080516106e06101316000396000818160b3015261020201526106e06000f3fe608060405234801561001057600080fd5b50600436106100a95760003560e01c806386a2cc271161007157806386a2cc271461019457806398f22c12146101a7578063a6e66477146101b0578063b1c9fe6e146101b9578063cff29dfd146101ce578063dfbf53ae146101e157600080fd5b806329e7ef2d146100ae5780633eee4e27146100f25780634bb278f31461010957806362c5424a1461013057806362ea82db14610145575b600080fd5b6100d57f000000000000000000000000000000000000000000000000000000000000000081565b6040516001600160a01b0390911681526020015b60405180910390f35b6100fb60015481565b6040519081526020016100e9565b6101116101f4565b604080516001600160a01b0390931683526020830191909152016100e9565b61014361013e366004610601565b6102f5565b005b610177610153366004610623565b60036020526000908152604090208054600182015460029092015490919060ff1683565b6040805193845260208401929092521515908201526060016100e9565b6101436101a2366004610653565b6104b2565b6100fb60065481565b6100fb60025481565b6101c16105b1565b6040516100e99190610682565b6100d56101dc366004610653565b6105d7565b6005546100d5906001600160a01b031681565b600080336001600160a01b037f000000000000000000000000000000000000000000000000000000000000000016146102615760405163dd23c3ad60e01b815260206004820152600960248201526806e6f742067726f75760bc1b60448201526064015b60405180910390fd5b600261026b6105b1565b600281111561027c5761027c61066c565b1461029a5760405163085de62560e01b815260040160405180910390fd5b6005546006546040519081526001600160a01b03909116907f75060f9e79552df167b73353fee6237a75bb5ba8ea022f77224e32f152138bcb9060200160405180910390a250506005546006546001600160a01b0390911691565b60016102ff6105b1565b60028111156103105761031061066c565b1461032e57604051630dcfc89b60e21b815260040160405180910390fd5b33600090815260036020526040902080546103785760405163dd23c3ad60e01b81526020600482015260096024820152681b9bc818dbdb5b5a5d60ba1b6044820152606401610258565b600281015460ff16156103c15760405163dd23c3ad60e01b815260206004820152601060248201526f185b1c9958591e481c995d99585b195960821b6044820152606401610258565b80546040805160208101869052908101849052606001604051602081830303815290604052805190602001201461042b5760405163dd23c3ad60e01b815260206004820152600d60248201526c0d0c2e6d040dad2e6dac2e8c6d609b1b6044820152606401610258565b60028101805460ff1916600190811790915581018390556005546001600160a01b0316158061045b575060065483105b1561047857600580546001600160a01b0319163317905560068390555b60405183815233907f9891bd98143d5a2c5f29be9a7ef8e5d7b723746fb3b75220234af7aa6caeecfe9060200160405180910390a2505050565b60006104bc6105b1565b60028111156104cd576104cd61066c565b146104eb57604051630dcfc89b60e21b815260040160405180910390fd5b33600090815260036020526040902080541561053e5760405163dd23c3ad60e01b8152602060048201526011602482015270185b1c9958591e4818dbdb5b5a5d1d1959607a1b6044820152606401610258565b8181556004805460018101825560009182527f8a35acfbc15ff81a39ae7d344fd709f28e8600b4aa8c65c6b64bfe7fe36bd19b0180546001600160a01b0319163390811790915560405190917f1d6553f42a4a0f09f1d41c128c54b2c8503afd4c1a765b25c42e3d054ce862ee91a25050565b600060015442116105c25750600090565b60025442116105d15750600190565b50600290565b600481815481106105e757600080fd5b6000918252602090912001546001600160a01b0316905081565b6000806040838503121561061457600080fd5b50508035926020909101359150565b60006020828403121561063557600080fd5b81356001600160a01b038116811461064c57600080fd5b9392505050565b60006020828403121561066557600080fd5b5035919050565b634e487b7160e01b600052602160045260246000fd5b60208101600383106106a457634e487b7160e01b600052602160045260246000fd5b9190529056fea26469706673582212209ea5a32ca35a509c75a161ee3abfaad84e380f0234467a9bdaba3a8eb462e8d564736f6c63430008180033a2646970667358221220c43931c436e1c93a3b70b4844ba7add4d121cb3ec175ea68ecc20321d30072c864736f6c6343000818003360c060405234801561001057600080fd5b50604051610a84380380610a8483398101604081905261002f91610062565b6001600160a01b0391821660a05216608052610095565b80516001600160a01b038116811461005d57600080fd5b919050565b6000806040838503121561007557600080fd5b61007e83610046565b915061008c60208401610046565b90509250929050565b60805160a0516109936100f1600039600081816101ab015281816102600152818161032f015281816103f1015281816104c90152818161067e015261074d0152600081816092015281816101d801526105fb01526109936000f3fe6080604052600436106100745760003560e01c80636ea056a91161004e5780636ea056a9146101445780638c59091714610166578063ae2f5d9314610179578063e5a6b10f1461019957600080fd5b806329e7ef2d1461008057806350d7e93d146100d15780635e7ea0331461011757600080fd5b3661007b57005b600080fd5b34801561008c57600080fd5b506100b47f000000000000000000000000000000000000000000000000000000000000000081565b6040516001600160a01b0390911681526020015b60405180910390f35b3480156100dd57600080fd5b506101096100ec366004610847565b600160209081526000928352604080842090915290825290205481565b6040519081526020016100c8565b34801561012357600080fd5b50610109610132366004610873565b60026020526000908152604090205481565b34801561015057600080fd5b5061016461015f36600461088c565b6101cd565b005b6101646101743660046108b6565b6103c8565b34801561018557600080fd5b506101646101943660046108d8565b6105f0565b3480156101a557600080fd5b506100b47f000000000000000000000000000000000000000000000000000000000000000081565b336001600160a01b037f000000000000000000000000000000000000000000000000000000000000000016146102375760405163dd23c3ad60e01b815260206004820152600960248201526806e6f742067726f75760bc1b60448201526064015b60405180910390fd5b600054600103610259576040516282b42960e81b815260040160405180910390fd5b60016000557f00000000000000000000000000000000000000000000000000000000000000006001600160a01b0316610306576000826001600160a01b03168260405160006040518083038185875af1925050503d80600081146102d9576040519150601f19603f3d011682016040523d82523d6000602084013e6102de565b606091505b5050905080610300576040516312171d8360e31b815260040160405180910390fd5b506103c0565b60405163a9059cbb60e01b81526001600160a01b038381166004830152602482018390526000917f00000000000000000000000000000000000000000000000000000000000000009091169063a9059cbb906044016020604051808303816000875af115801561037a573d6000803e3d6000fd5b505050506040513d601f19601f8201168201806040525081019061039e919061090d565b9050806103be576040516312171d8360e31b815260040160405180910390fd5b505b505060008055565b6000546001036103ea576040516282b42960e81b815260040160405180910390fd5b60016000557f00000000000000000000000000000000000000000000000000000000000000006001600160a01b03166104625780341461045d5760405163dd23c3ad60e01b815260206004820152600d60248201526c1b985d1a5d9948185b5bdd5b9d609a1b604482015260640161022e565b610560565b34156104a45760405163dd23c3ad60e01b815260206004820152601060248201526f6572633230206e6f74206e617469766560801b604482015260640161022e565b6040516323b872dd60e01b8152336004820152306024820152604481018290526000907f00000000000000000000000000000000000000000000000000000000000000006001600160a01b0316906323b872dd906064016020604051808303816000875af115801561051a573d6000803e3d6000fd5b505050506040513d601f19601f8201168201806040525081019061053e919061090d565b90508061055e576040516312171d8360e31b815260040160405180910390fd5b505b600082815260016020908152604080832033845290915281208054839290610589908490610936565b9091555050600082815260026020526040812080548392906105ac908490610936565b9091555050604051818152829033907f5f7675b09617d2c9fa4fd13058ee5877a9538f626b0308816736e83748a450409060200160405180910390a3505060008055565b336001600160a01b037f000000000000000000000000000000000000000000000000000000000000000016146106555760405163dd23c3ad60e01b815260206004820152600960248201526806e6f742067726f75760bc1b604482015260640161022e565b600054600103610677576040516282b42960e81b815260040160405180910390fd5b60016000557f00000000000000000000000000000000000000000000000000000000000000006001600160a01b0316610724576000826001600160a01b03168260405160006040518083038185875af1925050503d80600081146106f7576040519150601f19603f3d011682016040523d82523d6000602084013e6106fc565b606091505b505090508061071e576040516312171d8360e31b815260040160405180910390fd5b506107de565b60405163a9059cbb60e01b81526001600160a01b038381166004830152602482018390526000917f00000000000000000000000000000000000000000000000000000000000000009091169063a9059cbb906044016020604051808303816000875af1158015610798573d6000803e3d6000fd5b505050506040513d601f19601f820116820180604052508101906107bc919061090d565b9050806107dc576040516312171d8360e31b815260040160405180910390fd5b505b82826001600160a01b03167f634235fcf5af0adbca1a405ec65f6f6c08f55e1f379c2c45cd10f23cb29e0e318360405161081a91815260200190565b60405180910390a350506000805550565b80356001600160a01b038116811461084257600080fd5b919050565b6000806040838503121561085a57600080fd5b8235915061086a6020840161082b565b90509250929050565b60006020828403121561088557600080fd5b5035919050565b6000806040838503121561089f57600080fd5b6108a88361082b565b946020939093013593505050565b600080604083850312156108c957600080fd5b50508035926020909101359150565b6000806000606084860312156108ed57600080fd5b833592506108fd6020850161082b565b9150604084013590509250925092565b60006020828403121561091f57600080fd5b8151801515811461092f57600080fd5b9392505050565b8082018082111561095757634e487b7160e01b600052601160045260246000fd5b9291505056fea264697066735822122090fe3cc9c62444066e49f780b324e06c0bc816405f8514464295d9ca2432ad7f64736f6c63430008180033",
  "linkReferences": {},
  "deployedLinkReferences": {}
}