{
  "_format": "hh-sol-artifact-1",
  "contractName": "BiddingSystem",
  "sourceName": "contracts/BiddingSystem.sol",
  "abi": [
    {
      "inputs": [
        {
          "internalType": "uint256",
          "name": "commitDuration",
          "type": "uint256"
        },
        {
          "internalType": "uint256",
          "name": "revealDuration",
          "type": "uint256"
        },
        {
          "internalType": "address",
          "name": "groupAddress",
          "type": "address"
        }
      ],
      "stateMutability": "nonpayable",
      "type": "constructor"
    },
    {
      "inputs": [],
      "name": "IncorrectPhase",
      "type": "error"
    },
    {
      "inputs": [
        {
          "internalType": "string",
          "name": "reason",
          "type": "string"
        }
      ],
      "name": "InvalidParameters",
      "type": "error"
    },
    {
      "inputs": [],
      "name": "TooEarly",
      "type": "error"
    },
    {
      "anonymous": false,
      "inputs": [
        {
          "indexed": true,
          "internalType": "address",
          "name": "bidder",
          "type": "address"
        }
      ],
      "name": "BidCommitted",
      "type": "event"
    },
    {
      "anonymous": false,
      "inputs": [
        {
          "indexed": true,
          "internalType": "address",
          "name": "bidder",
          "type": "address"
        },
        {
          "indexed": false,
          "internalType": "uint256",
          "name": "amount",
          "type": "uint256"
        }
      ],
      "name": "BidRevealed",
      "type": "event"
    },
    {
      "anonymous": false,
      "inputs": [
        {
          "indexed": true,
          "internalType": "address",
          "name": "winner",
          "type": "address"
        },
        {
          "indexed": false,
          "internalType": "uint256",
          "name": "amount",
          "type": "uint256"
        }
      ],
      "name": "WinnerSelected",
      "type": "event"
    },
    {
      "inputs": [
        {
          "internalType": "uint256",
          "name": "",
          "type": "uint256"
        }
      ],
      "name": "bidders",
      "outputs": [
        {
          "internalType": "address",
          "name": "",
          "type": "address"
        }
      ],
      "stateMutability": "view",
      "type": "function"
    },
    {
      "inputs": [
        {
          "internalType": "address",
          "name": "",
          "type": "address"
        }
      ],
      "name": "bids",
      "outputs": [
        {
          "internalType": "bytes32",
          "name": "commitHash",
          "type": "bytes32"
        },
        {
          "internalType": "uint256",
          "name": "revealedAmount",
          "type": "uint256"
        },
        {
          "internalType": "bool",
          "name": "revealed",
          "type": "bool"
        }
      ],
      "stateMutability": "view",
      "type": "function"
    },
    {
      "inputs": [
        {
          "internalType": "bytes32",
          "name": "commitHash",
          "type": "bytes32"
        }
      ],
      "name": "commitBid",
      "outputs": [],
      "stateMutability": "nonpayable",
      "type": "function"
    },
    {
      "inputs": [],
      "name": "commitEnd",
      "outputs": [
        {
          "internalType": "uint256",
          "name": "",
          "type": "uint256"
        }
      ],
      "stateMutability": "view",
      "type": "function"
    },
    {
      "inputs": [],
      "name": "finalize",
      "outputs": [
        {
          "internalType": "address",
          "name": "",
          "type": "address"
        },
        {
          "internalType": "uint256",
          "name": "",
          "type": "uint256"
        }
      ],
      "stateMutability": "nonpayable",
      "type": "function"
    },
    {
      "inputs": [],
      "name": "group",
      "outputs": [
        {
          "internalType": "address",
          "name": "",
          "type": "address"
        }
      ],
      "stateMutability": "view",
      "type": "function"
    },
    {
      "inputs": [],
      "name": "phase",
      "outputs": [
        {
          "internalType": "enum BiddingSystem.Phase",
          "name": "",
          "type": "uint8"
        }
      ],
      "stateMutability": "view",
      "type": "function"
    },
    {
      "inputs": [
        {
          "internalType": "uint256",
          "name": "amount",
          "type": "uint256"
        },
        {
          "internalType": "bytes32",
          "name": "salt",
          "type": "bytes32"
        }
      ],
      "name": "revealBid",
      "outputs": [],
      "stateMutability": "nonpayable",
      "type": "function"
    },
    {
      "inputs": [],
      "name": "revealEnd",
      "outputs": [
        {
          "internalType": "uint256",
          "name": "",
          "type": "uint256"
        }
      ],
      "stateMutability": "view",
      "type": "function"
    },
    {
      "inputs": [],
      "name": "winner",
      "outputs": [
        {
          "internalType": "address",
          "name": "",
          "type": "address"
        }
      ],
      "stateMutability": "view",
      "type": "function"
    },
    {
      "inputs": [],
      "name": "winningAmount",
      "outputs": [
        {
          "internalType": "uint256",
          "name": "",
          "type": "uint256"
        }
      ],
      "stateMutability": "view",
      "type": "function"
    }
  ],
  "bytecode": "0x60a060405234801561001057600080fd5b5060405161081138038061081183398101604081905261002f916100a3565b82158061003a575081155b156100725760405163dd23c3ad60e01b8152602060048201526003602482015262323ab960e91b604482015260640160405180910390fd5b61007c83426100e9565b600181905561008c9083906100e9565b6002556001600160a01b0316608052506101109050565b6000806000606084860312156100b857600080fd5b83516020850151604086015191945092506001600160a01b03811681146100de57600080fd5b809150509250925092565b8082018082111561010a57634e487b7160e01b600052601160045260246000fd5b92915050565b6080516106e06101316000396000818160b3015261020201526106e06000f3fe608060405234801561001057600080fd5b50600436106100a95760003560e01c806386a2cc271161007157806386a2cc271461019457806398f22c12146101a7578063a6e66477146101b0578063b1c9fe6e146101b9578063cff29dfd146101ce578063dfbf53ae146101e157600080fd5b806329e7ef2d146100ae5780633eee4e27146100f25780634bb278f31461010957806362c5424a1461013057806362ea82db14610145575b600080fd5b6100d57f000000000000000000000000000000000000000000000000000000000000000081565b6040516001600160a01b0390911681526020015b60405180910390f35b6100fb60015481565b6040519081526020016100e9565b6101116101f4565b604080516001600160a01b0390931683526020830191909152016100e9565b61014361013e366004610601565b6102f5565b005b610177610153366004610623565b60036020526000908152604090208054600182015460029092015490919060ff1683565b6040805193845260208401929092521515908201526060016100e9565b6101436101a2366004610653565b6104b2565b6100fb60065481565b6100fb60025481565b6101c16105b1565b6040516100e99190610682565b6100d56101dc366004610653565b6105d7565b6005546100d5906001600160a01b031681565b600080336001600160a01b037f000000000000000000000000000000000000000000000000000000000000000016146102615760405163dd23c3ad60e01b815260206004820152600960248201526806e6f742067726f75760bc1b60448201526064015b60405180910390fd5b600261026b6105b1565b600281111561027c5761027c61066c565b1461029a5760405163085de62560e01b815260040160405180910390fd5b6005546006546040519081526001600160a01b03909116907f75060f9e79552df167b73353fee6237a75bb5ba8ea022f77224e32f152138bcb9060200160405180910390a250506005546006546001600160a01b0390911691565b60016102ff6105b1565b60028111156103105761031061066c565b1461032e57604051630dcfc89b60e21b815260040160405180910390fd5b33600090815260036020526040902080546103785760405163dd23c3ad60e01b81526020600482015260096024820152681b9bc818dbdb5b5a5d60ba1b6044820152606401610258565b600281015460ff16156103c15760405163dd23c3ad60e01b815260206004820152601060248201526f185b1c9958591e481c995d99585b195960821b6044820152606401610258565b80546040805160208101869052908101849052606001604051602081830303815290604052805190602001201461042b5760405163dd23c3ad60e01b815260206004820152600d60248201526c0d0c2e6d040dad2e6dac2e8c6d609b1b6044820152606401610258565b60028101805460ff1916600190811790915581018390556005546001600160a01b0316158061045b575060065483105b1561047857600580546001600160a01b0319163317905560068390555b60405183815233907f9891bd98143d5a2c5f29be9a7ef8e5d7b723746fb3b75220234af7aa6caeecfe9060200160405180910390a2505050565b60006104bc6105b1565b60028111156104cd576104cd61066c565b146104eb57604051630dcfc89b60e21b815260040160405180910390fd5b33600090815260036020526040902080541561053e5760405163dd23c3ad60e01b8152602060048201526011602482015270185b1c9958591e4818dbdb5b5a5d1d1959607a1b6044820152606401610258565b8181556004805460018101825560009182527f8a35acfbc15ff81a39ae7d344fd709f28e8600b4aa8c65c6b64bfe7fe36bd19b0180546001600160a01b0319163390811790915560405190917f1d6553f42a4a0f09f1d41c128c54b2c8503afd4c1a765b25c42e3d054ce862ee91a25050565b600060015442116105c25750600090565b60025442116105d15750600190565b50600290565b600481815481106105e757600080fd5b6000918252602090912001546001600160a01b0316905081565b6000806040838503121561061457600080fd5b50508035926020909101359150565b60006020828403121561063557600080fd5b81356001600160a01b038116811461064c57600080fd5b9392505050565b60006020828403121561066557600080fd5b5035919050565b634e487b7160e01b600052602160045260246000fd5b60208101600383106106a457634e487b7160e01b600052602160045260246000fd5b9190529056fea26469706673582212209ea5a32ca35a509c75a161ee3abfaad84e380f0234467a9bdaba3a8eb462e8d564736f6c63430008180033",
  "linkReferences": {},
  "deployedLinkReferences": {}
}