{"contracts/ChitGroup.sol":{"ChitGroup":{"abi":[{"inputs":[{"components":[{"internalType":"address","name":"organizer","type":"address"},{"internalType":"address","name":"currency","type":"address"},{"internalType":"uint256","name":"contributionAmount","type":"uint256"},{"internalType":"uint256","name":"membersMax","type":"uint256"},{"internalType":"uint256","name":"durationPeriods","type":"uint256"},{"internalType":"uint256","name":"startTime","type":"uint256"},{"internalType":"uint256","name":"organizerFeeBps","type":"uint256"},{"internalType":"uint256","name":"securityDeposit","type":"uint256"},{"internalType":"uint256","name":"biddingCommitDuration","type":"uint256"},{"internalType":"uint256","name":"biddingRevealDuration","type":"uint256"},{"internalType":"uint256","name":"periodDuration","type":"uint256"}],"internalType":"struct ChitGroup.Config","name":"c","type":"tuple"},{"internalType":"address","name":"reputationSystem_","type":"address"}],"stateMutability":"nonpayable","type":"constructor"},{"inputs":[],"name":"AlreadyJoined","type":"error"},{"inputs":[],"name":"GroupFull","type":"error"},{"inputs":[{"internalType":"string","name":"reason","type":"string"}],"name":"InvalidParameters","type":"error"},{"inputs":[],"name":"NotActive","type":"error"},{"inputs":[],"name":"TooEarly","type":"error"},{"inputs":[],"name":"Unauthorized","type":"error"},{"anonymous":false,"inputs":[{"indexed":true,"internalType":"address","name":"member","type":"address"},{"indexed":true,"internalType":"uint256","name":"cycle","type":"uint256"},{"indexed":false,"internalType":"uint256","name":"amount","type":"uint256"}],"name":"ContributionMade","type":"event"},{"anonymous":false,"inputs":[{"indexed":true,"internalType":"uint256","name":"cycle","type":"uint256"},{"indexed":false,"internalType":"address","name":"bidding","type":"address"}],"name":"CycleOpened","type":"event"},{"anonymous":false,"inputs":[{"indexed":true,"internalType":"uint256","name":"cycle","type":"uint256"},{"indexed":false,"internalType":"address","name":"winner","type":"address"},{"indexed":false,"internalType":"uint256","name":"amountToWinner","type":"uint256"}],"name":"FundsDistributed","type":"event"},{"anonymous":false,"inputs":[{"indexed":true,"internalType":"address","name":"member","type":"address"}],"name":"Joined","type":"event"},{"anonymous":false,"inputs":[{"indexed":true,"internalType":"address","name":"previousOwner","type":"address"},{"indexed":true,"internalType":"address","name":"newOwner","type":"address"}],"name":"OwnershipTransferred","type":"event"},{"anonymous":false,"inputs":[{"indexed":true,"internalType":"address","name":"by","type":"address"}],"name":"Paused","type":"event"},{"anonymous":false,"inputs":[{"indexed":true,"internalType":"address","name":"by","type":"address"}],"name":"Unpaused","type":"event"},{"anonymous":false,"inputs":[{"indexed":true,"internalType":"uint256","name":"cycle","type":"uint256"},{"indexed":true,"internalType":"address","name":"winner","type":"address"},{"indexed":false,"internalType":"uint256","name":"winningAmount","type":"uint256"}],"name":"WinnerSelected","type":"event"},{"inputs":[],"name":"cfg","outputs":[{"internalType":"address","name":"organizer","type":"address"},{"internalType":"address","name":"currency","type":"address"},{"internalType":"uint256","name":"contributionAmount","type":"uint256"},{"internalType":"uint256","name":"membersMax","type":"uint256"},{"internalType":"uint256","name":"durationPeriods","type":"uint256"},{"internalType":"uint256","name":"startTime","type":"uint256"},{"internalType":"uint256","name":"organizerFeeBps","type":"uint256"},{"internalType":"uint256","name":"securityDeposit","type":"uint256"},{"internalType":"uint256","name":"biddingCommitDuration","type":"uint256"},{"internalType":"uint256","name":"biddingRevealDuration","type":"uint256"},{"internalType":"uint256","name":"periodDuration","type":"uint256"}],"stateMutability":"view","type":"function"},{"inputs":[{"internalType":"bytes32","name":"commitHash","type":"bytes32"}],"name":"commitBid","outputs":[],"stateMutability":"nonpayable","type":"function"},{"inputs":[],"name":"currentCycle","outputs":[{"internalType":"uint256","name":"","type":"uint256"}],"stateMutability":"view","type":"function"},{"inputs":[],"name":"currentPhase","outputs":[{"internalType":"enum ChitGroup.CycleStatus","name":"","type":"uint8"}],"stateMutability":"view","type":"function"},{"inputs":[{"internalType":"uint256","name":"","type":"uint256"}],"name":"cycleBidding","outputs":[{"internalType":"contract BiddingSystem","name":"","type":"address"}],"stateMutability":"view","type":"function"},{"inputs":[{"internalType":"uint256","name":"","type":"uint256"}],"name":"cycleWinner","outputs":[{"internalType":"address","name":"","type":"address"}],"stateMutability":"view","type":"function"},{"inputs":[],"name":"distributeFunds","outputs":[],"stateMutability":"nonpayable","type":"function"},{"inputs":[],"name":"finalizeBidding","outputs":[],"stateMutability":"nonpayable","type":"function"},{"inputs":[],"name":"getMembers","outputs":[{"internalType":"address[]","name":"","type":"address[]"}],"stateMutability":"view","type":"function"},{"inputs":[{"internalType":"address","name":"","type":"address"}],"name":"isMember","outputs":[{"internalType":"bool","name":"","type":"bool"}],"stateMutability":"view","type":"function"},{"inputs":[],"name":"joinGroup","outputs":[],"stateMutability":"payable","type":"function"},{"inputs":[{"internalType":"uint256","name":"amount","type":"uint256"}],"name":"makeContribution","outputs":[],"stateMutability":"payable","type":"function"},{"inputs":[{"internalType":"uint256","name":"","type":"uint256"}],"name":"members","outputs":[{"internalType":"address","name":"","type":"address"}],"stateMutability":"view","type":"function"},{"inputs":[{"internalType":"uint256","name":"cycle","type":"uint256"}],"name":"openCycle","outputs":[],"stateMutability":"nonpayable","type":"function"},{"inputs":[],"name":"organizer","outputs":[{"internalType":"address","name":"","type":"address"}],"stateMutability":"view","type":"function"},{"inputs":[],"name":"owner","outputs":[{"internalType":"address","name":"","type":"address"}],"stateMutability":"view","type":"function"},{"inputs":[],"name":"pause","outputs":[],"stateMutability":"nonpayable","type":"function"},{"inputs":[],"name":"paused","outputs":[{"internalType":"bool","name":"","type":"bool"}],"stateMutability":"view","type":"function"},{"inputs":[],"name":"payments","outputs":[{"internalType":"contract PaymentManager","name":"","type":"address"}],"stateMutability":"view","type":"function"},{"inputs":[],"name":"reputationSystem","outputs":[{"internalType":"address","name":"","type":"address"}],"stateMutability":"view","type":"function"},{"inputs":[{"internalType":"uint256","name":"amount","type":"uint256"},{"internalType":"bytes32","name":"salt","type":"bytes32"}],"name":"revealBid","outputs":[],"stateMutability":"nonpayable","type":"function"},{"inputs":[{"internalType":"address","name":"newOwner","type":"address"}],"name":"transferOwnership","outputs":[],"stateMutability":"nonpayable","type":"function"},{"inputs":[],"name":"unpause","outputs":[],"stateMutability":"nonpayable","type":"function"}],"evm":{"bytecode":{"linkReferences":{},"object":"60806040523480156200001157600080fd5b5060405162002c6338038062002c63833981016040819052620000349162000269565b600080546001600160a01b0319163390811782556040519091907f8be0079c531659141344cd1fd0a4f28419497f9722a3daafe3b4186f6b6457e0908290a381516001600160a01b0316620000bd5760405163dd23c3ad60e01b815260206004820152600960248201526837b933b0b734bd32b960b91b60448201526064015b60405180910390fd5b60608201511580620000d157506080820151155b156200010a5760405163dd23c3ad60e01b8152602060048201526006602482015265626f756e647360d01b6044820152606401620000b4565b8151600280546001600160a01b03199081166001600160a01b039384161790915560208401516003805483168285161790556040808601516004556060860151600555608086015160065560a086015160075560c086015160085560e0860151600955610100860151600a55610120860151600b55610140860151600c55600d80549093169385169390931790915590513090620001a89062000206565b6001600160a01b03928316815291166020820152604001604051809103906000f080158015620001dc573d6000803e3d6000fd5b50601380546001600160a01b0319166001600160a01b039290921691909117905550620003379050565b610a8480620021df83390190565b60405161016081016001600160401b03811182821017156200024657634e487b7160e01b600052604160045260246000fd5b60405290565b80516001600160a01b03811681146200026457600080fd5b919050565b6000808284036101808112156200027f57600080fd5b610160808212156200029057600080fd5b6200029a62000214565b9150620002a7856200024c565b8252620002b7602086016200024c565b602083015260408501516040830152606085015160608301526080850151608083015260a085015160a083015260c085015160c083015260e085015160e08301526101008086015181840152506101208086015181840152506101408086015181840152508193506200032c8186016200024c565b925050509250929050565b611e9880620003476000396000f3fe6080604052600436106200015b5760003560e01c80636587eda111620000c5578063a230c5241162000078578063a230c5241462000448578063a6d23e10146200047c578063a7f32125146200049e578063bab2f55214620004d8578063bb15bac114620004ff578063f2fde38b146200051757600080fd5b80636587eda114620003965780638456cb5914620003b857806386a2cc2714620003d05780638da5cb5b14620003f55780639ac79e0a14620004175780639eab5253146200042157600080fd5b80633f4ba83a116200011e5780633f4ba83a146200028d5780634f38ccd014620002a55780635c975abb14620002f85780635daf08ca146200032c57806361203265146200035157806362c5424a146200037157600080fd5b80630457dad21462000160578063055ad42e146200021057806326a3cc9b1462000237578063360a2bcb146200025e5780633a6a4d2e1462000275575b600080fd5b3480156200016d57600080fd5b50600254600354600454600554600654600754600854600954600a54600b54600c54620001ad9a6001600160a01b039081169a169897969594939291908b565b604080516001600160a01b039c8d1681529b909a1660208c0152988a01979097526060890195909552608088019390935260a087019190915260c086015260e0850152610100840152610120830152610140820152610160015b60405180910390f35b3480156200021d57600080fd5b50620002286200053c565b60405162000207919062001446565b3480156200024457600080fd5b506200025c620002563660046200146f565b620005cd565b005b6200025c6200026f3660046200146f565b620007be565b3480156200028257600080fd5b506200025c62000974565b3480156200029a57600080fd5b506200025c62000c1b565b348015620002b257600080fd5b50620002df620002c43660046200146f565b6011602052600090815260409020546001600160a01b031681565b6040516001600160a01b03909116815260200162000207565b3480156200030557600080fd5b506000546200031b90600160a01b900460ff1681565b604051901515815260200162000207565b3480156200033957600080fd5b50620002df6200034b3660046200146f565b62000c7d565b3480156200035e57600080fd5b506002546001600160a01b0316620002df565b3480156200037e57600080fd5b506200025c6200039036600462001489565b62000ca8565b348015620003a357600080fd5b50600d54620002df906001600160a01b031681565b348015620003c557600080fd5b506200025c62000d7c565b348015620003dd57600080fd5b506200025c620003ef3660046200146f565b62000de4565b3480156200040257600080fd5b50600054620002df906001600160a01b031681565b6200025c62000eb0565b3480156200042e57600080fd5b506200043962001124565b604051620002079190620014ac565b3480156200045557600080fd5b506200031b6200046736600462001514565b600f6020526000908152604090205460ff1681565b3480156200048957600080fd5b50601354620002df906001600160a01b031681565b348015620004ab57600080fd5b50620002df620004bd3660046200146f565b6012602052600090815260409020546001600160a01b031681565b348015620004e557600080fd5b50620004f060105481565b60405190815260200162000207565b3480156200050c57600080fd5b506200025c62001188565b3480156200052457600080fd5b506200025c6200053636600462001514565b62001356565b600754600090421015620005505750600090565b600c54601054600091620005649162001551565b60075462000573919062001571565b600a5490915060009062000588908362001571565b600b549091506000906200059d908362001571565b9050814211620005b1576001935050505090565b804211620005c3576002935050505090565b6003935050505090565b6002546001600160a01b03163314620005f8576040516282b42960e81b815260040160405180910390fd5b600054600160a01b900460ff16156200062457604051634065aaf160e11b815260040160405180910390fd5b6010548114620006685760405163dd23c3ad60e01b81526020600482015260096024820152680c6f2c6d8ca40d2c8f60bb1b60448201526064015b60405180910390fd5b600c5462000677908262001551565b60075462000686919062001571565b421015620006a75760405163085de62560e01b815260040160405180910390fd5b6000818152601260205260409020546001600160a01b031615620007005760405163dd23c3ad60e01b815260206004820152600e60248201526d185b1c9958591e481bdc195b995960921b60448201526064016200065f565b6000600260080154600260090154306040516200071d9062001422565b92835260208301919091526001600160a01b03166040820152606001604051809103906000f08015801562000756573d6000803e3d6000fd5b5060008381526012602090815260409182902080546001600160a01b0319166001600160a01b038516908117909155915191825291925083917fc558e806650b2787a3ef95b49c8046c4deb0a8ce50a0285f6e55963b92200ba8910160405180910390a25050565b336000908152600f602052604090205460ff16620007ee576040516282b42960e81b815260040160405180910390fd5b600054600160a01b900460ff16156200081a57604051634065aaf160e11b815260040160405180910390fd5b601054601354604051638c59091760e01b815260048101839052602481018490526001600160a01b0390911690638c5909179034906044016000604051808303818588803b1580156200086c57600080fd5b505af115801562000881573d6000803e3d6000fd5b50600093506003925062000893915050565b6200089d6200053c565b6003811115620008b157620008b162001430565b600d5491141591506001600160a01b0316156200093757600d5460405163f7e9fd9960e01b81523360048201526024810185905282151560448201526001600160a01b039091169063f7e9fd9990606401600060405180830381600087803b1580156200091d57600080fd5b505af115801562000932573d6000803e3d6000fd5b505050505b604051838152829033907f5dc1fe5ab986a852c4eda8e8bb94247d13307065c593fb83f1a09be273679382906020015b60405180910390a3505050565b6002546001600160a01b031633146200099f576040516282b42960e81b815260040160405180910390fd5b600154600103620009c2576040516282b42960e81b815260040160405180910390fd5b600180556010546000818152601160205260409020546001600160a01b03168062000a1d5760405163dd23c3ad60e01b81526020600482015260096024820152683737903bb4b73732b960b91b60448201526064016200065f565b601354604051635e7ea03360e01b8152600481018490526000916001600160a01b031690635e7ea03390602401602060405180830381865afa15801562000a68573d6000803e3d6000fd5b505050506040513d601f19601f8201168201806040525081019062000a8e919062001587565b905060006127106002600601548362000aa8919062001551565b62000ab49190620015a1565b9050600062000ac48284620015c4565b60135460405163ae2f5d9360e01b8152600481018890526001600160a01b0387811660248301526044820184905292935091169063ae2f5d9390606401600060405180830381600087803b15801562000b1c57600080fd5b505af115801562000b31573d6000803e3d6000fd5b50505050600082111562000bb15760135460025460405163ae2f5d9360e01b8152600481018890526001600160a01b0391821660248201526044810185905291169063ae2f5d9390606401600060405180830381600087803b15801562000b9757600080fd5b505af115801562000bac573d6000803e3d6000fd5b505050505b604080516001600160a01b03861681526020810183905286917f9f5926601e7fc353505f05fae61282ae5d67b716f95656849456e6aa7bbbbb5f910160405180910390a260016010600082825462000c0a919062001571565b909155505060006001555050505050565b6000546001600160a01b0316331462000c46576040516282b42960e81b815260040160405180910390fd5b6000805460ff60a01b1916815560405133917f5db9ee0a495bf2e6ff9c91a7834c1ba4fdd244a5e8aa4e537bd38aeae4b073aa91a2565b600e818154811062000c8e57600080fd5b6000918252602090912001546001600160a01b0316905081565b336000908152600f602052604090205460ff1662000cd8576040516282b42960e81b815260040160405180910390fd5b6010546000908152601260205260409020546001600160a01b03168062000d145760405163dd23c3ad60e01b81526004016200065f90620015da565b604051633162a12560e11b815260048101849052602481018390526001600160a01b038216906362c5424a90604401600060405180830381600087803b15801562000d5e57600080fd5b505af115801562000d73573d6000803e3d6000fd5b50505050505050565b6000546001600160a01b0316331462000da7576040516282b42960e81b815260040160405180910390fd5b6000805460ff60a01b1916600160a01b17815560405133917f62e78cea01bee320cd4e420270b5ea74000d11b0c9f74754ebdbfc544b05a25891a2565b336000908152600f602052604090205460ff1662000e14576040516282b42960e81b815260040160405180910390fd5b6010546000908152601260205260409020546001600160a01b03168062000e505760405163dd23c3ad60e01b81526004016200065f90620015da565b6040516386a2cc2760e01b8152600481018390526001600160a01b038216906386a2cc2790602401600060405180830381600087803b15801562000e9357600080fd5b505af115801562000ea8573d6000803e3d6000fd5b505050505050565b600054600160a01b900460ff161562000edc57604051634065aaf160e11b815260040160405180910390fd5b336000908152600f602052604090205460ff161562000f0d57604051621d934160e11b815260040160405180910390fd5b600554600e541062000f3257604051638e8012df60e01b815260040160405180910390fd5b60095415620010a2576003546001600160a01b031662000f9757600954341462000f915760405163dd23c3ad60e01b815260206004820152600e60248201526d6465706f736974206e617469766560901b60448201526064016200065f565b620010a2565b341562000fd85760405163dd23c3ad60e01b815260206004820152600d60248201526c06465706f73697420657263323609c1b60448201526064016200065f565b6003546009546040516323b872dd60e01b815233600482015230602482015260448101919091526000916001600160a01b0316906323b872dd906064016020604051808303816000875af115801562001035573d6000803e3d6000fd5b505050506040513d601f19601f820116820180604052508101906200105b9190620015fc565b905080620010a05760405163dd23c3ad60e01b815260206004820152601060248201526f3232b837b9b4ba103a3930b739b332b960811b60448201526064016200065f565b505b336000818152600f6020526040808220805460ff19166001908117909155600e8054918201815583527fbb7b4a454dc3493923482f07822329ed19e8244eff582cc204f8554c3620c3fd0180546001600160a01b03191684179055517f7073afa60b48e833a1a66ebb442bc8e0d19e9f3cc05f34bdcd1da22c8d87f2759190a2565b6060600e8054806020026020016040519081016040528092919081815260200182805480156200117e57602002820191906000526020600020905b81546001600160a01b031681526001909101906020018083116200115f575b5050505050905090565b6002546001600160a01b03163314620011b3576040516282b42960e81b815260040160405180910390fd5b6010546000908152601260205260409020546001600160a01b031680620011ef5760405163dd23c3ad60e01b81526004016200065f90620015da565b600080826001600160a01b0316634bb278f36040518163ffffffff1660e01b815260040160408051808303816000875af115801562001232573d6000803e3d6000fd5b505050506040513d601f19601f8201168201806040525081019062001258919062001620565b601054600090815260116020526040902080546001600160a01b0319166001600160a01b0384811691909117909155600d549294509092501615801590620012a857506001600160a01b03821615155b156200131757600d54604051630a0895f560e21b81526001600160a01b038481166004830152602482018490529091169063282257d490604401600060405180830381600087803b158015620012fd57600080fd5b505af115801562001312573d6000803e3d6000fd5b505050505b816001600160a01b03166010547ffee5b04775e1cd2311ed22cd00f5d2403aff38ff6f71d6d393f51854ed6bc986836040516200096791815260200190565b6000546001600160a01b0316331462001381576040516282b42960e81b815260040160405180910390fd5b6001600160a01b038116620013c75760405163dd23c3ad60e01b815260206004820152600a6024820152693d32b9379037bbb732b960b11b60448201526064016200065f565b600080546040516001600160a01b03808516939216917f8be0079c531659141344cd1fd0a4f28419497f9722a3daafe3b4186f6b6457e091a3600080546001600160a01b0319166001600160a01b0392909216919091179055565b610811806200165283390190565b634e487b7160e01b600052602160045260246000fd5b60208101600483106200146957634e487b7160e01b600052602160045260246000fd5b91905290565b6000602082840312156200148257600080fd5b5035919050565b600080604083850312156200149d57600080fd5b50508035926020909101359150565b6020808252825182820181905260009190848201906040850190845b81811015620014ef5783516001600160a01b031683529284019291840191600101620014c8565b50909695505050505050565b6001600160a01b03811681146200151157600080fd5b50565b6000602082840312156200152757600080fd5b81356200153481620014fb565b9392505050565b634e487b7160e01b600052601160045260246000fd5b80820281158282048414176200156b576200156b6200153b565b92915050565b808201808211156200156b576200156b6200153b565b6000602082840312156200159a57600080fd5b5051919050565b600082620015bf57634e487b7160e01b600052601260045260246000fd5b500490565b818103818111156200156b576200156b6200153b565b6020808252600890820152676e6f206379636c6560c01b604082015260600190565b6000602082840312156200160f57600080fd5b815180151581146200153457600080fd5b600080604083850312156200163457600080fd5b82516200164181620014fb565b602093909301519294929350505056fe60a060405234801561001057600080fd5b5060405161081138038061081183398101604081905261002f916100a3565b82158061003a575081155b156100725760405163dd23c3ad60e01b8152602060048201526003602482015262323ab960e91b604482015260640160405180910390fd5b61007c83426100e9565b600181905561008c9083906100e9565b6002556001600160a01b0316608052506101109050565b6000806000606084860312156100b857600080fd5b83516020850151604086015191945092506001600160a01b03811681146100de57600080fd5b809150509250925092565b8082018082111561010a57634e487b7160e01b600052601160045260246000fd5b92915050565b6080516106e06101316000396000818160b3015261020201526106e06000f3fe608060405234801561001057600080fd5b50600436106100a95760003560e01c806386a2cc271161007157806386a2cc271461019457806398f22c12146101a7578063a6e66477146101b0578063b1c9fe6e146101b9578063cff29dfd146101ce578063dfbf53ae146101e157600080fd5b806329e7ef2d146100ae5780633eee4e27146100f25780634bb278f31461010957806362c5424a1461013057806362ea82db14610145575b600080fd5b6100d57f000000000000000000000000000000000000000000000000000000000000000081565b6040516001600160a01b0390911681526020015b60405180910390f35b6100fb60015481565b6040519081526020016100e9565b6101116101f4565b604080516001600160a01b0390931683526020830191909152016100e9565b61014361013e366004610601565b6102f5565b005b610177610153366004610623565b60036020526000908152604090208054600182015460029092015490919060ff1683565b6040805193845260208401929092521515908201526060016100e9565b6101436101a2366004610653565b6104b2565b6100fb60065481565b6100fb60025481565b6101c16105b1565b6040516100e99190610682565b6100d56101dc366004610653565b6105d7565b6005546100d5906001600160a01b031681565b600080336001600160a01b037f000000000000000000000000000000000000000000000000000000000000000016146102615760405163dd23c3ad60e01b815260206004820152600960248201526806e6f742067726f75760bc1b60448201526064015b60405180910390fd5b600261026b6105b1565b600281111561027c5761027c61066c565b1461029a5760405163085de62560e01b815260040160405180910390fd5b6005546006546040519081526001600160a01b03909116907f75060f9e79552df167b73353fee6237a75bb5ba8ea022f77224e32f152138bcb9060200160405180910390a250506005546006546001600160a01b0390911691565b60016102ff6105b1565b60028111156103105761031061066c565b1461032e57604051630dcfc89b60e21b815260040160405180910390fd5b33600090815260036020526040902080546103785760405163dd23c3ad60e01b81526020600482015260096024820152681b9bc818dbdb5b5a5d60ba1b6044820152606401610258565b600281015460ff16156103c15760405163dd23c3ad60e01b815260206004820152601060248201526f185b1c9958591e481c995d99585b195960821b6044820152606401610258565b80546040805160208101869052908101849052606001604051602081830303815290604052805190602001201461042b5760405163dd23c3ad60e01b815260206004820152600d60248201526c0d0c2e6d040dad2e6dac2e8c6d609b1b6044820152606401610258565b60028101805460ff1916600190811790915581018390556005546001600160a01b0316158061045b575060065483105b1561047857600580546001600160a01b0319163317905560068390555b60405183815233907f9891bd98143d5a2c5f29be9a7ef8e5d7b723746fb3b75220234af7aa6caeecfe9060200160405180910390a2505050565b60006104bc6105b1565b60028111156104cd576104cd61066c565b146104eb57604051630dcfc89b60e21b815260040160405180910390fd5b33600090815260036020526040902080541561053e5760405163dd23c3ad60e01b8152602060048201526011602482015270185b1c9958591e4818dbdb5b5a5d1d1959607a1b6044820152606401610258565b8181556004805460018101825560009182527f8a35acfbc15ff81a39ae7d344fd709f28e8600b4aa8c65c6b64bfe7fe36bd19b0180546001600160a01b0319163390811790915560405190917f1d6553f42a4a0f09f1d41c128c54b2c8503afd4c1a765b25c42e3d054ce862ee91a25050565b600060015442116105c25750600090565b60025442116105d15750600190565b50600290565b600481815481106105e757600080fd5b6000918252602090912001546001600160a01b0316905081565b6000806040838503121561061457600080fd5b50508035926020909101359150565b60006020828403121561063557600080fd5b81356001600160a01b038116811461064c57600080fd5b9392505050565b60006020828403121561066557600080fd5b5035919050565b634e487b7160e01b600052602160045260246000fd5b60208101600383106106a457634e487b7160e01b600052602160045260246000fd5b9190529056fea26469706673582212209ea5a32ca35a509c75a161ee3abfaad84e380f0234467a9bdaba3a8eb462e8d564736f6c63430008180033a2646970667358221220c43931c436e1c93a3b70b4844ba7add4d121cb3ec175ea68ecc20321d30072c864736f6c6343000818003360c060405234801561001057600080fd5b50604051610a84380380610a8483398101604081905261002f91610062565b6001600160a01b0391821660a05216608052610095565b80516001600160a01b038116811461005d57600080fd5b919050565b6000806040838503121561007557600080fd5b61007e83610046565b915061008c60208401610046565b90509250929050565b60805160a0516109936100f1600039600081816101ab015281816102600152818161032f015281816103f1015281816104c90152818161067e015261074d0152600081816092015281816101d801526105fb01526109936000f3fe6080604052600436106100745760003560e01c80636ea056a91161004e5780636ea056a9146101445780638c59091714610166578063ae2f5d9314610179578063e5a6b10f1461019957600080fd5b806329e7ef2d1461008057806350d7e93d146100d15780635e7ea0331461011757600080fd5b3661007b57005b600080fd5b34801561008c57600080fd5b506100b47f000000000000000000000000000000000000000000000000000000000000000081565b6040516001600160a01b0390911681526020015b60405180910390f35b3480156100dd57600080fd5b506101096100ec366004610847565b600160209081526000928352604080842090915290825290205481565b6040519081526020016100c8565b34801561012357600080fd5b50610109610132366004610873565b60026020526000908152604090205481565b34801561015057600080fd5b5061016461015f36600461088c565b6101cd565b005b6101646101743660046108b6565b6103c8565b34801561018557600080fd5b506101646101943660046108d8565b6105f0565b3480156101a557600080fd5b506100b47f000000000000000000000000000000000000000000000000000000000000000081565b336001600160a01b037f000000000000000000000000000000000000000000000000000000000000000016146102375760405163dd23c3ad60e01b815260206004820152600960248201526806e6f742067726f75760bc1b60448201526064015b60405180910390fd5b600054600103610259576040516282b42960e81b815260040160405180910390fd5b60016000557f00000000000000000000000000000000000000000000000000000000000000006001600160a01b0316610306576000826001600160a01b03168260405160006040518083038185875af1925050503d80600081146102d9576040519150601f19603f3d011682016040523d82523d6000602084013e6102de565b606091505b5050905080610300576040516312171d8360e31b815260040160405180910390fd5b506103c0565b60405163a9059cbb60e01b81526001600160a01b038381166004830152602482018390526000917f00000000000000000000000000000000000000000000000000000000000000009091169063a9059cbb906044016020604051808303816000875af115801561037a573d6000803e3d6000fd5b505050506040513d601f19601f8201168201806040525081019061039e919061090d565b9050806103be576040516312171d8360e31b815260040160405180910390fd5b505b505060008055565b6000546001036103ea576040516282b42960e81b815260040160405180910390fd5b60016000557f00000000000000000000000000000000000000000000000000000000000000006001600160a01b03166104625780341461045d5760405163dd23c3ad60e01b815260206004820152600d60248201526c1b985d1a5d9948185b5bdd5b9d609a1b604482015260640161022e565b610560565b34156104a45760405163dd23c3ad60e01b815260206004820152601060248201526f6572633230206e6f74206e617469766560801b604482015260640161022e565b6040516323b872dd60e01b8152336004820152306024820152604481018290526000907f00000000000000000000000000000000000000000000000000000000000000006001600160a01b0316906323b872dd906064016020604051808303816000875af115801561051a573d6000803e3d6000fd5b505050506040513d601f19601f8201168201806040525081019061053e919061090d565b90508061055e576040516312171d8360e31b815260040160405180910390fd5b505b600082815260016020908152604080832033845290915281208054839290610589908490610936565b9091555050600082815260026020526040812080548392906105ac908490610936565b9091555050604051818152829033907f5f7675b09617d2c9fa4fd13058ee5877a9538f626b0308816736e83748a450409060200160405180910390a3505060008055565b336001600160a01b037f000000000000000000000000000000000000000000000000000000000000000016146106555760405163dd23c3ad60e01b815260206004820152600960248201526806e6f742067726f75760bc1b604482015260640161022e565b600054600103610677576040516282b42960e81b815260040160405180910390fd5b60016000557f00000000000000000000000000000000000000000000000000000000000000006001600160a01b0316610724576000826001600160a01b03168260405160006040518083038185875af1925050503d80600081146106f7576040519150601f19603f3d011682016040523d82523d6000602084013e6106fc565b606091505b505090508061071e576040516312171d8360e31b815260040160405180910390fd5b506107de565b60405163a9059cbb60e01b81526001600160a01b038381166004830152602482018390526000917f00000000000000000000000000000000000000000000000000000000000000009091169063a9059cbb906044016020604051808303816000875af1158015610798573d6000803e3d6000fd5b505050506040513d601f19601f820116820180604052508101906107bc919061090d565b9050806107dc576040516312171d8360e31b815260040160405180910390fd5b505b82826001600160a01b03167f634235fcf5af0adbca1a405ec65f6f6c08f55e1f379c2c45cd10f23cb29e0e318360405161081a91815260200190565b60405180910390a350506000805550565b80356001600160a01b038116811461084257600080fd5b919050565b6000806040838503121561085a57600080fd5b8235915061086a6020840161082b565b90509250929050565b60006020828403121561088557600080fd5b5035919050565b6000806040838503121561089f57600080fd5b6108a88361082b565b946020939093013593505050565b600080604083850312156108c957600080fd5b50508035926020909101359150565b6000806000606084860312156108ed57600080fd5b833592506108fd6020850161082b565b9150604084013590509250925092565b60006020828403121561091f57600080fd5b8151801515811461092f57600080fd5b9392505050565b8082018082111561095757634e487b7160e01b600052601160045260246000fd5b9291505056fea264697066735822122090fe3cc9c62444066e49f780b324e06c0bc816405f8514464295d9ca2432ad7f64736f6c63430008180033","opcodes":"PUSH1 0x80 PUSH1 0x40 MSTORE CALLVALUE DUP1 ISZERO PUSH3 0x11 JUMPI PUSH1 0x0 DUP1 REVERT JUMPDEST POP PUSH1 0x40 MLOAD PUSH3 0x2C63 CODESIZE SUB DUP1 PUSH3 0x2C63 DUP4 CODECOPY DUP2 ADD PUSH1 0x40 DUP2 SWAP1 MSTORE PUSH3 0x34 SWAP2 PUSH3 0x269 JUMP JUMPDEST PUSH1 0x0 DUP1 SLOAD PUSH1 0x1 PUSH1 0x1 PUSH1 0xA0 SHL SUB NOT AND CALLER SWAP1 DUP2 OR DUP3 SSTORE PUSH1 0x40 MLOAD SWAP1 SWAP2 SWAP1 PUSH32 0x8BE0079C531659141344CD1FD0A4F28419497F9722A3DAAFE3B4186F6B6457E0 SWAP1 DUP3 SWAP1 LOG3 DUP2 MLOAD PUSH1 0x1 PUSH1 0x1 PUSH1 0xA0 SHL SUB AND PUSH3 0xBD JUMPI PUSH1 0x40 MLOAD PUSH4 0xDD23C3AD PUSH1 0xE0 SHL DUP2 MSTORE PUSH1 0x20 PUSH1 0x4 DUP3 ADD MSTORE PUSH1 0x9 PUSH1 0x24 DUP3 ADD MSTORE PUSH9 0x37B933B0B734BD32B9 PUSH1 0xB9 SHL PUSH1 0x44 DUP3 ADD MSTORE PUSH1 0x64 ADD JUMPDEST PUSH1 0x40 MLOAD DUP1 SWAP2 SUB SWAP1 REVERT JUMPDEST PUSH1 0x60 DUP3 ADD MLOAD ISZERO DUP1 PUSH3 0xD1 JUMPI POP PUSH1 0x80 DUP3 ADD MLOAD ISZERO JUMPDEST ISZERO PUSH3 0x10A JUMPI PUSH1 0x40 MLOAD PUSH4 0xDD23C3AD PUSH1 0xE0 SHL DUP2 MSTORE PUSH1 0x20 PUSH1 0x4 DUP3 ADD MSTORE PUSH1 0x6 PUSH1 0x24 DUP3 ADD MSTORE PUSH6 0x626F756E6473 PUSH1 0xD0 SHL PUSH1 0x44 DUP3 ADD MSTORE PUSH1 0x64 ADD PUSH3 0xB4 JUMP JUMPDEST DUP2 MLOAD PUSH1 0x2 DUP1 SLOAD PUSH1 0x1 PUSH1 0x1 PUSH1 0xA0 SHL SUB NOT SWAP1 DUP2 AND PUSH1 0x1 PUSH1 0x1 PUSH1 0xA0 SHL SUB SWAP4 DUP5 AND OR SWAP1 SWAP2 SSTORE PUSH1 0x20 DUP5 ADD MLOAD PUSH1 0x3 DUP1 SLOAD DUP4 AND DUP3 DUP6 AND OR SWAP1 SSTORE PUSH1 0x40 DUP1 DUP7 ADD MLOAD PUSH1 0x4 SSTORE PUSH1 0x60 DUP7 ADD MLOAD PUSH1 0x5 SSTORE PUSH1 0x80 DUP7 ADD MLOAD PUSH1 0x6 SSTORE PUSH1 0xA0 DUP7 ADD MLOAD PUSH1 0x7 SSTORE PUSH1 0xC0 DUP7 ADD MLOAD PUSH1 0x8 SSTORE PUSH1 0xE0 DUP7 ADD MLOAD PUSH1 0x9 SSTORE PUSH2 0x100 DUP7 ADD MLOAD PUSH1 0xA SSTORE PUSH2 0x120 DUP7 ADD MLOAD PUSH1 0xB SSTORE PUSH2 0x140 DUP7 ADD MLOAD PUSH1 0xC SSTORE PUSH1 0xD DUP1 SLOAD SWAP1 SWAP4 AND SWAP4 DUP6 AND SWAP4 SWAP1 SWAP4 OR SWAP1 SWAP2 SSTORE SWAP1 MLOAD ADDRESS SWAP1 PUSH3 0x1A8 SWAP1 PUSH3 0x206 JUMP JUMPDEST PUSH1 0x1 PUSH1 0x1 PUSH1 0xA0 SHL SUB SWAP3 DUP4 AND DUP2 MSTORE SWAP2 AND PUSH1 0x20 DUP3 ADD MSTORE PUSH1 0x40 ADD PUSH1 0x40 MLOAD DUP1 SWAP2 SUB SWAP1 PUSH1 0x0 CREATE DUP1 ISZERO DUP1 ISZERO PUSH3 0x1DC JUMPI RETURNDATASIZE PUSH1 0x0 DUP1 RETURNDATACOPY RETURNDATASIZE PUSH1 0x0 REVERT JUMPDEST POP PUSH1 0x13 DUP1 SLOAD PUSH1 0x1 PUSH1 0x1 PUSH1 0xA0 SHL SUB NOT AND PUSH1 0x1 PUSH1 0x1 PUSH1 0xA0 SHL SUB SWAP3 SWAP1 SWAP3 AND SWAP2 SWAP1 SWAP2 OR SWAP1 SSTORE POP PUSH3 0x337 SWAP1 POP JUMP JUMPDEST PUSH2 0xA84 DUP1 PUSH3 0x21DF DUP4 CODECOPY ADD SWAP1 JUMP JUMPDEST PUSH1 0x40 MLOAD PUSH2 0x160 DUP2 ADD PUSH1 0x1 PUSH1 0x1 PUSH1 0x40 SHL SUB DUP2 GT DUP3 DUP3 LT OR ISZERO PUSH3 0x246 JUMPI PUSH4 0x4E487B71 PUSH1 0xE0 SHL PUSH1 0x0 MSTORE PUSH1 0x41 PUSH1 0x4 MSTORE PUSH1 0x24 PUSH1 0x0 REVERT JUMPDEST PUSH1 0x40 MSTORE SWAP1 JUMP JUMPDEST DUP1 MLOAD PUSH1 0x1 PUSH1 0x1 PUSH1 0xA0 SHL SUB DUP2 AND DUP2 EQ PUSH3 0x264 JUMPI PUSH1 0x0 DUP1 REVERT JUMPDEST SWAP2 SWAP1 POP JUMP JUMPDEST PUSH1 0x0 DUP1 DUP3 DUP5 SUB PUSH2 0x180 DUP2 SLT ISZERO PUSH3 0x27F JUMPI PUSH1 0x0 DUP1 REVERT JUMPDEST PUSH2 0x160 DUP1 DUP3 SLT ISZERO PUSH3 0x290 JUMPI PUSH1 0x0 DUP1 REVERT JUMPDEST PUSH3 0x29A PUSH3 0x214 JUMP JUMPDEST SWAP2 POP PUSH3 0x2A7 DUP6 PUSH3 0x24C JUMP JUMPDEST DUP3 MSTORE PUSH3 0x2B7 PUSH1 0x20 DUP7 ADD PUSH3 0x24C JUMP JUMPDEST PUSH1 0x20 DUP4 ADD MSTORE PUSH1 0x40 DUP6 ADD MLOAD PUSH1 0x40 DUP4 ADD MSTORE PUSH1 0x60 DUP6 ADD MLOAD PUSH1 0x60 DUP4 ADD MSTORE PUSH1 0x80 DUP6 ADD MLOAD PUSH1 0x80 DUP4 ADD MSTORE PUSH1 0xA0 DUP6 ADD MLOAD PUSH1 0xA0 DUP4 ADD MSTORE PUSH1 0xC0 DUP6 ADD MLOAD PUSH1 0xC0 DUP4 ADD MSTORE PUSH1 0xE0 DUP6 ADD MLOAD PUSH1 0xE0 DUP4 ADD MSTORE PUSH2 0x100 DUP1 DUP7 ADD MLOAD DUP2 DUP5 ADD MSTORE POP PUSH2 0x120 DUP1 DUP7 ADD MLOAD DUP2 DUP5 ADD MSTORE POP PUSH2 0x140 DUP1 DUP7 ADD MLOAD DUP2 DUP5 ADD MSTORE POP DUP2 SWAP4 POP PUSH3 0x32C DUP2 DUP7 ADD PUSH3 0x24C JUMP JUMPDEST SWAP3 POP POP POP SWAP3 POP SWAP3 SWAP1 POP JUMP JUMPDEST PUSH2 0x1E98 DUP1 PUSH3 0x347 PUSH1 0x0 CODECOPY PUSH1 0x0 RETURN INVALID PUSH1 0x80 PUSH1 0x40 MSTORE PUSH1 0x4 CALLDATASIZE LT PUSH3 0x15B JUMPI PUSH1 0x0 CALLDATALOAD PUSH1 0xE0 SHR DUP1 PUSH4 0x6587EDA1 GT PUSH3 0xC5 JUMPI DUP1 PUSH4 0xA230C524 GT PUSH3 0x78 JUMPI DUP1 PUSH4 0xA230C524 EQ PUSH3 0x448 JUMPI DUP1 PUSH4 0xA6D23E10 EQ PUSH3 0x47C JUMPI DUP1 PUSH4 0xA7F32125 EQ PUSH3 0x49E JUMPI DUP1 PUSH4 0xBAB2F552 EQ PUSH3 0x4D8 JUMPI DUP1 PUSH4 0xBB15BAC1 EQ PUSH3 0x4FF JUMPI DUP1 PUSH4 0xF2FDE38B EQ PUSH3 0x517 JUMPI PUSH1 0x0 DUP1 REVERT JUMPDEST DUP1 PUSH4 0x6587EDA1 EQ PUSH3 0x396 JUMPI DUP1 PUSH4 0x8456CB59 EQ PUSH3 0x3B8 JUMPI DUP1 PUSH4 0x86A2CC27 EQ PUSH3 0x3D0 JUMPI DUP1 PUSH4 0x8DA5CB5B EQ PUSH3 0x3F5 JUMPI DUP1 PUSH4 0x9AC79E0A EQ PUSH3 0x417 JUMPI DUP1 PUSH4 0x9EAB5253 EQ PUSH3 0x421 JUMPI PUSH1 0x0 DUP1 REVERT JUMPDEST DUP1 PUSH4 0x3F4BA83A GT PUSH3 0x11E JUMPI DUP1 PUSH4 0x3F4BA83A EQ PUSH3 0x28D JUMPI DUP1 PUSH4 0x4F38CCD0 EQ PUSH3 0x2A5 JUMPI DUP1 PUSH4 0x5C975ABB EQ PUSH3 0x2F8 JUMPI DUP1 PUSH4 0x5DAF08CA EQ PUSH3 0x32C JUMPI DUP1 PUSH4 0x61203265 EQ PUSH3 0x351 JUMPI DUP1 PUSH4 0x62C5424A EQ PUSH3 0x371 JUMPI PUSH1 0x0 DUP1 REVERT JUMPDEST DUP1 PUSH4 0x457DAD2 EQ PUSH3 0x160 JUMPI DUP1 PUSH4 0x55AD42E EQ PUSH3 0x210 JUMPI DUP1 PUSH4 0x26A3CC9B EQ PUSH3 0x237 JUMPI DUP1 PUSH4 0x360A2BCB EQ PUSH3 0x25E JUMPI DUP1 PUSH4 0x3A6A4D2E EQ PUSH3 0x275 JUMPI JUMPDEST PUSH1 0x0 DUP1 REVERT JUMPDEST CALLVALUE DUP1 ISZERO PUSH3 0x16D JUMPI PUSH1 0x0 DUP1 REVERT JUMPDEST POP PUSH1 0x2 SLOAD PUSH1 0x3 SLOAD PUSH1 0x4 SLOAD PUSH1 0x5 SLOAD PUSH1 0x6 SLOAD PUSH1 0x7 SLOAD PUSH1 0x8 SLOAD PUSH1 0x9 SLOAD PUSH1 0xA SLOAD PUSH1 0xB SLOAD PUSH1 0xC SLOAD PUSH3 0x1AD SWAP11 PUSH1 0x1 PUSH1 0x1 PUSH1 0xA0 SHL SUB SWAP1 DUP2 AND SWAP11 AND SWAP9 SWAP8 SWAP7 SWAP6 SWAP5 SWAP4 SWAP3 SWAP2 SWAP1 DUP12 JUMP JUMPDEST PUSH1 0x40 DUP1 MLOAD PUSH1 0x1 PUSH1 0x1 PUSH1 0xA0 SHL SUB SWAP13 DUP14 AND DUP2 MSTORE SWAP12 SWAP1 SWAP11 AND PUSH1 0x20 DUP13 ADD MSTORE SWAP9 DUP11 ADD SWAP8 SWAP1 SWAP8 MSTORE PUSH1 0x60 DUP10 ADD SWAP6 SWAP1 SWAP6 MSTORE PUSH1 0x80 DUP9 ADD SWAP4 SWAP1 SWAP4 MSTORE PUSH1 0xA0 DUP8 ADD SWAP2 SWAP1 SWAP2 MSTORE PUSH1 0xC0 DUP7 ADD MSTORE PUSH1 0xE0 DUP6 ADD MSTORE PUSH2 0x100 DUP5 ADD MSTORE PUSH2 0x120 DUP4 ADD MSTORE PUSH2 0x140 DUP3 ADD MSTORE PUSH2 0x160 ADD JUMPDEST PUSH1 0x40 MLOAD DUP1 SWAP2 SUB SWAP1 RETURN JUMPDEST CALLVALUE DUP1 ISZERO PUSH3 0x21D JUMPI PUSH1 0x0 DUP1 REVERT JUMPDEST POP PUSH3 0x228 PUSH3 0x53C JUMP JUMPDEST PUSH1 0x40 MLOAD PUSH3 0x207 SWAP2 SWAP1 PUSH3 0x1446 JUMP JUMPDEST CALLVALUE DUP1 ISZERO PUSH3 0x244 JUMPI PUSH1 0x0 DUP1 REVERT JUMPDEST POP PUSH3 0x25C PUSH3 0x256 CALLDATASIZE PUSH1 0x4 PUSH3 0x146F JUMP JUMPDEST PUSH3 0x5CD JUMP JUMPDEST STOP JUMPDEST PUSH3 0x25C PUSH3 0x26F CALLDATASIZE PUSH1 0x4 PUSH3 0x146F JUMP JUMPDEST PUSH3 0x7BE JUMP JUMPDEST CALLVALUE DUP1 ISZERO PUSH3 0x282 JUMPI PUSH1 0x0 DUP1 REVERT JUMPDEST POP PUSH3 0x25C PUSH3 0x974 JUMP JUMPDEST CALLVALUE DUP1 ISZERO PUSH3 0x29A JUMPI PUSH1 0x0 DUP1 REVERT JUMPDEST POP PUSH3 0x25C PUSH3 0xC1B JUMP JUMPDEST CALLVALUE DUP1 ISZERO PUSH3 0x2B2 JUMPI PUSH1 0x0 DUP1 REVERT JUMPDEST POP PUSH3 0x2DF PUSH3 0x2C4 CALLDATASIZE PUSH1 0x4 PUSH3 0x146F JUMP JUMPDEST PUSH1 0x11 PUSH1 0x20 MSTORE PUSH1 0x0 SWAP1 DUP2 MSTORE PUSH1 0x40 SWAP1 KECCAK256 SLOAD PUSH1 0x1 PUSH1 0x1 PUSH1 0xA0 SHL SUB AND DUP2 JUMP JUMPDEST PUSH1 0x40 MLOAD PUSH1 0x1 PUSH1 0x1 PUSH1 0xA0 SHL SUB SWAP1 SWAP2 AND DUP2 MSTORE PUSH1 0x20 ADD PUSH3 0x207 JUMP JUMPDEST CALLVALUE DUP1 ISZERO PUSH3 0x305 JUMPI PUSH1 0x0 DUP1 REVERT JUMPDEST POP PUSH1 0x0 SLOAD PUSH3 0x31B SWAP1 PUSH1 0x1 PUSH1 0xA0 SHL SWAP1 DIV PUSH1 0xFF AND DUP2 JUMP JUMPDEST PUSH1 0x40 MLOAD SWAP1 ISZERO ISZERO DUP2 MSTORE PUSH1 0x20 ADD PUSH3 0x207 JUMP JUMPDEST CALLVALUE DUP1 ISZERO PUSH3 0x339 JUMPI PUSH1 0x0 DUP1 REVERT JUMPDEST POP PUSH3 0x2DF PUSH3 0x34B CALLDATASIZE PUSH1 0x4 PUSH3 0x146F JUMP JUMPDEST PUSH3 0xC7D JUMP JUMPDEST CALLVALUE DUP1 ISZERO PUSH3 0x35E JUMPI PUSH1 0x0 DUP1 REVERT JUMPDEST POP PUSH1 0x2 SLOAD PUSH1 0x1 PUSH1 0x1 PUSH1 0xA0 SHL SUB AND PUSH3 0x2DF JUMP JUMPDEST CALLVALUE DUP1 ISZERO PUSH3 0x37E JUMPI PUSH1 0x0 DUP1 REVERT JUMPDEST POP PUSH3 0x25C PUSH3 0x390 CALLDATASIZE PUSH1 0x4 PUSH3 0x1489 JUMP JUMPDEST PUSH3 0xCA8 JUMP JUMPDEST CALLVALUE DUP1 ISZERO PUSH3 0x3A3 JUMPI PUSH1 0x0 DUP1 REVERT JUMPDEST POP PUSH1 0xD SLOAD PUSH3 0x2DF SWAP1 PUSH1 0x1 PUSH1 0x1 PUSH1 0xA0 SHL SUB AND DUP2 JUMP JUMPDEST CALLVALUE DUP1 ISZERO PUSH3 0x3C5 JUMPI PUSH1 0x0 DUP1 REVERT JUMPDEST POP PUSH3 0x25C PUSH3 0xD7C JUMP JUMPDEST CALLVALUE DUP1 ISZERO PUSH3 0x3DD JUMPI PUSH1 0x0 DUP1 REVERT JUMPDEST POP PUSH3 0x25C PUSH3 0x3EF CALLDATASIZE PUSH1 0x4 PUSH3 0x146F JUMP JUMPDEST PUSH3 0xDE4 JUMP JUMPDEST CALLVALUE DUP1 ISZERO PUSH3 0x402 JUMPI PUSH1 0x0 DUP1 REVERT JUMPDEST POP PUSH1 0x0 SLOAD PUSH3 0x2DF SWAP1 PUSH1 0x1 PUSH1 0x1 PUSH1 0xA0 SHL SUB AND DUP2 JUMP JUMPDEST PUSH3 0x25C PUSH3 0xEB0 JUMP JUMPDEST CALLVALUE DUP1 ISZERO PUSH3 0x42E JUMPI PUSH1 0x0 DUP1 REVERT JUMPDEST POP PUSH3 0x439 PUSH3 0x1124 JUMP JUMPDEST PUSH1 0x40 MLOAD PUSH3 0x207 SWAP2 SWAP1 PUSH3 0x14AC JUMP JUMPDEST CALLVALUE DUP1 ISZERO PUSH3 0x455 JUMPI PUSH1 0x0 DUP1 REVERT JUMPDEST POP PUSH3 0x31B PUSH3 0x467 CALLDATASIZE PUSH1 0x4 PUSH3 0x1514 JUMP JUMPDEST PUSH1 0xF PUSH1 0x20 MSTORE PUSH1 0x0 SWAP1 DUP2 MSTORE PUSH1 0x40 SWAP1 KECCAK256 SLOAD PUSH1 0xFF AND DUP2 JUMP JUMPDEST CALLVALUE DUP1 ISZERO PUSH3 0x489 JUMPI PUSH1 0x0 DUP1 REVERT JUMPDEST POP PUSH1 0x13 SLOAD PUSH3 0x2DF SWAP1 PUSH1 0x1 PUSH1 0x1 PUSH1 0xA0 SHL SUB AND DUP2 JUMP JUMPDEST CALLVALUE DUP1 ISZERO PUSH3 0x4AB JUMPI PUSH1 0x0 DUP1 REVERT JUMPDEST POP PUSH3 0x2DF PUSH3 0x4BD CALLDATASIZE PUSH1 0x4 PUSH3 0x146F JUMP JUMPDEST PUSH1 0x12 PUSH1 0x20 MSTORE PUSH1 0x0 SWAP1 DUP2 MSTORE PUSH1 0x40 SWAP1 KECCAK256 SLOAD PUSH1 0x1 PUSH1 0x1 PUSH1 0xA0 SHL SUB AND DUP2 JUMP JUMPDEST CALLVALUE DUP1 ISZERO PUSH3 0x4E5 JUMPI PUSH1 0x0 DUP1 REVERT JUMPDEST POP PUSH3 0x4F0 PUSH1 0x10 SLOAD DUP2 JUMP JUMPDEST PUSH1 0x40 MLOAD SWAP1 DUP2 MSTORE PUSH1 0x20 ADD PUSH3 0x207 JUMP JUMPDEST CALLVALUE DUP1 ISZERO PUSH3 0x50C JUMPI PUSH1 0x0 DUP1 REVERT JUMPDEST POP PUSH3 0x25C PUSH3 0x1188 JUMP JUMPDEST CALLVALUE DUP1 ISZERO PUSH3 0x524 JUMPI PUSH1 0x0 DUP1 REVERT JUMPDEST POP PUSH3 0x25C PUSH3 0x536 CALLDATASIZE PUSH1 0x4 PUSH3 0x1514 JUMP JUMPDEST PUSH3 0x1356 JUMP JUMPDEST PUSH1 0x7 SLOAD PUSH1 0x0 SWAP1 TIMESTAMP LT ISZERO PUSH3 0x550 JUMPI POP PUSH1 0x0 SWAP1 JUMP JUMPDEST PUSH1 0xC SLOAD PUSH1 0x10 SLOAD PUSH1 0x0 SWAP2 PUSH3 0x564 SWAP2 PUSH3 0x1551 JUMP JUMPDEST PUSH1 0x7 SLOAD PUSH3 0x573 SWAP2 SWAP1 PUSH3 0x1571 JUMP JUMPDEST PUSH1 0xA SLOAD SWAP1 SWAP2 POP PUSH1 0x0 SWAP1 PUSH3 0x588 SWAP1 DUP4 PUSH3 0x1571 JUMP JUMPDEST PUSH1 0xB SLOAD SWAP1 SWAP2 POP PUSH1 0x0 SWAP1 PUSH3 0x59D SWAP1 DUP4 PUSH3 0x1571 JUMP JUMPDEST SWAP1 POP DUP2 TIMESTAMP GT PUSH3 0x5B1 JUMPI PUSH1 0x1 SWAP4 POP POP POP POP SWAP1 JUMP JUMPDEST DUP1 TIMESTAMP GT PUSH3 0x5C3 JUMPI PUSH1 0x2 SWAP4 POP POP POP POP SWAP1 JUMP JUMPDEST PUSH1 0x3 SWAP4 POP POP POP POP SWAP1 JUMP JUMPDEST PUSH1 0x2 SLOAD PUSH1 0x1 PUSH1 0x1 PUSH1 0xA0 SHL SUB AND CALLER EQ PUSH3 0x5F8 JUMPI PUSH1 0x40 MLOAD PUSH3 0x82B429 PUSH1 0xE8 SHL DUP2 MSTORE PUSH1 0x4 ADD PUSH1 0x40 MLOAD DUP1 SWAP2 SUB SWAP1 REVERT JUMPDEST PUSH1 0x0 SLOAD PUSH1 0x1 PUSH1 0xA0 SHL SWAP1 DIV PUSH1 0xFF AND ISZERO PUSH3 0x624 JUMPI PUSH1 0x40 MLOAD PUSH4 0x4065AAF1 PUSH1 0xE1 SHL DUP2 MSTORE PUSH1 0x4 ADD PUSH1 0x40 MLOAD DUP1 SWAP2 SUB SWAP1 REVERT JUMPDEST PUSH1 0x10 SLOAD DUP2 EQ PUSH3 0x668 JUMPI PUSH1 0x40 MLOAD PUSH4 0xDD23C3AD PUSH1 0xE0 SHL DUP2 MSTORE PUSH1 0x20 PUSH1 0x4 DUP3 ADD MSTORE PUSH1 0x9 PUSH1 0x24 DUP3 ADD MSTORE PUSH9 0xC6F2C6D8CA40D2C8F PUSH1 0xBB SHL PUSH1 0x44 DUP3 ADD MSTORE PUSH1 0x64 ADD JUMPDEST PUSH1 0x40 MLOAD DUP1 SWAP2 SUB SWAP1 REVERT JUMPDEST PUSH1 0xC SLOAD PUSH3 0x677 SWAP1 DUP3 PUSH3 0x1551 JUMP JUMPDEST PUSH1 0x7 SLOAD PUSH3 0x686 SWAP2 SWAP1 PUSH3 0x1571 JUMP JUMPDEST TIMESTAMP LT ISZERO PUSH3 0x6A7 JUMPI PUSH1 0x40 MLOAD PUSH4 0x85DE625 PUSH1 0xE0 SHL DUP2 MSTORE PUSH1 0x4 ADD PUSH1 0x40 MLOAD DUP1 SWAP2 SUB SWAP1 REVERT JUMPDEST PUSH1 0x0 DUP2 DUP2 MSTORE PUSH1 0x12 PUSH1 0x20 MSTORE PUSH1 0x40 SWAP1 KECCAK256 SLOAD PUSH1 0x1 PUSH1 0x1 PUSH1 0xA0 SHL SUB AND ISZERO PUSH3 0x700 JUMPI PUSH1 0x40 MLOAD PUSH4 0xDD23C3AD PUSH1 0xE0 SHL DUP2 MSTORE PUSH1 0x20 PUSH1 0x4 DUP3 ADD MSTORE PUSH1 0xE PUSH1 0x24 DUP3 ADD MSTORE PUSH14 0x185B1C9958591E481BDC195B9959 PUSH1 0x92 SHL PUSH1 0x44 DUP3 ADD MSTORE PUSH1 0x64 ADD PUSH3 0x65F JUMP JUMPDEST PUSH1 0x0 PUSH1 0x2 PUSH1 0x8 ADD SLOAD PUSH1 0x2 PUSH1 0x9 ADD SLOAD ADDRESS PUSH1 0x40 MLOAD PUSH3 0x71D SWAP1 PUSH3 0x1422 JUMP JUMPDEST SWAP3 DUP4 MSTORE PUSH1 0x20 DUP4 ADD SWAP2 SWAP1 SWAP2 MSTORE PUSH1 0x1 PUSH1 0x1 PUSH1 0xA0 SHL SUB AND PUSH1 0x40 DUP3 ADD MSTORE PUSH1 0x60 ADD PUSH1 0x40 MLOAD DUP1 SWAP2 SUB SWAP1 PUSH1 0x0 CREATE DUP1 ISZERO DUP1 ISZERO PUSH3 0x756 JUMPI RETURNDATASIZE PUSH1 0x0 DUP1 RETURNDATACOPY RETURNDATASIZE PUSH1 0x0 REVERT JUMPDEST POP PUSH1 0x0 DUP4 DUP2 MSTORE PUSH1 0x12 PUSH1 0x20 SWAP1 DUP2 MSTORE PUSH1 0x40 SWAP2 DUP3 SWAP1 KECCAK256 DUP1 SLOAD PUSH1 0x1 PUSH1 0x1 PUSH1 0xA0 SHL SUB NOT AND PUSH1 0x1 PUSH1 0x1 PUSH1 0xA0 SHL SUB DUP6 AND SWAP1 DUP2 OR SWAP1 SWAP2 SSTORE SWAP2 MLOAD SWAP2 DUP3 MSTORE SWAP2 SWAP3 POP DUP4 SWAP2 PUSH32 0xC558E806650B2787A3EF95B49C8046C4DEB0A8CE50A0285F6E55963B92200BA8 SWAP2 ADD PUSH1 0x40 MLOAD DUP1 SWAP2 SUB SWAP1 LOG2 POP POP JUMP JUMPDEST CALLER PUSH1 0x0 SWAP1 DUP2 MSTORE PUSH1 0xF PUSH1 0x20 MSTORE PUSH1 0x40 SWAP1 KECCAK256 SLOAD PUSH1 0xFF AND PUSH3 0x7EE JUMPI PUSH1 0x40 MLOAD PUSH3 0x82B429 PUSH1 0xE8 SHL DUP2 MSTORE PUSH1 0x4 ADD PUSH1 0x40 MLOAD DUP1 SWAP2 SUB SWAP1 REVERT JUMPDEST PUSH1 0x0 SLOAD PUSH1 0x1 PUSH1 0xA0 SHL SWAP1 DIV PUSH1 0xFF AND ISZERO PUSH3 0x81A JUMPI PUSH1 0x40 MLOAD PUSH4 0x4065AAF1 PUSH1 0xE1 SHL DUP2 MSTORE PUSH1 0x4 ADD PUSH1 0x40 MLOAD DUP1 SWAP2 SUB SWAP1 REVERT JUMPDEST PUSH1 0x10 SLOAD PUSH1 0x13 SLOAD PUSH1 0x40 MLOAD PUSH4 0x8C590917 PUSH1 0xE0 SHL DUP2 MSTORE PUSH1 0x4 DUP2 ADD DUP4 SWAP1 MSTORE PUSH1 0x24 DUP2 ADD DUP5 SWAP1 MSTORE PUSH1 0x1 PUSH1 0x1 PUSH1 0xA0 SHL SUB SWAP1 SWAP2 AND SWAP1 PUSH4 0x8C590917 SWAP1 CALLVALUE SWAP1 PUSH1 0x44 ADD PUSH1 0x0 PUSH1 0x40 MLOAD DUP1 DUP4 SUB DUP2 DUP6 DUP9 DUP1 EXTCODESIZE ISZERO DUP1 ISZERO PUSH3 0x86C JUMPI PUSH1 0x0 DUP1 REVERT JUMPDEST POP GAS CALL ISZERO DUP1 ISZERO PUSH3 0x881 JUMPI RETURNDATASIZE PUSH1 0x0 DUP1 RETURNDATACOPY RETURNDATASIZE PUSH1 0x0 REVERT JUMPDEST POP PUSH1 0x0 SWAP4 POP PUSH1 0x3 SWAP3 POP PUSH3 0x893 SWAP2 POP POP JUMP JUMPDEST PUSH3 0x89D PUSH3 0x53C JUMP JUMPDEST PUSH1 0x3 DUP2 GT ISZERO PUSH3 0x8B1 JUMPI PUSH3 0x8B1 PUSH3 0x1430 JUMP JUMPDEST PUSH1 0xD SLOAD SWAP2 EQ ISZERO SWAP2 POP PUSH1 0x1 PUSH1 0x1 PUSH1 0xA0 SHL SUB AND ISZERO PUSH3 0x937 JUMPI PUSH1 0xD SLOAD PUSH1 0x40 MLOAD PUSH4 0xF7E9FD99 PUSH1 0xE0 SHL DUP2 MSTORE CALLER PUSH1 0x4 DUP3 ADD MSTORE PUSH1 0x24 DUP2 ADD DUP6 SWAP1 MSTORE DUP3 ISZERO ISZERO PUSH1 0x44 DUP3 ADD MSTORE PUSH1 0x1 PUSH1 0x1 PUSH1 0xA0 SHL SUB SWAP1 SWAP2 AND SWAP1 PUSH4 0xF7E9FD99 SWAP1 PUSH1 0x64 ADD PUSH1 0x0 PUSH1 0x40 MLOAD DUP1 DUP4 SUB DUP2 PUSH1 0x0 DUP8 DUP1 EXTCODESIZE ISZERO DUP1 ISZERO PUSH3 0x91D JUMPI PUSH1 0x0 DUP1 REVERT JUMPDEST POP GAS CALL ISZERO DUP1 ISZERO PUSH3 0x932 JUMPI RETURNDATASIZE PUSH1 0x0 DUP1 RETURNDATACOPY RETURNDATASIZE PUSH1 0x0 REVERT JUMPDEST POP POP POP POP JUMPDEST PUSH1 0x40 MLOAD DUP4 DUP2 MSTORE DUP3 SWAP1 CALLER SWAP1 PUSH32 0x5DC1FE5AB986A852C4EDA8E8BB94247D13307065C593FB83F1A09BE273679382 SWAP1 PUSH1 0x20 ADD JUMPDEST PUSH1 0x40 MLOAD DUP1 SWAP2 SUB SWAP1 LOG3 POP POP POP JUMP JUMPDEST PUSH1 0x2 SLOAD PUSH1 0x1 PUSH1 0x1 PUSH1 0xA0 SHL SUB AND CALLER EQ PUSH3 0x99F JUMPI PUSH1 0x40 MLOAD PUSH3 0x82B429 PUSH1 0xE8 SHL DUP2 MSTORE PUSH1 0x4 ADD PUSH1 0x40 MLOAD DUP1 SWAP2 SUB SWAP1 REVERT JUMPDEST PUSH1 0x1 SLOAD PUSH1 0x1 SUB PUSH3 0x9C2 JUMPI PUSH1 0x40 MLOAD PUSH3 0x82B429 PUSH1 0xE8 SHL DUP2 MSTORE PUSH1 0x4 ADD PUSH1 0x40 MLOAD DUP1 SWAP2 SUB SWAP1 REVERT JUMPDEST PUSH1 0x1 DUP1 SSTORE PUSH1 0x10 SLOAD PUSH1 0x0 DUP2 DUP2 MSTORE PUSH1 0x11 PUSH1 0x20 MSTORE PUSH1 0x40 SWAP1 KECCAK256 SLOAD PUSH1 0x1 PUSH1 0x1 PUSH1 0xA0 SHL SUB AND DUP1 PUSH3 0xA1D JUMPI PUSH1 0x40 MLOAD PUSH4 0xDD23C3AD PUSH1 0xE0 SHL DUP2 MSTORE PUSH1 0x20 PUSH1 0x4 DUP3 ADD MSTORE PUSH1 0x9 PUSH1 0x24 DUP3 ADD MSTORE PUSH9 0x3737903BB4B73732B9 PUSH1 0xB9 SHL PUSH1 0x44 DUP3 ADD MSTORE PUSH1 0x64 ADD PUSH3 0x65F JUMP JUMPDEST PUSH1 0x13 SLOAD PUSH1 0x40 MLOAD PUSH4 0x5E7EA033 PUSH1 0xE0 SHL DUP2 MSTORE PUSH1 0x4 DUP2 ADD DUP5 SWAP1 MSTORE PUSH1 0x0 SWAP2 PUSH1 0x1 PUSH1 0x1 PUSH1 0xA0 SHL SUB AND SWAP1 PUSH4 0x5E7EA033 SWAP1 PUSH1 0x24 ADD PUSH1 0x20 PUSH1 0x40 MLOAD DUP1 DUP4 SUB DUP2 DUP7 GAS STATICCALL ISZERO DUP1 ISZERO PUSH3 0xA68 JUMPI RETURNDATASIZE PUSH1 0x0 DUP1 RETURNDATACOPY RETURNDATASIZE PUSH1 0x0 REVERT JUMPDEST POP POP POP POP PUSH1 0x40 MLOAD RETURNDATASIZE PUSH1 0x1F NOT PUSH1 0x1F DUP3 ADD AND DUP3 ADD DUP1 PUSH1 0x40 MSTORE POP DUP2 ADD SWAP1 PUSH3 0xA8E SWAP2 SWAP1 PUSH3 0x1587 JUMP JUMPDEST SWAP1 POP PUSH1 0x0 PUSH2 0x2710 PUSH1 0x2 PUSH1 0x6 ADD SLOAD DUP4 PUSH3 0xAA8 SWAP2 SWAP1 PUSH3 0x1551 JUMP JUMPDEST PUSH3 0xAB4 SWAP2 SWAP1 PUSH3 0x15A1 JUMP JUMPDEST SWAP1 POP PUSH1 0x0 PUSH3 0xAC4 DUP3 DUP5 PUSH3 0x15C4 JUMP JUMPDEST PUSH1 0x13 SLOAD PUSH1 0x40 MLOAD PUSH4 0xAE2F5D93 PUSH1 0xE0 SHL DUP2 MSTORE PUSH1 0x4 DUP2 ADD DUP9 SWAP1 MSTORE PUSH1 0x1 PUSH1 0x1 PUSH1 0xA0 SHL SUB DUP8 DUP2 AND PUSH1 0x24 DUP4 ADD MSTORE PUSH1 0x44 DUP3 ADD DUP5 SWAP1 MSTORE SWAP3 SWAP4 POP SWAP2 AND SWAP1 PUSH4 0xAE2F5D93 SWAP1 PUSH1 0x64 ADD PUSH1 0x0 PUSH1 0x40 MLOAD DUP1 DUP4 SUB DUP2 PUSH1 0x0 DUP8 DUP1 EXTCODESIZE ISZERO DUP1 ISZERO PUSH3 0xB1C JUMPI PUSH1 0x0 DUP1 REVERT JUMPDEST POP GAS CALL ISZERO DUP1 ISZERO PUSH3 0xB31 JUMPI RETURNDATASIZE PUSH1 0x0 DUP1 RETURNDATACOPY RETURNDATASIZE PUSH1 0x0 REVERT JUMPDEST POP POP POP POP PUSH1 0x0 DUP3 GT ISZERO PUSH3 0xBB1 JUMPI PUSH1 0x13 SLOAD PUSH1 0x2 SLOAD PUSH1 0x40 MLOAD PUSH4 0xAE2F5D93 PUSH1 0xE0 SHL DUP2 MSTORE PUSH1 0x4 DUP2 ADD DUP9 SWAP1 MSTORE PUSH1 0x1 PUSH1 0x1 PUSH1 0xA0 SHL SUB SWAP2 DUP3 AND PUSH1 0x24 DUP3 ADD MSTORE PUSH1 0x44 DUP2 ADD DUP6 SWAP1 MSTORE SWAP2 AND SWAP1 PUSH4 0xAE2F5D93 SWAP1 PUSH1 0x64 ADD PUSH1 0x0 PUSH1 0x40 MLOAD DUP1 DUP4 SUB DUP2 PUSH1 0x0 DUP8 DUP1 EXTCODESIZE ISZERO DUP1 ISZERO PUSH3 0xB97 JUMPI PUSH1 0x0 DUP1 REVERT JUMPDEST POP GAS CALL ISZERO DUP1 ISZERO PUSH3 0xBAC JUMPI RETURNDATASIZE PUSH1 0x0 DUP1 RETURNDATACOPY RETURNDATASIZE PUSH1 0x0 REVERT JUMPDEST POP POP POP POP JUMPDEST PUSH1 0x40 DUP1 MLOAD PUSH1 0x1 PUSH1 0x1 PUSH1 0xA0 SHL SUB DUP7 AND DUP2 MSTORE PUSH1 0x20 DUP2 ADD DUP4 SWAP1 MSTORE DUP7 SWAP2 PUSH32 0x9F5926601E7FC353505F05FAE61282AE5D67B716F95656849456E6AA7BBBBB5F SWAP2 ADD PUSH1 0x40 MLOAD DUP1 SWAP2 SUB SWAP1 LOG2 PUSH1 0x1 PUSH1 0x10 PUSH1 0x0 DUP3 DUP3 SLOAD PUSH3 0xC0A SWAP2 SWAP1 PUSH3 0x1571 JUMP JUMPDEST SWAP1 SWAP2 SSTORE POP POP PUSH1 0x0 PUSH1 0x1 SSTORE POP POP POP POP POP JUMP JUMPDEST PUSH1 0x0 SLOAD PUSH1 0x1 PUSH1 0x1 PUSH1 0xA0 SHL SUB AND CALLER EQ PUSH3 0xC46 JUMPI PUSH1 0x40 MLOAD PUSH3 0x82B429 PUSH1 0xE8 SHL DUP2 MSTORE PUSH1 0x4 ADD PUSH1 0x40 MLOAD DUP1 SWAP2 SUB SWAP1 REVERT JUMPDEST PUSH1 0x0 DUP1 SLOAD PUSH1 0xFF PUSH1 0xA0 SHL NOT AND DUP2 SSTORE PUSH1 0x40 MLOAD CALLER SWAP2 PUSH32 0x5DB9EE0A495BF2E6FF9C91A7834C1BA4FDD244A5E8AA4E537BD38AEAE4B073AA SWAP2 LOG2 JUMP JUMPDEST PUSH1 0xE DUP2 DUP2 SLOAD DUP2 LT PUSH3 0xC8E JUMPI PUSH1 0x0 DUP1 REVERT JUMPDEST PUSH1 0x0 SWAP2 DUP3 MSTORE PUSH1 0x20 SWAP1 SWAP2 KECCAK256 ADD SLOAD PUSH1 0x1 PUSH1 0x1 PUSH1 0xA0 SHL SUB AND SWAP1 POP DUP2 JUMP JUMPDEST CALLER PUSH1 0x0 SWAP1 DUP2 MSTORE PUSH1 0xF PUSH1 0x20 MSTORE PUSH1 0x40 SWAP1 KECCAK256 SLOAD PUSH1 0xFF AND PUSH3 0xCD8 JUMPI PUSH1 0x40 MLOAD PUSH3 0x82B429 PUSH1 0xE8 SHL DUP2 MSTORE PUSH1 0x4 ADD PUSH1 0x40 MLOAD DUP1 SWAP2 SUB SWAP1 REVERT JUMPDEST PUSH1 0x10 SLOAD PUSH1 0x0 SWAP1 DUP2 MSTORE PUSH1 0x12 PUSH1 0x20 MSTORE PUSH1 0x40 SWAP1 KECCAK256 SLOAD PUSH1 0x1 PUSH1 0x1 PUSH1 0xA0 SHL SUB AND DUP1 PUSH3 0xD14 JUMPI PUSH1 0x40 MLOAD PUSH4 0xDD23C3AD PUSH1 0xE0 SHL DUP2 MSTORE PUSH1 0x4 ADD PUSH3 0x65F SWAP1 PUSH3 0x15DA JUMP JUMPDEST PUSH1 0x40 MLOAD PUSH4 0x3162A125 PUSH1 0xE1 SHL DUP2 MSTORE PUSH1 0x4 DUP2 ADD DUP5 SWAP1 MSTORE PUSH1 0x24 DUP2 ADD DUP4 SWAP1 MSTORE PUSH1 0x1 PUSH1 0x1 PUSH1 0xA0 SHL SUB DUP3 AND SWAP1 PUSH4 0x62C5424A SWAP1 PUSH1 0x44 ADD PUSH1 0x0 PUSH1 0x40 MLOAD DUP1 DUP4 SUB DUP2 PUSH1 0x0 DUP8 DUP1 EXTCODESIZE ISZERO DUP1 ISZERO PUSH3 0xD5E JUMPI PUSH1 0x0 DUP1 REVERT JUMPDEST POP GAS CALL ISZERO DUP1 ISZERO PUSH3 0xD73 JUMPI RETURNDATASIZE PUSH1 0x0 DUP1 RETURNDATACOPY RETURNDATASIZE PUSH1 0x0 REVERT JUMPDEST POP POP POP POP POP POP POP JUMP JUMPDEST PUSH1 0x0 SLOAD PUSH1 0x1 PUSH1 0x1 PUSH1 0xA0 SHL SUB AND CALLER EQ PUSH3 0xDA7 JUMPI PUSH1 0x40 MLOAD PUSH3 0x82B429 PUSH1 0xE8 SHL DUP2 MSTORE PUSH1 0x4 ADD PUSH1 0x40 MLOAD DUP1 SWAP2 SUB SWAP1 REVERT JUMPDEST PUSH1 0x0 DUP1 SLOAD PUSH1 0xFF PUSH1 0xA0 SHL NOT AND PUSH1 0x1 PUSH1 0xA0 SHL OR DUP2 SSTORE PUSH1 0x40 MLOAD CALLER SWAP2 PUSH32 0x62E78CEA01BEE320CD4E420270B5EA74000D11B0C9F74754EBDBFC544B05A258 SWAP2 LOG2 JUMP JUMPDEST CALLER PUSH1 0x0 SWAP1 DUP2 MSTORE PUSH1 0xF PUSH1 0x20 MSTORE PUSH1 0x40 SWAP1 KECCAK256 SLOAD PUSH1 0xFF AND PUSH3 0xE14 JUMPI PUSH1 0x40 MLOAD PUSH3 0x82B429 PUSH1 0xE8 SHL DUP2 MSTORE PUSH1 0x4 ADD PUSH1 0x40 MLOAD DUP1 SWAP2 SUB SWAP1 REVERT JUMPDEST PUSH1 0x10 SLOAD PUSH1 0x0 SWAP1 DUP2 MSTORE PUSH1 0x12 PUSH1 0x20 MSTORE PUSH1 0x40 SWAP1 KECCAK256 SLOAD PUSH1 0x1 PUSH1 0x1 PUSH1 0xA0 SHL SUB AND DUP1 PUSH3 0xE50 JUMPI PUSH1 0x40 MLOAD PUSH4 0xDD23C3AD PUSH1 0xE0 SHL DUP2 MSTORE PUSH1 0x4 ADD PUSH3 0x65F SWAP1 PUSH3 0x15DA JUMP JUMPDEST PUSH1 0x40 MLOAD PUSH4 0x86A2CC27 PUSH1 0xE0 SHL DUP2 MSTORE PUSH1 0x4 DUP2 ADD DUP4 SWAP1 MSTORE PUSH1 0x1 PUSH1 0x1 PUSH1 0xA0 SHL SUB DUP3 AND SWAP1 PUSH4 0x86A2CC27 SWAP1 PUSH1 0x24 ADD PUSH1 0x0 PUSH1 0x40 MLOAD DUP1 DUP4 SUB DUP2 PUSH1 0x0 DUP8 DUP1 EXTCODESIZE ISZERO DUP1 ISZERO PUSH3 0xE93 JUMPI PUSH1 0x0 DUP1 REVERT JUMPDEST POP GAS CALL ISZERO DUP1 ISZERO PUSH3 0xEA8 JUMPI RETURNDATASIZE PUSH1 0x0 DUP1 RETURNDATACOPY RETURNDATASIZE PUSH1 0x0 REVERT JUMPDEST POP POP POP POP POP POP JUMP JUMPDEST PUSH1 0x0 SLOAD PUSH1 0x1 PUSH1 0xA0 SHL SWAP1 DIV PUSH1 0xFF AND ISZERO PUSH3 0xEDC JUMPI PUSH1 0x40 MLOAD PUSH4 0x4065AAF1 PUSH1 0xE1 SHL DUP2 MSTORE PUSH1 0x4 ADD PUSH1 0x40 MLOAD DUP1 SWAP2 SUB SWAP1 REVERT JUMPDEST CALLER PUSH1 0x0 SWAP1 DUP2 MSTORE PUSH1 0xF PUSH1 0x20 MSTORE PUSH1 0x40 SWAP1 KECCAK256 SLOAD PUSH1 0xFF AND ISZERO PUSH3 0xF0D JUMPI PUSH1 0x40 MLOAD PUSH3 0x1D9341 PUSH1 0xE1 SHL DUP2 MSTORE PUSH1 0x4 ADD PUSH1 0x40 MLOAD DUP1 SWAP2 SUB SWAP1 REVERT JUMPDEST PUSH1 0x5 SLOAD PUSH1 0xE SLOAD LT PUSH3 0xF32 JUMPI PUSH1 0x40 MLOAD PUSH4 0x8E8012DF PUSH1 0xE0 SHL DUP2 MSTORE PUSH1 0x4 ADD PUSH1 0x40 MLOAD DUP1 SWAP2 SUB SWAP1 REVERT JUMPDEST PUSH1 0x9 SLOAD ISZERO PUSH3 0x10A2 JUMPI PUSH1 0x3 SLOAD PUSH1 0x1 PUSH1 0x1 PUSH1 0xA0 SHL SUB AND PUSH3 0xF97 JUMPI PUSH1 0x9 SLOAD CALLVALUE EQ PUSH3 0xF91 JUMPI PUSH1 0x40 MLOAD PUSH4 0xDD23C3AD PUSH1 0xE0 SHL DUP2 MSTORE PUSH1 0x20 PUSH1 0x4 DUP3 ADD MSTORE PUSH1 0xE PUSH1 0x24 DUP3 ADD MSTORE PUSH14 0x6465706F736974206E6174697665 PUSH1 0x90 SHL PUSH1 0x44 DUP3 ADD MSTORE PUSH1 0x64 ADD PUSH3 0x65F JUMP JUMPDEST PUSH3 0x10A2 JUMP JUMPDEST CALLVALUE ISZERO PUSH3 0xFD8 JUMPI PUSH1 0x40 MLOAD PUSH4 0xDD23C3AD PUSH1 0xE0 SHL DUP2 MSTORE PUSH1 0x20 PUSH1 0x4 DUP3 ADD MSTORE PUSH1 0xD PUSH1 0x24 DUP3 ADD MSTORE PUSH13 0x6465706F73697420657263323 PUSH1 0x9C SHL PUSH1 0x44 DUP3 ADD MSTORE PUSH1 0x64 ADD PUSH3 0x65F JUMP JUMPDEST PUSH1 0x3 SLOAD PUSH1 0x9 SLOAD PUSH1 0x40 MLOAD PUSH4 0x23B872DD PUSH1 0xE0 SHL DUP2 MSTORE CALLER PUSH1 0x4 DUP3 ADD MSTORE ADDRESS PUSH1 0x24 DUP3 ADD MSTORE PUSH1 0x44 DUP2 ADD SWAP2 SWAP1 SWAP2 MSTORE PUSH1 0x0 SWAP2 PUSH1 0x1 PUSH1 0x1 PUSH1 0xA0 SHL SUB AND SWAP1 PUSH4 0x23B872DD SWAP1 PUSH1 0x64 ADD PUSH1 0x20 PUSH1 0x40 MLOAD DUP1 DUP4 SUB DUP2 PUSH1 0x0 DUP8 GAS CALL ISZERO DUP1 ISZERO PUSH3 0x1035 JUMPI RETURNDATASIZE PUSH1 0x0 DUP1 RETURNDATACOPY RETURNDATASIZE PUSH1 0x0 REVERT JUMPDEST POP POP POP POP PUSH1 0x40 MLOAD RETURNDATASIZE PUSH1 0x1F NOT PUSH1 0x1F DUP3 ADD AND DUP3 ADD DUP1 PUSH1 0x40 MSTORE POP DUP2 ADD SWAP1 PUSH3 0x105B SWAP2 SWAP1 PUSH3 0x15FC JUMP JUMPDEST SWAP1 POP DUP1 PUSH3 0x10A0 JUMPI PUSH1 0x40 MLOAD PUSH4 0xDD23C3AD PUSH1 0xE0 SHL DUP2 MSTORE PUSH1 0x20 PUSH1 0x4 DUP3 ADD MSTORE PUSH1 0x10 PUSH1 0x24 DUP3 ADD MSTORE PUSH16 0x3232B837B9B4BA103A3930B739B332B9 PUSH1 0x81 SHL PUSH1 0x44 DUP3 ADD MSTORE PUSH1 0x64 ADD PUSH3 0x65F JUMP JUMPDEST POP JUMPDEST CALLER PUSH1 0x0 DUP2 DUP2 MSTORE PUSH1 0xF PUSH1 0x20 MSTORE PUSH1 0x40 DUP1 DUP3 KECCAK256 DUP1 SLOAD PUSH1 0xFF NOT AND PUSH1 0x1 SWAP1 DUP2 OR SWAP1 SWAP2 SSTORE PUSH1 0xE DUP1 SLOAD SWAP2 DUP3 ADD DUP2 SSTORE DUP4 MSTORE PUSH32 0xBB7B4A454DC3493923482F07822329ED19E8244EFF582CC204F8554C3620C3FD ADD DUP1 SLOAD PUSH1 0x1 PUSH1 0x1 PUSH1 0xA0 SHL SUB NOT AND DUP5 OR SWAP1 SSTORE MLOAD PUSH32 0x7073AFA60B48E833A1A66EBB442BC8E0D19E9F3CC05F34BDCD1DA22C8D87F275 SWAP2 SWAP1 LOG2 JUMP JUMPDEST PUSH1 0x60 PUSH1 0xE DUP1 SLOAD DUP1 PUSH1 0x20 MUL PUSH1 0x20 ADD PUSH1 0x40 MLOAD SWAP1 DUP2 ADD PUSH1 0x40 MSTORE DUP1 SWAP3 SWAP2 SWAP1 DUP2 DUP2 MSTORE PUSH1 0x20 ADD DUP3 DUP1 SLOAD DUP1 ISZERO PUSH3 0x117E JUMPI PUSH1 0x20 MUL DUP3 ADD SWAP2 SWAP1 PUSH1 0x0 MSTORE PUSH1 0x20 PUSH1 0x0 KECCAK256 SWAP1 JUMPDEST DUP2 SLOAD PUSH1 0x1 PUSH1 0x1 PUSH1 0xA0 SHL SUB AND DUP2 MSTORE PUSH1 0x1 SWAP1 SWAP2 ADD SWAP1 PUSH1 0x20 ADD DUP1 DUP4 GT PUSH3 0x115F JUMPI JUMPDEST POP POP POP POP POP SWAP1 POP SWAP1 JUMP JUMPDEST PUSH1 0x2 SLOAD PUSH1 0x1 PUSH1 0x1 PUSH1 0xA0 SHL SUB AND CALLER EQ PUSH3 0x11B3 JUMPI PUSH1 0x40 MLOAD PUSH3 0x82B429 PUSH1 0xE8 SHL DUP2 MSTORE PUSH1 0x4 ADD PUSH1 0x40 MLOAD DUP1 SWAP2 SUB SWAP1 REVERT JUMPDEST PUSH1 0x10 SLOAD PUSH1 0x0 SWAP1 DUP2 MSTORE PUSH1 0x12 PUSH1 0x20 MSTORE PUSH1 0x40 SWAP1 KECCAK256 SLOAD PUSH1 0x1 PUSH1 0x1 PUSH1 0xA0 SHL SUB AND DUP1 PUSH3 0x11EF JUMPI PUSH1 0x40 MLOAD PUSH4 0xDD23C3AD PUSH1 0xE0 SHL DUP2 MSTORE PUSH1 0x4 ADD PUSH3 0x65F SWAP1 PUSH3 0x15DA JUMP JUMPDEST PUSH1 0x0 DUP1 DUP3 PUSH1 0x1 PUSH1 0x1 PUSH1 0xA0 SHL SUB AND PUSH4 0x4BB278F3 PUSH1 0x40 MLOAD DUP2 PUSH4 0xFFFFFFFF AND PUSH1 0xE0 SHL DUP2 MSTORE PUSH1 0x4 ADD PUSH1 0x40 DUP1 MLOAD DUP1 DUP4 SUB DUP2 PUSH1 0x0 DUP8 GAS CALL ISZERO DUP1 ISZERO PUSH3 0x1232 JUMPI RETURNDATASIZE PUSH1 0x0 DUP1 RETURNDATACOPY RETURNDATASIZE PUSH1 0x0 REVERT JUMPDEST POP POP POP POP PUSH1 0x40 MLOAD RETURNDATASIZE PUSH1 0x1F NOT PUSH1 0x1F DUP3 ADD AND DUP3 ADD DUP1 PUSH1 0x40 MSTORE POP DUP2 ADD SWAP1 PUSH3 0x1258 SWAP2 SWAP1 PUSH3 0x1620 JUMP JUMPDEST PUSH1 0x10 SLOAD PUSH1 0x0 SWAP1 DUP2 MSTORE PUSH1 0x11 PUSH1 0x20 MSTORE PUSH1 0x40 SWAP1 KECCAK256 DUP1 SLOAD PUSH1 0x1 PUSH1 0x1 PUSH1 0xA0 SHL SUB NOT AND PUSH1 0x1 PUSH1 0x1 PUSH1 0xA0 SHL SUB DUP5 DUP2 AND SWAP2 SWAP1 SWAP2 OR SWAP1 SWAP2 SSTORE PUSH1 0xD SLOAD SWAP3 SWAP5 POP SWAP1 SWAP3 POP AND ISZERO DUP1 ISZERO SWAP1 PUSH3 0x12A8 JUMPI POP PUSH1 0x1 PUSH1 0x1 PUSH1 0xA0 SHL SUB DUP3 AND ISZERO ISZERO JUMPDEST ISZERO PUSH3 0x1317 JUMPI PUSH1 0xD SLOAD PUSH1 0x40 MLOAD PUSH4 0xA0895F5 PUSH1 0xE2 SHL DUP2 MSTORE PUSH1 0x1 PUSH1 0x1 PUSH1 0xA0 SHL SUB DUP5 DUP2 AND PUSH1 0x4 DUP4 ADD MSTORE PUSH1 0x24 DUP3 ADD DUP5 SWAP1 MSTORE SWAP1 SWAP2 AND SWAP1 PUSH4 0x282257D4 SWAP1 PUSH1 0x44 ADD PUSH1 0x0 PUSH1 0x40 MLOAD DUP1 DUP4 SUB DUP2 PUSH1 0x0 DUP8 DUP1 EXTCODESIZE ISZERO DUP1 ISZERO PUSH3 0x12FD JUMPI PUSH1 0x0 DUP1 REVERT JUMPDEST POP GAS CALL ISZERO DUP1 ISZERO PUSH3 0x1312 JUMPI RETURNDATASIZE PUSH1 0x0 DUP1 RETURNDATACOPY RETURNDATASIZE PUSH1 0x0 REVERT JUMPDEST POP POP POP POP JUMPDEST DUP2 PUSH1 0x1 PUSH1 0x1 PUSH1 0xA0 SHL SUB AND PUSH1 0x10 SLOAD PUSH32 0xFEE5B04775E1CD2311ED22CD00F5D2403AFF38FF6F71D6D393F51854ED6BC986 DUP4 PUSH1 0x40 MLOAD PUSH3 0x967 SWAP2 DUP2 MSTORE PUSH1 0x20 ADD SWAP1 JUMP JUMPDEST PUSH1 0x0 SLOAD PUSH1 0x1 PUSH1 0x1 PUSH1 0xA0 SHL SUB AND CALLER EQ PUSH3 0x1381 JUMPI PUSH1 0x40 MLOAD PUSH3 0x82B429 PUSH1 0xE8 SHL DUP2 MSTORE PUSH1 0x4 ADD PUSH1 0x40 MLOAD DUP1 SWAP2 SUB SWAP1 REVERT JUMPDEST PUSH1 0x1 PUSH1 0x1 PUSH1 0xA0 SHL SUB DUP2 AND PUSH3 0x13C7 JUMPI PUSH1 0x40 MLOAD PUSH4 0xDD23C3AD PUSH1 0xE0 SHL DUP2 MSTORE PUSH1 0x20 PUSH1 0x4 DUP3 ADD MSTORE PUSH1 0xA PUSH1 0x24 DUP3 ADD MSTORE PUSH10 0x3D32B9379037BBB732B9 PUSH1 0xB1 SHL PUSH1 0x44 DUP3 ADD MSTORE PUSH1 0x64 ADD PUSH3 0x65F JUMP JUMPDEST PUSH1 0x0 DUP1 SLOAD PUSH1 0x40 MLOAD PUSH1 0x1 PUSH1 0x1 PUSH1 0xA0 SHL SUB DUP1 DUP6 AND SWAP4 SWAP3 AND SWAP2 PUSH32 0x8BE0079C531659141344CD1FD0A4F28419497F9722A3DAAFE3B4186F6B6457E0 SWAP2 LOG3 PUSH1 0x0 DUP1 SLOAD PUSH1 0x1 PUSH1 0x1 PUSH1 0xA0 SHL SUB NOT AND PUSH1 0x1 PUSH1 0x1 PUSH1 0xA0 SHL SUB SWAP3 SWAP1 SWAP3 AND SWAP2 SWAP1 SWAP2 OR SWAP1 SSTORE JUMP JUMPDEST PUSH2 0x811 DUP1 PUSH3 0x1652 DUP4 CODECOPY ADD SWAP1 JUMP JUMPDEST PUSH4 0x4E487B71 PUSH1 0xE0 SHL PUSH1 0x0 MSTORE PUSH1 0x21 PUSH1 0x4 MSTORE PUSH1 0x24 PUSH1 0x0 REVERT JUMPDEST PUSH1 0x20 DUP2 ADD PUSH1 0x4 DUP4 LT PUSH3 0x1469 JUMPI PUSH4 0x4E487B71 PUSH1 0xE0 SHL PUSH1 0x0 MSTORE PUSH1 0x21 PUSH1 0x4 MSTORE PUSH1 0x24 PUSH1 0x0 REVERT JUMPDEST SWAP2 SWAP1 MSTORE SWAP1 JUMP JUMPDEST PUSH1 0x0 PUSH1 0x20 DUP3 DUP5 SUB SLT ISZERO PUSH3 0x1482 JUMPI PUSH1 0x0 DUP1 REVERT JUMPDEST POP CALLDATALOAD SWAP2 SWAP1 POP JUMP JUMPDEST PUSH1 0x0 DUP1 PUSH1 0x40 DUP4 DUP6 SUB SLT ISZERO PUSH3 0x149D JUMPI PUSH1 0x0 DUP1 REVERT JUMPDEST POP POP DUP1 CALLDATALOAD SWAP3 PUSH1 0x20 SWAP1 SWAP2 ADD CALLDATALOAD SWAP2 POP JUMP JUMPDEST PUSH1 0x20 DUP1 DUP3 MSTORE DUP3 MLOAD DUP3 DUP3 ADD DUP2 SWAP1 MSTORE PUSH1 0x0 SWAP2 SWAP1 DUP5 DUP3 ADD SWAP1 PUSH1 0x40 DUP6 ADD SWAP1 DUP5 JUMPDEST DUP2 DUP2 LT ISZERO PUSH3 0x14EF JUMPI DUP4 MLOAD PUSH1 0x1 PUSH1 0x1 PUSH1 0xA0 SHL SUB AND DUP4 MSTORE SWAP3 DUP5 ADD SWAP3 SWAP2 DUP5 ADD SWAP2 PUSH1 0x1 ADD PUSH3 0x14C8 JUMP JUMPDEST POP SWAP1 SWAP7 SWAP6 POP POP POP POP POP POP JUMP JUMPDEST PUSH1 0x1 PUSH1 0x1 PUSH1 0xA0 SHL SUB DUP2 AND DUP2 EQ PUSH3 0x1511 JUMPI PUSH1 0x0 DUP1 REVERT JUMPDEST POP JUMP JUMPDEST PUSH1 0x0 PUSH1 0x20 DUP3 DUP5 SUB SLT ISZERO PUSH3 0x1527 JUMPI PUSH1 0x0 DUP1 REVERT JUMPDEST DUP2 CALLDATALOAD PUSH3 0x1534 DUP2 PUSH3 0x14FB JUMP JUMPDEST SWAP4 SWAP3 POP POP POP JUMP JUMPDEST PUSH4 0x4E487B71 PUSH1 0xE0 SHL PUSH1 0x0 MSTORE PUSH1 0x11 PUSH1 0x4 MSTORE PUSH1 0x24 PUSH1 0x0 REVERT JUMPDEST DUP1 DUP3 MUL DUP2 ISZERO DUP3 DUP3 DIV DUP5 EQ OR PUSH3 0x156B JUMPI PUSH3 0x156B PUSH3 0x153B JUMP JUMPDEST SWAP3 SWAP2 POP POP JUMP JUMPDEST DUP1 DUP3 ADD DUP1 DUP3 GT ISZERO PUSH3 0x156B JUMPI PUSH3 0x156B PUSH3 0x153B JUMP JUMPDEST PUSH1 0x0 PUSH1 0x20 DUP3 DUP5 SUB SLT ISZERO PUSH3 0x159A JUMPI PUSH1 0x0 DUP1 REVERT JUMPDEST POP MLOAD SWAP2 SWAP1 POP JUMP JUMPDEST PUSH1 0x0 DUP3 PUSH3 0x15BF JUMPI PUSH4 0x4E487B71 PUSH1 0xE0 SHL PUSH1 0x0 MSTORE PUSH1 0x12 PUSH1 0x4 MSTORE PUSH1 0x24 PUSH1 0x0 REVERT JUMPDEST POP DIV SWAP1 JUMP JUMPDEST DUP2 DUP2 SUB DUP2 DUP2 GT ISZERO PUSH3 0x156B JUMPI PUSH3 0x156B PUSH3 0x153B JUMP JUMPDEST PUSH1 0x20 DUP1 DUP3 MSTORE PUSH1 0x8 SWAP1 DUP3 ADD MSTORE PUSH8 0x6E6F206379636C65 PUSH1 0xC0 SHL PUSH1 0x40 DUP3 ADD MSTORE PUSH1 0x60 ADD SWAP1 JUMP JUMPDEST PUSH1 0x0 PUSH1 0x20 DUP3 DUP5 SUB SLT ISZERO PUSH3 0x160F JUMPI PUSH1 0x0 DUP1 REVERT JUMPDEST DUP2 MLOAD DUP1 ISZERO ISZERO DUP2 EQ PUSH3 0x1534 JUMPI PUSH1 0x0 DUP1 REVERT JUMPDEST PUSH1 0x0 DUP1 PUSH1 0x40 DUP4 DUP6 SUB SLT ISZERO PUSH3 0x1634 JUMPI PUSH1 0x0 DUP1 REVERT JUMPDEST DUP3 MLOAD PUSH3 0x1641 DUP2 PUSH3 0x14FB JUMP JUMPDEST PUSH1 0x20 SWAP4 SWAP1 SWAP4 ADD MLOAD SWAP3 SWAP5 SWAP3 SWAP4 POP POP POP JUMP INVALID PUSH1 0xA0 PUSH1 0x40 MSTORE CALLVALUE DUP1 ISZERO PUSH2 0x10 JUMPI PUSH1 0x0 DUP1 REVERT JUMPDEST POP PUSH1 0x40 MLOAD PUSH2 0x811 CODESIZE SUB DUP1 PUSH2 0x811 DUP4 CODECOPY DUP2 ADD PUSH1 0x40 DUP2 SWAP1 MSTORE PUSH2 0x2F SWAP2 PUSH2 0xA3 JUMP JUMPDEST DUP3 ISZERO DUP1 PUSH2 0x3A JUMPI POP DUP2 ISZERO JUMPDEST ISZERO PUSH2 0x72 JUMPI PUSH1 0x40 MLOAD PUSH4 0xDD23C3AD PUSH1 0xE0 SHL DUP2 MSTORE PUSH1 0x20 PUSH1 0x4 DUP3 ADD MSTORE PUSH1 0x3 PUSH1 0x24 DUP3 ADD MSTORE PUSH3 0x323AB9 PUSH1 0xE9 SHL PUSH1 0x44 DUP3 ADD MSTORE PUSH1 0x64 ADD PUSH1 0x40 MLOAD DUP1 SWAP2 SUB SWAP1 REVERT JUMPDEST PUSH2 0x7C DUP4 TIMESTAMP PUSH2 0xE9 JUMP JUMPDEST PUSH1 0x1 DUP2 SWAP1 SSTORE PUSH2 0x8C SWAP1 DUP4 SWAP1 PUSH2 0xE9 JUMP JUMPDEST PUSH1 0x2 SSTORE PUSH1 0x1 PUSH1 0x1 PUSH1 0xA0 SHL SUB AND PUSH1 0x80 MSTORE POP PUSH2 0x110 SWAP1 POP JUMP JUMPDEST PUSH1 0x0 DUP1 PUSH1 0x0 PUSH1 0x60 DUP5 DUP7 SUB SLT ISZERO PUSH2 0xB8 JUMPI PUSH1 0x0 DUP1 REVERT JUMPDEST DUP4 MLOAD PUSH1 0x20 DUP6 ADD MLOAD PUSH1 0x40 DUP7 ADD MLOAD SWAP2 SWAP5 POP SWAP3 POP PUSH1 0x1 PUSH1 0x1 PUSH1 0xA0 SHL SUB DUP2 AND DUP2 EQ PUSH2 0xDE JUMPI PUSH1 0x0 DUP1 REVERT JUMPDEST DUP1 SWAP2 POP POP SWAP3 POP SWAP3 POP SWAP3 JUMP JUMPDEST DUP1 DUP3 ADD DUP1 DUP3 GT ISZERO PUSH2 0x10A JUMPI PUSH4 0x4E487B71 PUSH1 0xE0 SHL PUSH1 0x0 MSTORE PUSH1 0x11 PUSH1 0x4 MSTORE PUSH1 0x24 PUSH1 0x0 REVERT JUMPDEST SWAP3 SWAP2 POP POP JUMP JUMPDEST PUSH1 0x80 MLOAD PUSH2 0x6E0 PUSH2 0x131 PUSH1 0x0 CODECOPY PUSH1 0x0 DUP2 DUP2 PUSH1 0xB3 ADD MSTORE PUSH2 0x202 ADD MSTORE PUSH2 0x6E0 PUSH1 0x0 RETURN INVALID PUSH1 0x80 PUSH1 0x40 MSTORE CALLVALUE DUP1 ISZERO PUSH2 0x10 JUMPI PUSH1 0x0 DUP1 REVERT JUMPDEST POP PUSH1 0x4 CALLDATASIZE LT PUSH2 0xA9 JUMPI PUSH1 0x0 CALLDATALOAD PUSH1 0xE0 SHR DUP1 PUSH4 0x86A2CC27 GT PUSH2 0x71 JUMPI DUP1 PUSH4 0x86A2CC27 EQ PUSH2 0x194 JUMPI DUP1 PUSH4 0x98F22C12 EQ PUSH2 0x1A7 JUMPI DUP1 PUSH4 0xA6E66477 EQ PUSH2 0x1B0 JUMPI DUP1 PUSH4 0xB1C9FE6E EQ PUSH2 0x1B9 JUMPI DUP1 PUSH4 0xCFF29DFD EQ PUSH2 0x1CE JUMPI DUP1 PUSH4 0xDFBF53AE EQ PUSH2 0x1E1 JUMPI PUSH1 0x0 DUP1 REVERT JUMPDEST DUP1 PUSH4 0x29E7EF2D EQ PUSH2 0xAE JUMPI DUP1 PUSH4 0x3EEE4E27 EQ PUSH2 0xF2 JUMPI DUP1 PUSH4 0x4BB278F3 EQ PUSH2 0x109 JUMPI DUP1 PUSH4 0x62C5424A EQ PUSH2 0x130 JUMPI DUP1 PUSH4 0x62EA82DB EQ PUSH2 0x145 JUMPI JUMPDEST PUSH1 0x0 DUP1 REVERT JUMPDEST PUSH2 0xD5 PUSH32 0x0 DUP2 JUMP JUMPDEST PUSH1 0x40 MLOAD PUSH1 0x1 PUSH1 0x1 PUSH1 0xA0 SHL SUB SWAP1 SWAP2 AND DUP2 MSTORE PUSH1 0x20 ADD JUMPDEST PUSH1 0x40 MLOAD DUP1 SWAP2 SUB SWAP1 RETURN JUMPDEST PUSH2 0xFB PUSH1 0x1 SLOAD DUP2 JUMP JUMPDEST PUSH1 0x40 MLOAD SWAP1 DUP2 MSTORE PUSH1 0x20 ADD PUSH2 0xE9 JUMP JUMPDEST PUSH2 0x111 PUSH2 0x1F4 JUMP JUMPDEST PUSH1 0x40 DUP1 MLOAD PUSH1 0x1 PUSH1 0x1 PUSH1 0xA0 SHL SUB SWAP1 SWAP4 AND DUP4 MSTORE PUSH1 0x20 DUP4 ADD SWAP2 SWAP1 SWAP2 MSTORE ADD PUSH2 0xE9 JUMP JUMPDEST PUSH2 0x143 PUSH2 0x13E CALLDATASIZE PUSH1 0x4 PUSH2 0x601 JUMP JUMPDEST PUSH2 0x2F5 JUMP JUMPDEST STOP JUMPDEST PUSH2 0x177 PUSH2 0x153 CALLDATASIZE PUSH1 0x4 PUSH2 0x623 JUMP JUMPDEST PUSH1 0x3 PUSH1 0x20 MSTORE PUSH1 0x0 SWAP1 DUP2 MSTORE PUSH1 0x40 SWAP1 KECCAK256 DUP1 SLOAD PUSH1 0x1 DUP3 ADD SLOAD PUSH1 0x2 SWAP1 SWAP3 ADD SLOAD SWAP1 SWAP2 SWAP1 PUSH1 0xFF AND DUP4 JUMP JUMPDEST PUSH1 0x40 DUP1 MLOAD SWAP4 DUP5 MSTORE PUSH1 0x20 DUP5 ADD SWAP3 SWAP1 SWAP3 MSTORE ISZERO ISZERO SWAP1 DUP3 ADD MSTORE PUSH1 0x60 ADD PUSH2 0xE9 JUMP JUMPDEST PUSH2 0x143 PUSH2 0x1A2 CALLDATASIZE PUSH1 0x4 PUSH2 0x653 JUMP JUMPDEST PUSH2 0x4B2 JUMP JUMPDEST PUSH2 0xFB PUSH1 0x6 SLOAD DUP2 JUMP JUMPDEST PUSH2 0xFB PUSH1 0x2 SLOAD DUP2 JUMP JUMPDEST PUSH2 0x1C1 PUSH2 0x5B1 JUMP JUMPDEST PUSH1 0x40 MLOAD PUSH2 0xE9 SWAP2 SWAP1 PUSH2 0x682 JUMP JUMPDEST PUSH2 0xD5 PUSH2 0x1DC CALLDATASIZE PUSH1 0x4 PUSH2 0x653 JUMP JUMPDEST PUSH2 0x5D7 JUMP JUMPDEST PUSH1 0x5 SLOAD PUSH2 0xD5 SWAP1 PUSH1 0x1 PUSH1 0x1 PUSH1 0xA0 SHL SUB AND DUP2 JUMP JUMPDEST PUSH1 0x0 DUP1 CALLER PUSH1 0x1 PUSH1 0x1 PUSH1 0xA0 SHL SUB PUSH32 0x0 AND EQ PUSH2 0x261 JUMPI PUSH1 0x40 MLOAD PUSH4 0xDD23C3AD PUSH1 0xE0 SHL DUP2 MSTORE PUSH1 0x20 PUSH1 0x4 DUP3 ADD MSTORE PUSH1 0x9 PUSH1 0x24 DUP3 ADD MSTORE PUSH9 0x6E6F742067726F757 PUSH1 0xBC SHL PUSH1 0x44 DUP3 ADD MSTORE PUSH1 0x64 ADD JUMPDEST PUSH1 0x40 MLOAD DUP1 SWAP2 SUB SWAP1 REVERT JUMPDEST PUSH1 0x2 PUSH2 0x26B PUSH2 0x5B1 JUMP JUMPDEST PUSH1 0x2 DUP2 GT ISZERO PUSH2 0x27C JUMPI PUSH2 0x27C PUSH2 0x66C JUMP JUMPDEST EQ PUSH2 0x29A JUMPI PUSH1 0x40 MLOAD PUSH4 0x85DE625 PUSH1 0xE0 SHL DUP2 MSTORE PUSH1 0x4 ADD PUSH1 0x40 MLOAD DUP1 SWAP2 SUB SWAP1 REVERT JUMPDEST PUSH1 0x5 SLOAD PUSH1 0x6 SLOAD PUSH1 0x40 MLOAD SWAP1 DUP2 MSTORE PUSH1 0x1 PUSH1 0x1 PUSH1 0xA0 SHL SUB SWAP1 SWAP2 AND SWAP1 PUSH32 0x75060F9E79552DF167B73353FEE6237A75BB5BA8EA022F77224E32F152138BCB SWAP1 PUSH1 0x20 ADD PUSH1 0x40 MLOAD DUP1 SWAP2 SUB SWAP1 LOG2 POP POP PUSH1 0x5 SLOAD PUSH1 0x6 SLOAD PUSH1 0x1 PUSH1 0x1 PUSH1 0xA0 SHL SUB SWAP1 SWAP2 AND SWAP2 JUMP JUMPDEST PUSH1 0x1 PUSH2 0x2FF PUSH2 0x5B1 JUMP JUMPDEST PUSH1 0x2 DUP2 GT ISZERO PUSH2 0x310 JUMPI PUSH2 0x310 PUSH2 0x66C JUMP JUMPDEST EQ PUSH2 0x32E JUMPI PUSH1 0x40 MLOAD PUSH4 0xDCFC89B PUSH1 0xE2 SHL DUP2 MSTORE PUSH1 0x4 ADD PUSH1 0x40 MLOAD DUP1 SWAP2 SUB SWAP1 REVERT JUMPDEST CALLER PUSH1 0x0 SWAP1 DUP2 MSTORE PUSH1 0x3 PUSH1 0x20 MSTORE PUSH1 0x40 SWAP1 KECCAK256 DUP1 SLOAD PUSH2 0x378 JUMPI PUSH1 0x40 MLOAD PUSH4 0xDD23C3AD PUSH1 0xE0 SHL DUP2 MSTORE PUSH1 0x20 PUSH1 0x4 DUP3 ADD MSTORE PUSH1 0x9 PUSH1 0x24 DUP3 ADD MSTORE PUSH9 0x1B9BC818DBDB5B5A5D PUSH1 0xBA SHL PUSH1 0x44 DUP3 ADD MSTORE PUSH1 0x64 ADD PUSH2 0x258 JUMP JUMPDEST PUSH1 0x2 DUP2 ADD SLOAD PUSH1 0xFF AND ISZERO PUSH2 0x3C1 JUMPI PUSH1 0x40 MLOAD PUSH4 0xDD23C3AD PUSH1 0xE0 SHL DUP2 MSTORE PUSH1 0x20 PUSH1 0x4 DUP3 ADD MSTORE PUSH1 0x10 PUSH1 0x24 DUP3 ADD MSTORE PUSH16 0x185B1C9958591E481C995D99585B1959 PUSH1 0x82 SHL PUSH1 0x44 DUP3 ADD MSTORE PUSH1 0x64 ADD PUSH2 0x258 JUMP JUMPDEST DUP1 SLOAD PUSH1 0x40 DUP1 MLOAD PUSH1 0x20 DUP2 ADD DUP7 SWAP1 MSTORE SWAP1 DUP2 ADD DUP5 SWAP1 MSTORE PUSH1 0x60 ADD PUSH1 0x40 MLOAD PUSH1 0x20 DUP2 DUP4 SUB SUB DUP2 MSTORE SWAP1 PUSH1 0x40 MSTORE DUP1 MLOAD SWAP1 PUSH1 0x20 ADD KECCAK256 EQ PUSH2 0x42B JUMPI PUSH1 0x40 MLOAD PUSH4 0xDD23C3AD PUSH1 0xE0 SHL DUP2 MSTORE PUSH1 0x20 PUSH1 0x4 DUP3 ADD MSTORE PUSH1 0xD PUSH1 0x24 DUP3 ADD MSTORE PUSH13 0xD0C2E6D040DAD2E6DAC2E8C6D PUSH1 0x9B SHL PUSH1 0x44 DUP3 ADD MSTORE PUSH1 0x64 ADD PUSH2 0x258 JUMP JUMPDEST PUSH1 0x2 DUP2 ADD DUP1 SLOAD PUSH1 0xFF NOT AND PUSH1 0x1 SWAP1 DUP2 OR SWAP1 SWAP2 SSTORE DUP2 ADD DUP4 SWAP1 SSTORE PUSH1 0x5 SLOAD PUSH1 0x1 PUSH1 0x1 PUSH1 0xA0 SHL SUB AND ISZERO DUP1 PUSH2 0x45B JUMPI POP PUSH1 0x6 SLOAD DUP4 LT JUMPDEST ISZERO PUSH2 0x478 JUMPI PUSH1 0x5 DUP1 SLOAD PUSH1 0x1 PUSH1 0x1 PUSH1 0xA0 SHL SUB NOT AND CALLER OR SWAP1 SSTORE PUSH1 0x6 DUP4 SWAP1 SSTORE JUMPDEST PUSH1 0x40 MLOAD DUP4 DUP2 MSTORE CALLER SWAP1 PUSH32 0x9891BD98143D5A2C5F29BE9A7EF8E5D7B723746FB3B75220234AF7AA6CAEECFE SWAP1 PUSH1 0x20 ADD PUSH1 0x40 MLOAD DUP1 SWAP2 SUB SWAP1 LOG2 POP POP POP JUMP JUMPDEST PUSH1 0x0 PUSH2 0x4BC PUSH2 0x5B1 JUMP JUMPDEST PUSH1 0x2 DUP2 GT ISZERO PUSH2 0x4CD JUMPI PUSH2 0x4CD PUSH2 0x66C JUMP JUMPDEST EQ PUSH2 0x4EB JUMPI PUSH1 0x40 MLOAD PUSH4 0xDCFC89B PUSH1 0xE2 SHL DUP2 MSTORE PUSH1 0x4 ADD PUSH1 0x40 MLOAD DUP1 SWAP2 SUB SWAP1 REVERT JUMPDEST CALLER PUSH1 0x0 SWAP1 DUP2 MSTORE PUSH1 0x3 PUSH1 0x20 MSTORE PUSH1 0x40 SWAP1 KECCAK256 DUP1 SLOAD ISZERO PUSH2 0x53E JUMPI PUSH1 0x40 MLOAD PUSH4 0xDD23C3AD PUSH1 0xE0 SHL DUP2 MSTORE PUSH1 0x20 PUSH1 0x4 DUP3 ADD MSTORE PUSH1 0x11 PUSH1 0x24 DUP3 ADD MSTORE PUSH17 0x185B1C9958591E4818DBDB5B5A5D1D1959 PUSH1 0x7A SHL PUSH1 0x44 DUP3 ADD MSTORE PUSH1 0x64 ADD PUSH2 0x258 JUMP JUMPDEST DUP2 DUP2 SSTORE PUSH1 0x4 DUP1 SLOAD PUSH1 0x1 DUP2 ADD DUP3 SSTORE PUSH1 0x0 SWAP2 DUP3 MSTORE PUSH32 0x8A35ACFBC15FF81A39AE7D344FD709F28E8600B4AA8C65C6B64BFE7FE36BD19B ADD DUP1 SLOAD PUSH1 0x1 PUSH1 0x1 PUSH1 0xA0 SHL SUB NOT AND CALLER SWAP1 DUP2 OR SWAP1 SWAP2 SSTORE PUSH1 0x40 MLOAD SWAP1 SWAP2 PUSH32 0x1D6553F42A4A0F09F1D41C128C54B2C8503AFD4C1A765B25C42E3D054CE862EE SWAP2 LOG2 POP POP JUMP JUMPDEST PUSH1 0x0 PUSH1 0x1 SLOAD TIMESTAMP GT PUSH2 0x5C2 JUMPI POP PUSH1 0x0 SWAP1 JUMP JUMPDEST PUSH1 0x2 SLOAD TIMESTAMP GT PUSH2 0x5D1 JUMPI POP PUSH1 0x1 SWAP1 JUMP JUMPDEST POP PUSH1 0x2 SWAP1 JUMP JUMPDEST PUSH1 0x4 DUP2 DUP2 SLOAD DUP2 LT PUSH2 0x5E7 JUMPI PUSH1 0x0 DUP1 REVERT JUMPDEST PUSH1 0x0 SWAP2 DUP3 MSTORE PUSH1 0x20 SWAP1 SWAP2 KECCAK256 ADD SLOAD PUSH1 0x1 PUSH1 0x1 PUSH1 0xA0 SHL SUB AND SWAP1 POP DUP2 JUMP JUMPDEST PUSH1 0x0 DUP1 PUSH1 0x40 DUP4 DUP6 SUB SLT ISZERO PUSH2 0x614 JUMPI PUSH1 0x0 DUP1 REVERT JUMPDEST POP POP DUP1 CALLDATALOAD SWAP3 PUSH1 0x20 SWAP1 SWAP2 ADD CALLDATALOAD SWAP2 POP JUMP JUMPDEST PUSH1 0x0 PUSH1 0x20 DUP3 DUP5 SUB SLT ISZERO PUSH2 0x635 JUMPI PUSH1 0x0 DUP1 REVERT JUMPDEST DUP2 CALLDATALOAD PUSH1 0x1 PUSH1 0x1 PUSH1 0xA0 SHL SUB DUP2 AND DUP2 EQ PUSH2 0x64C JUMPI PUSH1 0x0 DUP1 REVERT JUMPDEST SWAP4 SWAP3 POP POP POP JUMP JUMPDEST PUSH1 0x0 PUSH1 0x20 DUP3 DUP5 SUB SLT ISZERO PUSH2 0x665 JUMPI PUSH1 0x0 DUP1 REVERT JUMPDEST POP CALLDATALOAD SWAP2 SWAP1 POP JUMP JUMPDEST PUSH4 0x4E487B71 PUSH1 0xE0 SHL PUSH1 0x0 MSTORE PUSH1 0x21 PUSH1 0x4 MSTORE PUSH1 0x24 PUSH1 0x0 REVERT JUMPDEST PUSH1 0x20 DUP2 ADD PUSH1 0x3 DUP4 LT PUSH2 0x6A4 JUMPI PUSH4 0x4E487B71 PUSH1 0xE0 SHL PUSH1 0x0 MSTORE PUSH1 0x21 PUSH1 0x4 MSTORE PUSH1 0x24 PUSH1 0x0 REVERT JUMPDEST SWAP2 SWAP1 MSTORE SWAP1 JUMP INVALID LOG2 PUSH5 0x6970667358 0x22 SLT KECCAK256 SWAP15 0xA5 LOG3 0x2C LOG3 GAS POP SWAP13 PUSH22 0xA161EE3ABFAAD84E380F0234467A9BDABA3A8EB462E8 0xD5 PUSH5 0x736F6C6343 STOP ADDMOD XOR STOP CALLER LOG2 PUSH5 0x6970667358 0x22 SLT KECCAK256 0xC4 CODECOPY BALANCE 0xC4 CALLDATASIZE 0xE1 0xC9 GASPRICE EXTCODESIZE PUSH17 0xB4844BA7ADD4D121CB3EC175EA68ECC203 0x21 0xD3 STOP PUSH19 0xC864736F6C6343000818003360C06040523480 ISZERO PUSH2 0x10 JUMPI PUSH1 0x0 DUP1 REVERT JUMPDEST POP PUSH1 0x40 MLOAD PUSH2 0xA84 CODESIZE SUB DUP1 PUSH2 0xA84 DUP4 CODECOPY DUP2 ADD PUSH1 0x40 DUP2 SWAP1 MSTORE PUSH2 0x2F SWAP2 PUSH2 0x62 JUMP JUMPDEST PUSH1 0x1 PUSH1 0x1 PUSH1 0xA0 SHL SUB SWAP2 DUP3 AND PUSH1 0xA0 MSTORE AND PUSH1 0x80 MSTORE PUSH2 0x95 JUMP JUMPDEST DUP1 MLOAD PUSH1 0x1 PUSH1 0x1 PUSH1 0xA0 SHL SUB DUP2 AND DUP2 EQ PUSH2 0x5D JUMPI PUSH1 0x0 DUP1 REVERT JUMPDEST SWAP2 SWAP1 POP JUMP JUMPDEST PUSH1 0x0 DUP1 PUSH1 0x40 DUP4 DUP6 SUB SLT ISZERO PUSH2 0x75 JUMPI PUSH1 0x0 DUP1 REVERT JUMPDEST PUSH2 0x7E DUP4 PUSH2 0x46 JUMP JUMPDEST SWAP2 POP PUSH2 0x8C PUSH1 0x20 DUP5 ADD PUSH2 0x46 JUMP JUMPDEST SWAP1 POP SWAP3 POP SWAP3 SWAP1 POP JUMP JUMPDEST PUSH1 0x80 MLOAD PUSH1 0xA0 MLOAD PUSH2 0x993 PUSH2 0xF1 PUSH1 0x0 CODECOPY PUSH1 0x0 DUP2 DUP2 PUSH2 0x1AB ADD MSTORE DUP2 DUP2 PUSH2 0x260 ADD MSTORE DUP2 DUP2 PUSH2 0x32F ADD MSTORE DUP2 DUP2 PUSH2 0x3F1 ADD MSTORE DUP2 DUP2 PUSH2 0x4C9 ADD MSTORE DUP2 DUP2 PUSH2 0x67E ADD MSTORE PUSH2 0x74D ADD MSTORE PUSH1 0x0 DUP2 DUP2 PUSH1 0x92 ADD MSTORE DUP2 DUP2 PUSH2 0x1D8 ADD MSTORE PUSH2 0x5FB ADD MSTORE PUSH2 0x993 PUSH1 0x0 RETURN INVALID PUSH1 0x80 PUSH1 0x40 MSTORE PUSH1 0x4 CALLDATASIZE LT PUSH2 0x74 JUMPI PUSH1 0x0 CALLDATALOAD PUSH1 0xE0 SHR DUP1 PUSH4 0x6EA056A9 GT PUSH2 0x4E JUMPI DUP1 PUSH4 0x6EA056A9 EQ PUSH2 0x144 JUMPI DUP1 PUSH4 0x8C590917 EQ PUSH2 0x166 JUMPI DUP1 PUSH4 0xAE2F5D93 EQ PUSH2 0x179 JUMPI DUP1 PUSH4 0xE5A6B10F EQ PUSH2 0x199 JUMPI PUSH1 0x0 DUP1 REVERT JUMPDEST DUP1 PUSH4 0x29E7EF2D EQ PUSH2 0x80 JUMPI DUP1 PUSH4 0x50D7E93D EQ PUSH2 0xD1 JUMPI DUP1 PUSH4 0x5E7EA033 EQ PUSH2 0x117 JUMPI PUSH1 0x0 DUP1 REVERT JUMPDEST CALLDATASIZE PUSH2 0x7B JUMPI STOP JUMPDEST PUSH1 0x0 DUP1 REVERT JUMPDEST CALLVALUE DUP1 ISZERO PUSH2 0x8C JUMPI PUSH1 0x0 DUP1 REVERT JUMPDEST POP PUSH2 0xB4 PUSH32 0x0 DUP2 JUMP JUMPDEST PUSH1 0x40 MLOAD PUSH1 0x1 PUSH1 0x1 PUSH1 0xA0 SHL SUB SWAP1 SWAP2 AND DUP2 MSTORE PUSH1 0x20 ADD JUMPDEST PUSH1 0x40 MLOAD DUP1 SWAP2 SUB SWAP1 RETURN JUMPDEST CALLVALUE DUP1 ISZERO PUSH2 0xDD JUMPI PUSH1 0x0 DUP1 REVERT JUMPDEST POP PUSH2 0x109 PUSH2 0xEC CALLDATASIZE PUSH1 0x4 PUSH2 0x847 JUMP JUMPDEST PUSH1 0x1 PUSH1 0x20 SWAP1 DUP2 MSTORE PUSH1 0x0 SWAP3 DUP4 MSTORE PUSH1 0x40 DUP1 DUP5 KECCAK256 SWAP1 SWAP2 MSTORE SWAP1 DUP3 MSTORE SWAP1 KECCAK256 SLOAD DUP2 JUMP JUMPDEST PUSH1 0x40 MLOAD SWAP1 DUP2 MSTORE PUSH1 0x20 ADD PUSH2 0xC8 JUMP JUMPDEST CALLVALUE DUP1 ISZERO PUSH2 0x123 JUMPI PUSH1 0x0 DUP1 REVERT JUMPDEST POP PUSH2 0x109 PUSH2 0x132 CALLDATASIZE PUSH1 0x4 PUSH2 0x873 JUMP JUMPDEST PUSH1 0x2 PUSH1 0x20 MSTORE PUSH1 0x0 SWAP1 DUP2 MSTORE PUSH1 0x40 SWAP1 KECCAK256 SLOAD DUP2 JUMP JUMPDEST CALLVALUE DUP1 ISZERO PUSH2 0x150 JUMPI PUSH1 0x0 DUP1 REVERT JUMPDEST POP PUSH2 0x164 PUSH2 0x15F CALLDATASIZE PUSH1 0x4 PUSH2 0x88C JUMP JUMPDEST PUSH2 0x1CD JUMP JUMPDEST STOP JUMPDEST PUSH2 0x164 PUSH2 0x174 CALLDATASIZE PUSH1 0x4 PUSH2 0x8B6 JUMP JUMPDEST PUSH2 0x3C8 JUMP JUMPDEST CALLVALUE DUP1 ISZERO PUSH2 0x185 JUMPI PUSH1 0x0 DUP1 REVERT JUMPDEST POP PUSH2 0x164 PUSH2 0x194 CALLDATASIZE PUSH1 0x4 PUSH2 0x8D8 JUMP JUMPDEST PUSH2 0x5F0 JUMP JUMPDEST CALLVALUE DUP1 ISZERO PUSH2 0x1A5 JUMPI PUSH1 0x0 DUP1 REVERT JUMPDEST POP PUSH2 0xB4 PUSH32 0x0 DUP2 JUMP JUMPDEST CALLER PUSH1 0x1 PUSH1 0x1 PUSH1 0xA0 SHL SUB PUSH32 0x0 AND EQ PUSH2 0x237 JUMPI PUSH1 0x40 MLOAD PUSH4 0xDD23C3AD PUSH1 0xE0 SHL DUP2 MSTORE PUSH1 0x20 PUSH1 0x4 DUP3 ADD MSTORE PUSH1 0x9 PUSH1 0x24 DUP3 ADD MSTORE PUSH9 0x6E6F742067726F757 PUSH1 0xBC SHL PUSH1 0x44 DUP3 ADD MSTORE PUSH1 0x64 ADD JUMPDEST PUSH1 0x40 MLOAD DUP1 SWAP2 SUB SWAP1 REVERT JUMPDEST PUSH1 0x0 SLOAD PUSH1 0x1 SUB PUSH2 0x259 JUMPI PUSH1 0x40 MLOAD PUSH3 0x82B429 PUSH1 0xE8 SHL DUP2 MSTORE PUSH1 0x4 ADD PUSH1 0x40 MLOAD DUP1 SWAP2 SUB SWAP1 REVERT JUMPDEST PUSH1 0x1 PUSH1 0x0 SSTORE PUSH32 0x0 PUSH1 0x1 PUSH1 0x1 PUSH1 0xA0 SHL SUB AND PUSH2 0x306 JUMPI PUSH1 0x0 DUP3 PUSH1 0x1 PUSH1 0x1 PUSH1 0xA0 SHL SUB AND DUP3 PUSH1 0x40 MLOAD PUSH1 0x0 PUSH1 0x40 MLOAD DUP1 DUP4 SUB DUP2 DUP6 DUP8 GAS CALL SWAP3 POP POP POP RETURNDATASIZE DUP1 PUSH1 0x0 DUP2 EQ PUSH2 0x2D9 JUMPI PUSH1 0x40 MLOAD SWAP2 POP PUSH1 0x1F NOT PUSH1 0x3F RETURNDATASIZE ADD AND DUP3 ADD PUSH1 0x40 MSTORE RETURNDATASIZE DUP3 MSTORE RETURNDATASIZE PUSH1 0x0 PUSH1 0x20 DUP5 ADD RETURNDATACOPY PUSH2 0x2DE JUMP JUMPDEST PUSH1 0x60 SWAP2 POP JUMPDEST POP POP SWAP1 POP DUP1 PUSH2 0x300 JUMPI PUSH1 0x40 MLOAD PUSH4 0x12171D83 PUSH1 0xE3 SHL DUP2 MSTORE PUSH1 0x4 ADD PUSH1 0x40 MLOAD DUP1 SWAP2 SUB SWAP1 REVERT JUMPDEST POP PUSH2 0x3C0 JUMP JUMPDEST PUSH1 0x40 MLOAD PUSH4 0xA9059CBB PUSH1 0xE0 SHL DUP2 MSTORE PUSH1 0x1 PUSH1 0x1 PUSH1 0xA0 SHL SUB DUP4 DUP2 AND PUSH1 0x4 DUP4 ADD MSTORE PUSH1 0x24 DUP3 ADD DUP4 SWAP1 MSTORE PUSH1 0x0 SWAP2 PUSH32 0x0 SWAP1 SWAP2 AND SWAP1 PUSH4 0xA9059CBB SWAP1 PUSH1 0x44 ADD PUSH1 0x20 PUSH1 0x40 MLOAD DUP1 DUP4 SUB DUP2 PUSH1 0x0 DUP8 GAS CALL ISZERO DUP1 ISZERO PUSH2 0x37A JUMPI RETURNDATASIZE PUSH1 0x0 DUP1 RETURNDATACOPY RETURNDATASIZE PUSH1 0x0 REVERT JUMPDEST POP POP POP POP PUSH1 0x40 MLOAD RETURNDATASIZE PUSH1 0x1F NOT PUSH1 0x1F DUP3 ADD AND DUP3 ADD DUP1 PUSH1 0x40 MSTORE POP DUP2 ADD SWAP1 PUSH2 0x39E SWAP2 SWAP1 PUSH2 0x90D JUMP JUMPDEST SWAP1 POP DUP1 PUSH2 0x3BE JUMPI PUSH1 0x40 MLOAD PUSH4 0x12171D83 PUSH1 0xE3 SHL DUP2 MSTORE PUSH1 0x4 ADD PUSH1 0x40 MLOAD DUP1 SWAP2 SUB SWAP1 REVERT JUMPDEST POP JUMPDEST POP POP PUSH1 0x0 DUP1 SSTORE JUMP JUMPDEST PUSH1 0x0 SLOAD PUSH1 0x1 SUB PUSH2 0x3EA JUMPI PUSH1 0x40 MLOAD PUSH3 0x82B429 PUSH1 0xE8 SHL DUP2 MSTORE PUSH1 0x4 ADD PUSH1 0x40 MLOAD DUP1 SWAP2 SUB SWAP1 REVERT JUMPDEST PUSH1 0x1 PUSH1 0x0 SSTORE PUSH32 0x0 PUSH1 0x1 PUSH1 0x1 PUSH1 0xA0 SHL SUB AND PUSH2 0x462 JUMPI DUP1 CALLVALUE EQ PUSH2 0x45D JUMPI PUSH1 0x40 MLOAD PUSH4 0xDD23C3AD PUSH1 0xE0 SHL DUP2 MSTORE PUSH1 0x20 PUSH1 0x4 DUP3 ADD MSTORE PUSH1 0xD PUSH1 0x24 DUP3 ADD MSTORE PUSH13 0x1B985D1A5D9948185B5BDD5B9D PUSH1 0x9A SHL PUSH1 0x44 DUP3 ADD MSTORE PUSH1 0x64 ADD PUSH2 0x22E JUMP JUMPDEST PUSH2 0x560 JUMP JUMPDEST CALLVALUE ISZERO PUSH2 0x4A4 JUMPI PUSH1 0x40 MLOAD PUSH4 0xDD23C3AD PUSH1 0xE0 SHL DUP2 MSTORE PUSH1 0x20 PUSH1 0x4 DUP3 ADD MSTORE PUSH1 0x10 PUSH1 0x24 DUP3 ADD MSTORE PUSH16 0x6572633230206E6F74206E6174697665 PUSH1 0x80 SHL PUSH1 0x44 DUP3 ADD MSTORE PUSH1 0x64 ADD PUSH2 0x22E JUMP JUMPDEST PUSH1 0x40 MLOAD PUSH4 0x23B872DD PUSH1 0xE0 SHL DUP2 MSTORE CALLER PUSH1 0x4 DUP3 ADD MSTORE ADDRESS PUSH1 0x24 DUP3 ADD MSTORE PUSH1 0x44 DUP2 ADD DUP3 SWAP1 MSTORE PUSH1 0x0 SWAP1 PUSH32 0x0 PUSH1 0x1 PUSH1 0x1 PUSH1 0xA0 SHL SUB AND SWAP1 PUSH4 0x23B872DD SWAP1 PUSH1 0x64 ADD PUSH1 0x20 PUSH1 0x40 MLOAD DUP1 DUP4 SUB DUP2 PUSH1 0x0 DUP8 GAS CALL ISZERO DUP1 ISZERO PUSH2 0x51A JUMPI RETURNDATASIZE PUSH1 0x0 DUP1 RETURNDATACOPY RETURNDATASIZE PUSH1 0x0 REVERT JUMPDEST POP POP POP POP PUSH1 0x40 MLOAD RETURNDATASIZE PUSH1 0x1F NOT PUSH1 0x1F DUP3 ADD AND DUP3 ADD DUP1 PUSH1 0x40 MSTORE POP DUP2 ADD SWAP1 PUSH2 0x53E SWAP2 SWAP1 PUSH2 0x90D JUMP JUMPDEST SWAP1 POP DUP1 PUSH2 0x55E JUMPI PUSH1 0x40 MLOAD PUSH4 0x12171D83 PUSH1 0xE3 SHL DUP2 MSTORE PUSH1 0x4 ADD PUSH1 0x40 MLOAD DUP1 SWAP2 SUB SWAP1 REVERT JUMPDEST POP JUMPDEST PUSH1 0x0 DUP3 DUP2 MSTORE PUSH1 0x1 PUSH1 0x20 SWAP1 DUP2 MSTORE PUSH1 0x40 DUP1 DUP4 KECCAK256 CALLER DUP5 MSTORE SWAP1 SWAP2 MSTORE DUP2 KECCAK256 DUP1 SLOAD DUP4 SWAP3 SWAP1 PUSH2 0x589 SWAP1 DUP5 SWAP1 PUSH2 0x936 JUMP JUMPDEST SWAP1 SWAP2 SSTORE POP POP PUSH1 0x0 DUP3 DUP2 MSTORE PUSH1 0x2 PUSH1 0x20 MSTORE PUSH1 0x40 DUP2 KECCAK256 DUP1 SLOAD DUP4 SWAP3 SWAP1 PUSH2 0x5AC SWAP1 DUP5 SWAP1 PUSH2 0x936 JUMP JUMPDEST SWAP1 SWAP2 SSTORE POP POP PUSH1 0x40 MLOAD DUP2 DUP2 MSTORE DUP3 SWAP1 CALLER SWAP1 PUSH32 0x5F7675B09617D2C9FA4FD13058EE5877A9538F626B0308816736E83748A45040 SWAP1 PUSH1 0x20 ADD PUSH1 0x40 MLOAD DUP1 SWAP2 SUB SWAP1 LOG3 POP POP PUSH1 0x0 DUP1 SSTORE JUMP JUMPDEST CALLER PUSH1 0x1 PUSH1 0x1 PUSH1 0xA0 SHL SUB PUSH32 0x0 AND EQ PUSH2 0x655 JUMPI PUSH1 0x40 MLOAD PUSH4 0xDD23C3AD PUSH1 0xE0 SHL DUP2 MSTORE PUSH1 0x20 PUSH1 0x4 DUP3 ADD MSTORE PUSH1 0x9 PUSH1 0x24 DUP3 ADD MSTORE PUSH9 0x6E6F742067726F757 PUSH1 0xBC SHL PUSH1 0x44 DUP3 ADD MSTORE PUSH1 0x64 ADD PUSH2 0x22E JUMP JUMPDEST PUSH1 0x0 SLOAD PUSH1 0x1 SUB PUSH2 0x677 JUMPI PUSH1 0x40 MLOAD PUSH3 0x82B429 PUSH1 0xE8 SHL DUP2 MSTORE PUSH1 0x4 ADD PUSH1 0x40 MLOAD DUP1 SWAP2 SUB SWAP1 REVERT JUMPDEST PUSH1 0x1 PUSH1 0x0 SSTORE PUSH32 0x0 PUSH1 0x1 PUSH1 0x1 PUSH1 0xA0 SHL SUB AND PUSH2 0x724 JUMPI PUSH1 0x0 DUP3 PUSH1 0x1 PUSH1 0x1 PUSH1 0xA0 SHL SUB AND DUP3 PUSH1 0x40 MLOAD PUSH1 0x0 PUSH1 0x40 MLOAD DUP1 DUP4 SUB DUP2 DUP6 DUP8 GAS CALL SWAP3 POP POP POP RETURNDATASIZE DUP1 PUSH1 0x0 DUP2 EQ PUSH2 0x6F7 JUMPI PUSH1 0x40 MLOAD SWAP2 POP PUSH1 0x1F NOT PUSH1 0x3F RETURNDATASIZE ADD AND DUP3 ADD PUSH1 0x40 MSTORE RETURNDATASIZE DUP3 MSTORE RETURNDATASIZE PUSH1 0x0 PUSH1 0x20 DUP5 ADD RETURNDATACOPY PUSH2 0x6FC JUMP JUMPDEST PUSH1 0x60 SWAP2 POP JUMPDEST POP POP SWAP1 POP DUP1 PUSH2 0x71E JUMPI PUSH1 0x40 MLOAD PUSH4 0x12171D83 PUSH1 0xE3 SHL DUP2 MSTORE PUSH1 0x4 ADD PUSH1 0x40 MLOAD DUP1 SWAP2 SUB SWAP1 REVERT JUMPDEST POP PUSH2 0x7DE JUMP JUMPDEST PUSH1 0x40 MLOAD PUSH4 0xA9059CBB PUSH1 0xE0 SHL DUP2 MSTORE PUSH1 0x1 PUSH1 0x1 PUSH1 0xA0 SHL SUB DUP4 DUP2 AND PUSH1 0x4 DUP4 ADD MSTORE PUSH1 0x24 DUP3 ADD DUP4 SWAP1 MSTORE PUSH1 0x0 SWAP2 PUSH32 0x0 SWAP1 SWAP2 AND SWAP1 PUSH4 0xA9059CBB SWAP1 PUSH1 0x44 ADD PUSH1 0x20 PUSH1 0x40 MLOAD DUP1 DUP4 SUB DUP2 PUSH1 0x0 DUP8 GAS CALL ISZERO DUP1 ISZERO PUSH2 0x798 JUMPI RETURNDATASIZE PUSH1 0x0 DUP1 RETURNDATACOPY RETURNDATASIZE PUSH1 0x0 REVERT JUMPDEST POP POP POP POP PUSH1 0x40 MLOAD RETURNDATASIZE PUSH1 0x1F NOT PUSH1 0x1F DUP3 ADD AND DUP3 ADD DUP1 PUSH1 0x40 MSTORE POP DUP2 ADD SWAP1 PUSH2 0x7BC SWAP2 SWAP1 PUSH2 0x90D JUMP JUMPDEST SWAP1 POP DUP1 PUSH2 0x7DC JUMPI PUSH1 0x40 MLOAD PUSH4 0x12171D83 PUSH1 0xE3 SHL DUP2 MSTORE PUSH1 0x4 ADD PUSH1 0x40 MLOAD DUP1 SWAP2 SUB SWAP1 REVERT JUMPDEST POP JUMPDEST DUP3 DUP3 PUSH1 0x1 PUSH1 0x1 PUSH1 0xA0 SHL SUB AND PUSH32 0x634235FCF5AF0ADBCA1A405EC65F6F6C08F55E1F379C2C45CD10F23CB29E0E31 DUP4 PUSH1 0x40 MLOAD PUSH2 0x81A SWAP2 DUP2 MSTORE PUSH1 0x20 ADD SWAP1 JUMP JUMPDEST PUSH1 0x40 MLOAD DUP1 SWAP2 SUB SWAP1 LOG3 POP POP PUSH1 0x0 DUP1 SSTORE POP JUMP JUMPDEST DUP1 CALLDATALOAD PUSH1 0x1 PUSH1 0x1 PUSH1 0xA0 SHL SUB DUP2 AND DUP2 EQ PUSH2 0x842 JUMPI PUSH1 0x0 DUP1 REVERT JUMPDEST SWAP2 SWAP1 POP JUMP JUMPDEST PUSH1 0x0 DUP1 PUSH1 0x40 DUP4 DUP6 SUB SLT ISZERO PUSH2 0x85A JUMPI PUSH1 0x0 DUP1 REVERT JUMPDEST DUP3 CALLDATALOAD SWAP2 POP PUSH2 0x86A PUSH1 0x20 DUP5 ADD PUSH2 0x82B JUMP JUMPDEST SWAP1 POP SWAP3 POP SWAP3 SWAP1 POP JUMP JUMPDEST PUSH1 0x0 PUSH1 0x20 DUP3 DUP5 SUB SLT ISZERO PUSH2 0x885 JUMPI PUSH1 0x0 DUP1 REVERT JUMPDEST POP CALLDATALOAD SWAP2 SWAP1 POP JUMP JUMPDEST PUSH1 0x0 DUP1 PUSH1 0x40 DUP4 DUP6 SUB SLT ISZERO PUSH2 0x89F JUMPI PUSH1 0x0 DUP1 REVERT JUMPDEST PUSH2 0x8A8 DUP4 PUSH2 0x82B JUMP JUMPDEST SWAP5 PUSH1 0x20 SWAP4 SWAP1 SWAP4 ADD CALLDATALOAD SWAP4 POP POP POP JUMP JUMPDEST PUSH1 0x0 DUP1 PUSH1 0x40 DUP4 DUP6 SUB SLT ISZERO PUSH2 0x8C9 JUMPI PUSH1 0x0 DUP1 REVERT JUMPDEST POP POP DUP1 CALLDATALOAD SWAP3 PUSH1 0x20 SWAP1 SWAP2 ADD CALLDATALOAD SWAP2 POP JUMP JUMPDEST PUSH1 0x0 DUP1 PUSH1 0x0 PUSH1 0x60 DUP5 DUP7 SUB SLT ISZERO PUSH2 0x8ED JUMPI PUSH1 0x0 DUP1 REVERT JUMPDEST DUP4 CALLDATALOAD SWAP3 POP PUSH2 0x8FD PUSH1 0x20 DUP6 ADD PUSH2 0x82B JUMP JUMPDEST SWAP2 POP PUSH1 0x40 DUP5 ADD CALLDATALOAD SWAP1 POP SWAP3 POP SWAP3 POP SWAP3 JUMP JUMPDEST PUSH1 0x0 PUSH1 0x20 DUP3 DUP5 SUB SLT ISZERO PUSH2 0x91F JUMPI PUSH1 0x0 DUP1 REVERT JUMPDEST DUP2 MLOAD DUP1 ISZERO ISZERO DUP2 EQ PUSH2 0x92F JUMPI PUSH1 0x0 DUP1 REVERT JUMPDEST SWAP4 SWAP3 POP POP POP JUMP JUMPDEST DUP1 DUP3 ADD DUP1 DUP3 GT ISZERO PUSH2 0x957 JUMPI PUSH4 0x4E487B71 PUSH1 0xE0 SHL PUSH1 0x0 MSTORE PUSH1 0x11 PUSH1 0x4 MSTORE PUSH1 0x24 PUSH1 0x0 REVERT JUMPDEST SWAP3 SWAP2 POP POP JUMP INVALID LOG2 PUSH5 0x6970667358 0x22 SLT KECCAK256 SWAP1 INVALID EXTCODECOPY 0xC9 0xC6 0x24 PREVRANDAO MOD PUSH15 0x49F780B324E06C0BC816405F851446 TIMESTAMP SWAP6 0xD9 0xCA 0x24 ORIGIN 0xAD PUSH32 0x64736F6C63430008180033000000000000000000000000000000000000000000 "},"methodIdentifiers":{"cfg()":"0457dad2","commitBid(bytes32)":"86a2cc27","currentCycle()":"bab2f552","currentPhase()":"055ad42e","cycleBidding(uint256)":"a7f32125","cycleWinner(uint256)":"4f38ccd0","distributeFunds()":"3a6a4d2e","finalizeBidding()":"bb15bac1","getMembers()":"9eab5253","isMember(address)":"a230c524","joinGroup()":"9ac79e0a","makeContribution(uint256)":"360a2bcb","members(uint256)":"5daf08ca","openCycle(uint256)":"26a3cc9b","organizer()":"61203265","owner()":"8da5cb5b","pause()":"8456cb59","paused()":"5c975abb","payments()":"a6d23e10","reputationSystem()":"6587eda1","revealBid(uint256,bytes32)":"62c5424a","transferOwnership(address)":"f2fde38b","unpause()":"3f4ba83a"}}}}}