{
  "_format": "hh-sol-artifact-1",
  "contractName": "PaymentManager",
  "sourceName": "contracts/PaymentManager.sol",
  "abi": [
    {
      "inputs": [
        {
          "internalType": "address",
          "name": "currency_",
          "type": "address"
        },
        {
          "internalType": "address",
          "name": "group_",
          "type": "address"
        }
      ],
      "stateMutability": "nonpayable",
      "type": "constructor"
    },
    {
      "inputs": [
        {
          "internalType": "string",
          "name": "reason",
          "type": "string"
        }
      ],
      "name": "InvalidParameters",
      "type": "error"
    },
    {
      "inputs": [],
      "name": "TransferFailed",
      "type": "error"
    },
    {
      "inputs": [],
      "name": "Unauthorized",
      "type": "error"
    },
    {
      "anonymous": false,
      "inputs": [
        {
          "indexed": true,
          "internalType": "address",
          "name": "payer",
          "type": "address"
        },
        {
          "indexed": true,
          "internalType": "uint256",
          "name": "cycle",
          "type": "uint256"
        },
        {
          "indexed": false,
          "internalType": "uint256",
          "name": "amount",
          "type": "uint256"
        }
      ],
      "name": "Contribution",
      "type": "event"
    },
    {
      "anonymous": false,
      "inputs": [
        {
          "indexed": true,
          "internalType": "address",
          "name": "to",
          "type": "address"
        },
        {
          "indexed": true,
          "internalType": "uint256",
          "name": "cycle",
          "type": "uint256"
        },
        {
          "indexed": false,
          "internalType": "uint256",
          "name": "amount",
          "type": "uint256"
        }
      ],
      "name": "Payout",
      "type": "event"
    },
    {
      "inputs": [
        {
          "internalType": "uint256",
          "name": "cycle",
          "type": "uint256"
        },
        {
          "internalType": "uint256",
          "name": "amount",
          "type": "uint256"
        }
      ],
      "name": "contribute",
      "outputs": [],
      "stateMutability": "payable",
      "type": "function"
    },
    {
      "inputs": [],
      "name": "currency",
      "outputs": [
        {
          "internalType": "address",
          "name": "",
          "type": "address"
        }
      ],
      "stateMutability": "view",
      "type": "function"
    },
    {
      "inputs": [],
      "name": "group",
      "outputs": [
        {
          "internalType": "address",
          "name": "",
          "type": "address"
        }
      ],
      "stateMutability": "view",
      "type": "function"
    },
    {
      "inputs": [
        {
          "internalType": "uint256",
          "name": "",
          "type": "uint256"
        },
        {
          "internalType": "address",
          "name": "",
          "type": "address"
        }
      ],
      "name": "paidAmountByCycle",
      "outputs": [
        {
          "internalType": "uint256",
          "name": "",
          "type": "uint256"
        }
      ],
      "stateMutability": "view",
      "type": "function"
    },
    {
      "inputs": [
        {
          "internalType": "uint256",
          "name": "cycle",
          "type": "uint256"
        },
        {
          "internalType": "address",
          "name": "to",
          "type": "address"
        },
        {
          "internalType": "uint256",
          "name": "amount",
          "type": "uint256"
        }
      ],
      "name": "payout",
      "outputs": [],
      "stateMutability": "nonpayable",
      "type": "function"
    },
    {
      "inputs": [
        {
          "internalType": "address",
          "name": "to",
          "type": "address"
        },
        {
          "internalType": "uint256",
          "name": "amount",
          "type": "uint256"
        }
      ],
      "name": "sweep",
      "outputs": [],
      "stateMutability": "nonpayable",
      "type": "function"
    },
    {
      "inputs": [
        {
          "internalType": "uint256",
          "name": "",
          "type": "uint256"
        }
      ],
      "name": "totalCollectedByCycle",
      "outputs": [
        {
          "internalType": "uint256",
          "name": "",
          "type": "uint256"
        }
      ],
      "stateMutability": "view",
      "type": "function"
    },
    {
      "stateMutability": "payable",
      "type": "receive"
    }
  ],
  "bytecode": "0x60c060405234801561001057600080fd5b50604051610a84380380610a8483398101604081905261002f91610062565b6001600160a01b0391821660a05216608052610095565b80516001600160a01b038116811461005d57600080fd5b919050565b6000806040838503121561007557600080fd5b61007e83610046565b915061008c60208401610046565b90509250929050565b60805160a0516109936100f1600039600081816101ab015281816102600152818161032f015281816103f1015281816104c90152818161067e015261074d0152600081816092015281816101d801526105fb01526109936000f3fe6080604052600436106100745760003560e01c80636ea056a91161004e5780636ea056a9146101445780638c59091714610166578063ae2f5d9314610179578063e5a6b10f1461019957600080fd5b806329e7ef2d1461008057806350d7e93d146100d15780635e7ea0331461011757600080fd5b3661007b57005b600080fd5b34801561008c57600080fd5b506100b47f000000000000000000000000000000000000000000000000000000000000000081565b6040516001600160a01b0390911681526020015b60405180910390f35b3480156100dd57600080fd5b506101096100ec366004610847565b600160209081526000928352604080842090915290825290205481565b6040519081526020016100c8565b34801561012357600080fd5b50610109610132366004610873565b60026020526000908152604090205481565b34801561015057600080fd5b5061016461015f36600461088c565b6101cd565b005b6101646101743660046108b6565b6103c8565b34801561018557600080fd5b506101646101943660046108d8565b6105f0565b3480156101a557600080fd5b506100b47f000000000000000000000000000000000000000000000000000000000000000081565b336001600160a01b037f000000000000000000000000000000000000000000000000000000000000000016146102375760405163dd23c3ad60e01b815260206004820152600960248201526806e6f742067726f75760bc1b60448201526064015b60405180910390fd5b600054600103610259576040516282b42960e81b815260040160405180910390fd5b60016000557f00000000000000000000000000000000000000000000000000000000000000006001600160a01b0316610306576000826001600160a01b03168260405160006040518083038185875af1925050503d80600081146102d9576040519150601f19603f3d011682016040523d82523d6000602084013e6102de565b606091505b5050905080610300576040516312171d8360e31b815260040160405180910390fd5b506103c0565b60405163a9059cbb60e01b81526001600160a01b038381166004830152602482018390526000917f00000000000000000000000000000000000000000000000000000000000000009091169063a9059cbb906044016020604051808303816000875af115801561037a573d6000803e3d6000fd5b505050506040513d601f19601f8201168201806040525081019061039e919061090d565b9050806103be576040516312171d8360e31b815260040160405180910390fd5b505b505060008055565b6000546001036103ea576040516282b42960e81b815260040160405180910390fd5b60016000557f00000000000000000000000000000000000000000000000000000000000000006001600160a01b03166104625780341461045d5760405163dd23c3ad60e01b815260206004820152600d60248201526c1b985d1a5d9948185b5bdd5b9d609a1b604482015260640161022e565b610560565b34156104a45760405163dd23c3ad60e01b815260206004820152601060248201526f6572633230206e6f74206e617469766560801b604482015260640161022e565b6040516323b872dd60e01b8152336004820152306024820152604481018290526000907f00000000000000000000000000000000000000000000000000000000000000006001600160a01b0316906323b872dd906064016020604051808303816000875af115801561051a573d6000803e3d6000fd5b505050506040513d601f19601f8201168201806040525081019061053e919061090d565b90508061055e576040516312171d8360e31b815260040160405180910390fd5b505b600082815260016020908152604080832033845290915281208054839290610589908490610936565b9091555050600082815260026020526040812080548392906105ac908490610936565b9091555050604051818152829033907f5f7675b09617d2c9fa4fd13058ee5877a9538f626b0308816736e83748a450409060200160405180910390a3505060008055565b336001600160a01b037f000000000000000000000000000000000000000000000000000000000000000016146106555760405163dd23c3ad60e01b815260206004820152600960248201526806e6f742067726f75760bc1b604482015260640161022e565b600054600103610677576040516282b42960e81b815260040160405180910390fd5b60016000557f00000000000000000000000000000000000000000000000000000000000000006001600160a01b0316610724576000826001600160a01b03168260405160006040518083038185875af1925050503d80600081146106f7576040519150601f19603f3d011682016040523d82523d6000602084013e6106fc565b606091505b505090508061071e576040516312171d8360e31b815260040160405180910390fd5b506107de565b60405163a9059cbb60e01b81526001600160a01b038381166004830152602482018390526000917f00000000000000000000000000000000000000000000000000000000000000009091169063a9059cbb906044016020604051808303816000875af1158015610798573d6000803e3d6000fd5b505050506040513d601f19601f820116820180604052508101906107bc919061090d565b9050806107dc576040516312171d8360e31b815260040160405180910390fd5b505b82826001600160a01b03167f634235fcf5af0adbca1a405ec65f6f6c08f55e1f379c2c45cd10f23cb29e0e318360405161081a91815260200190565b60405180910390a350506000805550565b80356001600160a01b038116811461084257600080fd5b919050565b6000806040838503121561085a57600080fd5b8235915061086a6020840161082b565b90509250929050565b60006020828403121561088557600080fd5b5035919050565b6000806040838503121561089f57600080fd5b6108a88361082b565b946020939093013593505050565b600080604083850312156108c957600080fd5b50508035926020909101359150565b6000806000606084860312156108ed57600080fd5b833592506108fd6020850161082b565b9150604084013590509250925092565b60006020828403121561091f57600080fd5b8151801515811461092f57600080fd5b9392505050565b8082018082111561095757634e487b7160e01b600052601160045260246000fd5b9291505056fea264697066735822122090fe3cc9c62444066e49f780b324e06c0bc816405f8514464295d9ca2432ad7f64736f6c63430008180033",
  "linkReferences": {},
  "deployedLinkReferences": {}
}